:10A1DB00542D53656E736F727320636F6E6E656370
:06A1EB007465643A2000D7
:109D850044018C01020408450062010204080054E4
:109D9500004B00050019006401F4000500050005ED
:109DA5000005000500024A00419EECFBFF9E9E9EB9
:089DB5009E9E0042005F030CBA
:03000B00029BC78E
:109BC700C0E0C083C082C0D090018BE004F0700673
:109BD70090018AE004F0900153E004F070069001D0
:109BE70052E004F0900155E004F07006900154E053
:109BF70004F0900157E004F07006900156E004F07D
:109C0700D3900159E094F4900158E09401500CA3CB
:109C1700E004F07006900158E004F090015BE00466
:109C2700F0700690015AE004F0D0D0D082D083D0F3
:029C3700E03219
:0300230002952E15
:10952E00C0E0C0F0C083C082C0D075D000C000C003
:0D953E0001C002C003C004C005C006C00784
:10954B00E59830E0785398FE900191E599F0E0FFB3
:10955B00900151E02400F582E43400F583EFF0EF45
:10956B00B40D2C90014D7401F0900151E0FF2400DB
:10957B00F582E43400F5837420F074012FF582E456
:10958B003400F583E4F07F0A12A2407F0D800B902C
:10959B000144E06008900191E0FF12A2409001515C
:1095AB00E0D3943F5003E004F0900191E0B4080D38
:0D95BB00900151E0D394014004E024FEF043
:1095C800D007D006D005D004D003D002D001D000F7
:0B95D800D0D0D082D083D0F0D0E032A1
:1074E200E4900194F0758F1F438E0C75C834F5C972
:1074F20075985075878075A89275CBFF75CADE7531
:107502009B1E759A7E900143F0900192F0A3F09039
:107512000151F07B0190014E04F0A37410F0A374AA
:1075220000F090017D7404F090017C7408F07F40BB
:10753200900000E4F0A3DFFC7F40E490014DF09066
:10754200014404F0E4900040F0900189F012670DCC
:1075520012A2051261731270E8125E35128DE97F74
:10756200DC7E00129B527F2D12A2407F2A7E0012E7
:107572009B5212A27812A1AA90014DE06003120060
:107582002690017EE07024D390018BE094C8900194
:107592008AE094004015128DE97BFF7AA179DB1213
:1075A2009F61129917129E4912A278C3900153E06B
:1075B200940B900152E094004013E4F0A3F0901079
:1075C2000FE06003125372124B4C128ECA9010429B
:1075D200E0B40103125AB8C3900155E0943290010D
:1075E20054E094005003027668E4F0A3F012866A35
:1075F20012850E127F3A123B08900178E06007A3D1
:10760200E06401F08005E4900179F0900179E09066
:107612001009F090017AE0FF30E0056480F0800507
:10762200E490017AF0127A4F125E35129917129D88
:10763200D8901044E09001776006E04404F08004A2
:10764200E054FBF0900177E0FFD39401400CEF444B
:1076520001F09010517401F0800C900177E054FE1B
:10766200F0E4901051F0C3900157E094C890015695
:10767200E094004004E4F0A3F0C3900159E094F4D4
:10768200900158E094014010900190E0600AE4906B
:107692000158F0A3F0124FAEC390015BE094059045
:1076A200015AE09400500302757A90017BE0700366
:0B76B20002757AE4F012A11D02757A47
:10A0A4006175746F20737769746368206F666620C6
:10A0B4006368616E6E656C2000C3D1B846ABA59D24
:0FA0C400D5905B826C74C767BB5B85504D462699
:10A20500E490018AF0A3F0C28CC28EF589D2A9D25E
:02A215008C2299
:088B08009001A5EEF0A3EFF0CF
:108B1000D3940FEE9427402A9001A5E0FEA3E0FF36
:108B20007C277D1012396F9001A9EFF07E007C2721
:108B30007D1012395DC39001A6E09FF09001A5E081
:108B40009EF09001A5E0FEA3E0FF7C037DE81239D2
:108B50006F9001A9EFF0E0FDC454F09001A7F0A3DD
:108B6000E4F0EDFF7E007C037DE812395DC39001E7
:108B7000A6E09FF09001A5E09EF0E0FAA3E0FB7C68
:108B8000007D64FFAE0212396F9001A9EFF0E0F9A9
:108B9000FE9001A8E02400F09001A7E03EF0E97506
:108BA000F064A4FFC3EB9FFEEA95F09001A5F0A34B
:108BB000CEF09001A5E0FAA3E0FB7C007D0AFFAEB9
:108BC0000212396F9001A9EFF0E0F975F010A4FFDF
:108BD000AEF09001A8E02FF09001A7E03EF0E9751B
:108BE000F00AA4FFC3EB9FFFEA95F09001A5F0A364
:108BF000EFF09001A9F09001A8E02FF09001A7E01C
:088C00003400F0E0FEA3E0FFE8
:018C08002249
:109F9300EF540FFEC39400400BEED394095005EE2B
:109FA30024308003EE243790000112393BEF54F044
:109FB300C4540FFEC39400400BEED394095005EE36
:0A9FC30024308003EE243712392900
:019FCD002271
:10670D00E4900190F0900177F0A3F0A3F0A3F09046
:10671D00019CF090019CE0FFC394055018EF25E01B
:10672D002452F582E43401F583E4F0A3F090019C4A
:10673D00E004F080DEE490019CF090019CE0FB25EC
:10674D00E025E0246BF582E43400F583123AA54789
:10675D00000000EB25E025E0247BF582E43400F514
:10676D0083123AA54700000090019CE0FF25E0242C
:10677D0003F582E43401F583E4F0A3F0EF25E02482
:10678D000BF582E43401F583E4F0A3F0EF25E02569
:10679D00E0248BF582E43400F583123AA500000065
:1067AD000090019CE0FB25E025E0249BF582E4347C
:1067BD0000F583123AA500000000EB25E024ABF5AF
:1067CD0082E43400F583E4F0A3F090019CE0FF2512
:1067DD00E0241BF582E43401F583E4F0A374C8F0E2
:1067ED00EF25E02423F582E43401F583E4F0A3746E
:1067FD00C8F0EF25E0242BF582E43401F583E4F0B5
:10680D00A3F0EF25E024B3F582E43400F583E4F042
:10681D00A3F074BB2FF582E43400F5837464F0EFBC
:10682D0025E024BFF582E43400F583E4F0A3F0EF16
:10683D0025E02433F582E43401F5837427F0A37445
:10684D000FF074672FF582E43400F583E4F074677C
:10685D002FF582E43400F583E04401F090019CE0D3
:10686D00FF2467F582E43400F583E04402F0EF2560
:10687D00E024D7F582E43400F5837401F0A374901D
:10688D00F090019CE0FF25E024C7F582E43400F58B
:10689D0083E4F0A3F0EF25E024CFF582E43400F596
:1068AD0083E4F0A3F0EF25E024DFF582E43400F576
:1068BD0083744EF0A37420F0EF25E024E7F582E415
:1068CD003400F58374FAF0A3E4F0EF25E024F3F53A
:1068DD0082E43400F5837409F0A374C4F0EF25E06D
:1068ED0024FBF582E43400F583742AF0A37430F0B0
:1068FD0074EF2FF582E43400F5837404F0EF25E096
:10690D002413F582E43401F583E4F0A3F0EF25E0E0
:10691D00243BF582E43401F583E4F0A3F0EF25E0A8
:10692D0024D7F582E43400F583E0FCA3E0FDEF24E9
:10693D0048FFE433FEEF25E0FFEE33FE90014EE01D
:10694D00FBA3E0FAA3E0F98F828E83EC8DF0123A6F
:10695D004890019CE004F0E06404600302674790F6
:10696D00100A7401F0A3F0E4A3F090017EF0900101
:10697D0087F0A3F090017BF090017604F0E4900194
:10698D0080F0A3F0A3F0A304F0E4900174F0900163
:10699D007304F0E4900175F090017FF0900185741F
:1069AD0002F0E02441F582E43400F583E0901040DC
:0769BD00F0900186740CF05C
:0169C40022B0
:0883AA009001ABEEF0A3EFF02F
:1083B20078B27C017D017BFF7AA079BD7E007F16B9
:1083C2001238687FE77E027DE77C02E41236DEC067
:1083D20004C005C006C0079001ABE0FEA3E078022E
:1083E200C333CE33CED8F9249BF58274003EF58395
:1083F200E0FCA3E0FDA3E0FEA3E0FFD003D002D0A7
:1084020001D0001233D11237179001C8EEF0A3EF5A
:10841200F0D39001B3E09F9001B2E09E5003028539
:1084220009E49001ADF09001ADE0FFC3940A40036E
:10843200028509EF25E024B4F582E43401F583E0F6
:10844200FEA3E0FF9001C8E0FCA3E0FDD39FEC9EF9
:1084520050030285009001ADE025E024B2F582E4EC
:108462003401F583E0FEA3E0C39DFDEE9CFCE41223
:1084720036DE9001AE123A999001ADE0FF25E0247C
:10848200B4F582E43401F583E0FCA3E0FDEF25E0DE
:1084920024B2F582E43401F583E0FEA3E0C39DFD3E
:1084A200EE9CFCE41236DEC004C005C006C007E440
:1084B200FFFE7DFA7C439001AEE0F8A3E0F9A3E071
:1084C200FAA3E0FB1234C6D003D002D001D00012CE
:1084D20035CFC004C005C006C0079001ADE0FF7EE5
:1084E200007C017DF412395DAC06AD07E41236DE84
:1084F200D003D002D001D0001233D5023717900139
:0B850200ADE004F00284287E277F0F0C
:01850D00224B
:05644D009001A3EFF037
:106452009001AC740AF0A374F6F09001A3E025E079
:1064620025E0248BF582E43400F583E0FCA3E0FD13
:10647200A3E0FEA3E0FF9001A4123A99E4FFFEFD1F
:106482007C479001A4E0F8A3E0F9A3E0FAA3E0FBC3
:1064920012366C9001A4E0501FF8A3E0F9A3E0FAD1
:1064A200A3E0FBE4FFFEFD7C471233D1E4FBFA7963
:1064B2008078BF1234C68013FCA3E0FDA3E0FEA3E4
:1064C200E0FFE4FBFAF978C71233D59001A4123A3F
:1064D200999001ACE0FC1236E39001A4E0F8A3E04D
:1064E200F9A3E0FAA3E0FB12366C6002501E9001A1
:1064F200ADE0FC1236E39001A4E0F8A3E0F9A3E0DA
:10650200FAA3E0FB12366C40030265B69001ACE0E0
:10651200FC1236E39001A4E0F8A3E0F9A3E0FAA3A9
:10652200E0FB12366C603940379001A4E0FCA3E036
:10653200FDA3E0FEA3E0FFC004C005C006C00790B3
:1065420001ACE0FC1236E3A804A905AA06AB07D009
:1065520007D006D005D0041233D19001A4123A9983
:106562009001ADE0FC1236E39001A4E0F8A3E0F95B
:10657200A3E0FAA3E0FB12366C50439001A4E0FCC6
:10658200A3E0FDA3E0FEA3E0FFC004C005C006C077
:10659200079001ADE0FC1236E3A804A905AA06ABF8
:1065A20007D007D006D005D0041233D19001A4122F
:1065B2003A99800A9001A4123AA5000000009001C5
:1065C200A3E0FB25E024ABF582E43400F583E0FE92
:1065D200A3E0C39450EE9400500A9001A4123AA58D
:1065E2000000000074672BF582E43400F583E0308C
:1065F200E60A9001A4123AA5000000009001A3E06F
:1066020025E024ABF582E43400F583E0FCA3E0FD51
:10661200C39440EC941F5063E41236DEE4FBFA7933
:10662200A0783F1234C69001A8123A99E4FFFE7D89
:10663200A07C3F9001A4E0F8A3E0F9A3E0FAA3E074
:10664200FB1234C69001A8E0F8A3E0F9A3E0FAA394
:10665200E0FB1233D51237179001A3E0FD25E024A9
:10666200B3F582E43400F583EEF0A3EFF074BB2DB2
:10667200F582E43400F5837464F0229001A3E025EE
:10668200E024ABF582E43400F583E0FEA3E054F8A5
:106692002404FDE43EFCE41236DE9001A8123A998D
:1066A2009001A8E0FCA3E0FDA3E0FEA3E0FFE4FB71
:1066B200FAF9783E1234C69001A8123A99E4FFFE24
:1066C200FD7C3E9001A4E0F8A3E0F9A3E0FAA3E088
:1066D200FB1234C69001A8E0F8A3E0F9A3E0FAA304
:1066E200E0FB1233D51237179001A3E0FD25E02419
:1066F200B3F582E43400F583EEF0A3EFF074BB2D22
:0A670200F582E43400F583740AF018
:01670C00226A
:056E9C009001A2EFF0DF
:106EA100A37480F0A3E4F0A37409F0A374C4F09078
:106EB10001A2E024EFF582E43400F583E0FF7E00D7
:106EC1001283AA9001A5EEF0A3EFF09001A2E0FDDC
:106ED10025E024F3F582E43400F583E0FAA3E0C36E
:106EE1009FEA9E4003026FDDED25E024FBF582E47D
:106EF1003400F583E0FEA3E0FFC39410EE94274035
:106F01005FEF24F0FDEE34D8FCE41236DE9001A7E9
:106F1100123A999001A2E025E024F3F582E43400CD
:106F2100F583E0FEA3E0FFC39001A6E09FFD900181
:106F3100A5E09EFCE41236DE9001A7E0F8A3E0F99B
:106F4100A3E0FAA3E0FB1234C67B007A40799C7877
:106F5100441235CFE4FBFAF978471233D50270D4E5
:106F61009001A2E025E024FBF582E43400F583E002
:106F7100FEA3E0FFC374109FFD74279EFCE412364C
:106F8100DE9001A7123A999001A2E025E024F3F5E1
:106F910082E43400F583E0FEA3E0FFC39001A6E0A4
:106FA1009FFD9001A5E09EFCE41236DE9001A7E072
:106FB100F8A3E0F9A3E0FAA3E0FB1234C67B007A60
:106FC10040799C78441235CFA804A905AA06AB07DD
:106FD100E4FFFEFD7C471233D10270D49001A2E0A0
:106FE10025E024FBF582E43400F583E0FEA3E0FF15
:106FF100C39410EE94274068EF24F0FDEE34D8FCE2
:10700100E41236DE9001A7123A999001A2E025E040
:1070110024F3F582E43400F583E0FEA3E0FF900160
:10702100A5E0FCA3E0FDC3EF9DFDEE9CFCE4123660
:10703100DE9001A7E0F8A3E0F9A3E0FAA3E0FB12D8
:1070410034C67B007A40799C78441235CFA804A9D4
:1070510005AA06AB07E4FFFEFD7C471233D180731E
:107061009001A2E025E024FBF582E43400F583E001
:10707100FEA3E0FFC374109FFD74279EFCE412364B
:10708100DE9001A7123A999001A2E025E024F3F5E0
:1070910082E43400F583E0FEA3E0FF9001A5E0FC6B
:1070A100A3E0FDC3EF9DFDEE9CFCE41236DE9001F2
:1070B100A7E0F8A3E0F9A3E0FAA3E0FB1234C67B52
:1070C100007A40799C78441235CFE4FBFAF978478D
:1070D1001233D51237179001A3EEF0A3EFF0900110
:0670E100A3E0FEA3E0FFA6
:0170E7002286
:0569C50090019FEFF0BE
:1069CA00E4A3F0A3F0ED90019F6024E0FF2467F5B3
:1069DA0082E43400F583E04401F090100CE0FE7488
:1069EA008C2FF582E43401F583E0FFEE4F8023E03B
:1069FA00FF2467F582E43400F583E054FEF090103A
:106A0A000CE0FE748C2FF582E43401F583E0F4FF88
:106A1A00EE5F90100CF090019FE0FF2467F582E48E
:106A2A003400F583E020E003026BB374EF2FF582A4
:106A3A00E43400F583E02462F582E43400F583E06F
:106A4A00FF900184E0FEEF5E7003026B7C90019F71
:106A5A00E0FF126E9C9001A0EEF0A3EFF0C3EE945B
:106A6A00804073E02400F09001A0E03480F09001AF
:106A7A009FE0FF25E024D7F582E43400F583E0FCAB
:106A8A00A3E0FDEF25E024E7F582E43400F583E096
:106A9A00FEA3E0C39DFFEE9CFE9001A0E0FCA3E0F4
:106AAA00FDC39FEC9E90019FE0FF501725E024D77D
:106ABA00F582E43400F583E0FAA3E02DFDEA3CFC1C
:106ACA00026B9125E024E7F582E43400F583E0FCCB
:106ADA00A3E0FD026B919001A0E0FEA3E0FFC3E4F6
:106AEA009FFF74809EFE9001A0F0A3EFF090019F9B
:106AFA00E0FD25E024D7F582E43400F583E0FAA32B
:106B0A00E0D39FEA9E4046ED25E024D7F582E4349F
:106B1A0000F583E0FEA3E0FF9001A0E0FAA3E0FB0A
:106B2A00C3EF9BFFEE9AFE8FF0C006ED2418FFE438
:106B3A0033FEEF25E0FFEE33FE90014EE0FBA3E0CB
:106B4A00FAA3E0F98F828E83D0E0026BD690019F80
:106B5A00E02418FFE433FEEF25E0FFEE33FE900158
:106B6A004EE0FBA3E0FAA3E0F98F828E83E4F5F00E
:106B7A00805A90019FE0FF25E024D7F582E4340093
:106B8A00F583E0FCA3E0FDEF2418FFE433FEEF25D4
:106B9A00E0FFEE33FE90014EE0FBA3E0FAA3E0F93A
:106BAA008F828E83EC8DF0802390019FE02418FF62
:106BBA00E433FEEF25E0FFEE33FE90014EE0FBA347
:106BCA00E0FAA3E0F98F828E83E4F5F0123A489056
:106BDA000176E030E06B90019FE02467F582E434AF
:106BEA0000F583E090019F30E034E0FF25E024D7F0
:106BFA00F582E43400F583E0FCA3E0FDEF2424FFF2
:106C0A00E433FEEF25E0FFEE33FE90014EE0FBA3F6
:106C1A00E0FAA3E0F98F828E83EC8DF08020E024E5
:106C2A0024FFE433FEEF25E0FFEE33FE90014EE051
:106C3A00FBA3E0FAA3E0F98F828E83E4F5F0123A1F
:016C4A004801
:016C4B002226
:10A1F100EF25E024D7F582E43400F583E4F0A3F001
:04A20100FD0269C52C
:104B4C00900195123AA500000000900199123AA527
:104B5C0000000000E490019DF090019FF0A3F0A3F1
:104B6C00F0A3F090019EF090019EE0FBC3940440F2
:104B7C0003024F63EB25E025E0247BF582E434004F
:104B8C00F583E0FCA3E0FDA3E0FEA3E0FF9001951C
:104B9C00123A99EB25E025E0246BF582E43400F51C
:104BAC0083E0FCA3E0FDA3E0FEA3E0FF90019912DB
:104BBC003A997F007EF87D0A7C47900195E0F8A336
:104BCC00E0F9A3E0FAA3E0FB12366C4003024DC7F8
:104BDC007F007E107DEA7C46900195E0F8A3E0F919
:104BEC00A3E0FAA3E0FB12366C60025003024DC73F
:104BFC00900199E0FCA3E0FDA3E0FEA3E0FFE4FB41
:104C0C00FAF978411233D5900199123A99E4FFFEE2
:104C1C00FD7C47900199E0F8A3E0F9A3E0FAA3E04A
:104C2C00FB12366C900199E05021F8A3E0F9A3E057
:104C3C00FAA3E0FBE4FFFEFD7C471233D19001990F
:104C4C00123A9990019D7401F08019FCA3E0FDA328
:104C5C00E0FEA3E0FFE4FBFAF978C71233D590012C
:104C6C0099123A99E4FFFE7D807C3D900199E0F821
:104C7C00A3E0F9A3E0FAA3E0FB1234C612371790B5
:104C8C00019EE025E024BFF582E43400F583EEF0CC
:104C9C00A3EFF07F007E607D097C47900195E0F8E2
:104CAC00A3E0F9A3E0FAA3E0FB12366C6002501EFD
:104CBC007F007E407DED7C46900195E0F8A3E0F905
:104CCC00A3E0FAA3E0FB12366C4003024E94900171
:104CDC0095E0FCA3E0FDA3E0FEA3E0FFE4FBFAF902
:104CEC0078411233D5900195123A99E4FFFEFD7C80
:104CFC0047900195E0F8A3E0F9A3E0FAA3E0FB12DA
:104D0C00366C900195E05021F8A3E0F9A3E0FAA3EA
:104D1C00E0FBE4FFFEFD7C471233D1900195123A83
:104D2C009990019D7401F08019FCA3E0FDA3E0FEB5
:104D3C00A3E0FFE4FBFAF978C71233D59001951282
:104D4C003A99E4FFFE7D207C3F900195E0F8A3E0CA
:104D5C00F9A3E0FAA3E0FB1234C612371790019FB7
:104D6C00EEF0A3EFF090019EE0FD25E024BFF5826C
:104D7C00E43400F583E0FAA3E0C39FFFEA9EFE90C3
:104D8C0001A1F0A3EFF0C39419EE6480948040036A
:104D9C00024E949001A1E0FEA3E0FF94E7EE648044
:104DAC00947F5003024E94ED25E02413F582E434F5
:104DBC0001F583EEF0A3EFF0024E94900195E0FC28
:104DCC00A3E0FDA3E0FEA3E0FFE4FBFAF9784112B7
:104DDC0033D5900195123A99E4FFFEFD7C47900182
:104DEC0095E0F8A3E0F9A3E0FAA3E0FB12366C908F
:104DFC000195E05021F8A3E0F9A3E0FAA3E0FBE46D
:104E0C00FFFEFD7C471233D1900195123A99900127
:104E1C009D7401F08019FCA3E0FDA3E0FEA3E0FF6C
:104E2C00E4FBFAF978C71233D5900195123A99E45C
:104E3C00FFFE7D207C3F900195E0F8A3E0F9A3E014
:104E4C00FAA3E0FB1234C612371790019EE0FD2541
:104E5C00E024BFF582E43400F583EEF0A3EFF0908C
:104E6C00017FE07023ED25E02413F582E43401F595
:104E7C0083E0FEA3E0FFED25E024BFF582E43400DF
:104E8C00F583EE8FF01239FA90019EE0FF25E024B5
:104E9C00BFF582E43400F583E0FCA3E04C700280A3
:104EAC001590019DE0601574672FF582E43400F5D0
:104EBC0083E020E11EE490019DF0801790019EE0BC
:104ECC002467F582E43400F583E020E10690019D2F
:104EDC007401F090019DE06011A3E02467F582E479
:104EEC003400F583E04480F0801190019EE024674B
:104EFC00F582E43400F583E0547FF090019EE0FBF2
:104F0C0025E024BFF582E43400F583E0FEA3E0D372
:104F1C009420EE944E402990019EE0FF2467F58288
:104F2C00E43400F583E04440F0EF25E025E0248BE9
:104F3C00F582E43400F583123AA547000000800E98
:104F4C0074672BF582E43400F583E054BFF09001D4
:104F5C009EE004F0024B73E490019EF090019EE001
:104F6C00FFC39404500B12644D90019EE004F0803A
:104F7C00EBE490019EF090019EE0FFC3940450215D
:104F8C007E001283AA90019EE025E02433F582E492
:104F9C003401F583EEF0A3EFF090019EE004F08075
:014FAC00D52F
:014FAD0022E1
:109DD800E4900195F0900195E0FFC394045043EF9F
:109DE80025E0243BF582E43401F583A3E030E12A41
:109DF800900195E02467F582E43400F583E030E0D3
:109E080019E4FD1269C57BFF7AA079A4129F6190BD
:109E18000195E0FF129E4912A278900195E004F0A6
:029E280080B305
:019E2A002215
:104FAE00E4900190F090019CF090019CE0FFC3947E
:104FBE00045034EF25E0FF12A07890019CE025E02C
:104FCE0024DFF582E43400F583E0FCA3E0FD6F708E
:104FDE0002EC6E600A90019CE025E0FF12A0FD90AD
:104FEE00019CE004F080C2E490019CF090019CE0F2
:104FFE00FFC39404503212A07290019CE025E0246D
:10500E00E7F582E43400F583E0FCA3E0FD6F700267
:10501E00EC6E600C90019CE025E02408FF12A0FDD0
:10502E0090019CE004F080C4E490019CF090019CFF
:10503E00E0FFC39404502BEF2410FF1200039001E5
:10504E009CE024EFF582E43400F583E0FD6F600A06
:10505E0090019CE02410FF12A28890019CE004F0C5
:10506E0080CBE490019CF090019CE0FFC39404502F
:10507E0038EF25E02414FF12A07890019CE025E083
:10508E0024F3F582E43400F583E0FCA3E0FD6F70B9
:10509E0002EC6E600C90019CE025E02414FF12A03F
:1050AE00FD90019CE004F080BEE490019CF0900124
:1050BE009CE0FFC394045038EF25E0241CFF12A09F
:1050CE007890019CE025E024FBF582E43400F58322
:1050DE00E0FCA3E0FD6F7002EC6E600C90019CE0B2
:1050EE0025E0241CFF12A0FD90019CE004F080BE80
:1050FE00E490019CF090019CE0FFC394045038EFC3
:10510E0025E02424FF12A07890019CE025E02403E2
:10511E00F582E43401F583E0FCA3E0FD6F7002EC50
:10512E006E600C90019CE025E02424FF12A0FD90FF
:10513E00019CE004F080BEE490019CF090019CE0A4
:10514E00FFC394045038EF25E0242CFF12A0789072
:10515E00019CE025E0240BF582E43401F583E0FCAC
:10516E00A3E0FD6F7002EC6E600C90019CE025E0F8
:10517E00242CFF12A0FD90019CE004F080BEE49070
:10518E00019CF090019CE0FFC394045038EF25E0A1
:10519E002434FF12A07890019CE025E0241BF582B8
:1051AE00E43401F583E0FCA3E0FD6F7002EC6E6069
:1051BE000C90019CE025E02434FF12A0FD90019C90
:1051CE00E004F080BE7F3C12A078900185E0FD7C6B
:1051DE00006F7001EE60057F3C12A0FD7F3E120055
:1051EE0003900173E0FD6F60057F3E12A2887F3F42
:1051FE00120003900174E0FD6F60057F3F12A288DC
:10520E007F40120003900176E0FD6F60057F401233
:10521E00A288E490019CF090019CE0FFC39404509E
:10522E002BEF2444FF12000390019CE02467F582CB
:10523E00E43400F583E0FD6F600A90019CE02444A5
:10524E00FF12A28890019CE004F080CBE490019CB8
:10525E00F090019CE0FFC394045038EF25E0244801
:10526E00FF12A07890019CE025E024D7F582E4346B
:10527E0000F583E0FCA3E0FD6F7002EC6E600C9015
:10528E00019CE025E02448FF12A0FD90019CE00463
:10529E00F080BEE490019CF090019CE0FFC394046A
:1052AE005038EF25E02450FF12A07890019CE025A5
:1052BE00E0242BF582E43401F583E0FCA3E0FD6FDE
:1052CE007002EC6E600C90019CE025E02450FF1201
:1052DE00A0FD90019CE004F080BEE490019CF09053
:1052EE00019CE0FFC394045038EF25E02458FF12D0
:1052FE00A07890019CE025E02423F582E43401F5AA
:10530E0083E0FCA3E0FD6F7002EC6E600C90019CDC
:10531E00E025E02458FF12A0FD90019CE004F080EF
:10532E00BEE490019CF090019CE0FFC394045033C6
:10533E00EF2460FF12000390019CE025E0243BF572
:10534E0082E43401F583E0FCA3E0FD6F7001EC60B4
:10535E000A90019CE02460FF12A28890019CE00458
:03536E00F080C309
:015371002219
:10617300E4900195F0900195E0FFC394045023EF60
:1061830025E0FF12A078900195E025E024DFF58259
:10619300E43400F583EEF0A3EFF0900195E004F012
:1061A30080D3E4900195F0900195E0FFC3940450EF
:1061B3001F12A072900195E025E024E7F582E434F4
:1061C30000F583EEF0A3EFF0900195E004F080D7A3
:1061D300E4900195F0900195E0FFC39404501EEF05
:1061E3002410FF120003900195E024EFF582E434BC
:1061F30000F583EFF0900195E004F080D8E490017E
:1062030095F0900195E0FFC394045025EF25E02419
:1062130014FF12A078900195E025E024F3F582E4C1
:106223003400F583EEF0A3EFF0900195E004F080E5
:10623300D1E4900195F0900195E0FFC394045025BB
:10624300EF25E0241CFF12A078900195E025E024BF
:10625300FBF582E43400F583EEF0A3EFF0900195B3
:10626300E004F080D1E4900195F0900195E0FFC344
:1062730094045025EF25E02424FF12A07890019583
:10628300E025E02403F582E43401F583EEF0A3EF87
:10629300F0900195E004F080D1E4900195F0900135
:1062A30095E0FFC394045025EF25E0242CFF12A0B2
:1062B30078900195E025E0240BF582E43401F58321
:1062C300EEF0A3EFF0900195E004F080D1E49001AB
:1062D30095F0900195E0FFC394045025EF25E02449
:1062E30034FF12A078900195E025E0241BF582E4A9
:1062F3003401F583EEF0A3EFF0900195E004F08014
:10630300D17F3C12A078900185EFF07F3E1200030D
:10631300900173EFF07F3F12A078900174EFF07F4C
:106323004012A078900176EFF0E4900195F090018F
:1063330095E0FFC39404503FEF2444FF1200039001
:106343000195E0FE2467F582E43400F583EFF074F1
:10635300672EF582E43400F583E0FF30E31190010A
:1063630095E02467F582E43400F583EF54F7F09069
:106373000195E004F080B7E4900195F0900195E079
:10638300FFC394045025EF25E02448FF12A0789022
:106393000195E025E024D7F582E43400F583EEF09F
:1063A300A3EFF0900195E004F080D1E4900195F023
:1063B300900195E0FFC394045025EF25E02450FF9E
:1063C30012A078900195E025E0242BF582E43401B6
:1063D300F583EEF0A3EFF0900195E004F080D1E4B3
:1063E300900195F0900195E0FFC394045025EF25AB
:1063F300E02458FF12A078900195E025E02423F5CE
:1064030082E43401F583EEF0A3EFF0900195E0040C
:10641300F080D1E4900195F0900195E0FFC39404DE
:106423005027EF2460FF120003EF5401FF90019502
:10643300E025E0243BF582E43401F583E4F0A3EFA7
:09644300F0900195E004F080CF17
:01644C00222D
:06A07200EF25E02408FFC9
:10A0780090019DEFF02401FFE433FE12A159EF7F18
:10A0880000FEC006C00790019DE0FF7E0012A159A6
:0CA09800EFFDD0E02DFFD0E03400FE22F0
:060003007E0012A159224B
:10A0FD0090019DEFF0A3ECF0A3EDF07E0012A175A1
:10A10D0090019DE02401FFE433FEA3E0FD02A17563
:05A288007E0002A1753B
:04A159008F828E83E0
:10A15D00E5D220E0FBA2AF9200C2AF43D202E0FFF6
:07A16D0053D2FDA20092AFE6
:01A1740022C8
:04A175008F828E83C4
:10A17900E5D220E0FBA2AF9200C2AF43D202EDF0DC
:07A1890053D2FDA20092AFCA
:01A1900022AC
:10A03E006368616E200020747269676765722063C1
:10A04E0068616E676520746F20706F730020747284
:10A05E006967676572206368616E676520746F203B
:04A06E006E656700B4
:0BA257009010087401F0901007F02236
:0BA26200E4901008F090100704F022B8
:109F140074002FF582E43410F5837401F0E4FFED4E
:109F240030E70512A257800312A262ED25E0FD0F6F
:109F3400EFB408EBE4FFEB30E70512A257800312FD
:109F4400A262EB25E0FB0FEFB408EB901002740162
:019F5400F01C
:019F550022E9
:10866A0090100CE0900195F0E4A3F0900196E0FFE1
:10867A00C39404507A748C2FF582E43401F583E0B4
:10868A00FF900195E0FEEF5E6045A3E0FF2467F5E9
:10869A0082E43400F583E020E04CEF25E0243BF54A
:1086AA0082E43401F583E0FEA3E0FF30E118900193
:1086BA0096E025E0243BF582E43401F583EF54FD8E
:1086CA00FFE4F0A3EFF0900196E0FF7D01801490A3
:1086DA000196E0FF2467F582E43400F583E030E098
:1086EA0005E4FD1269C5900196E004F002867590D2
:1086FA00100AE0900176F0901041E0900195F0E4C4
:10870A00A3F0900196E0FFC39404503F748C2FF5B8
:10871A0082E43401F583E0FF900195E0FEEF5E60AC
:10872A0011A3E02467F582E43400F583E04410F0F5
:10873A008011900196E02467F582E43400F583E025
:10874A0054EFF0900196E004F080B790017AE0547B
:10875A00FEF0E4900196F0900196E0FFC394045075
:10876A003974672FF582E43400F583E054546007C6
:10877A0090017AE04401F0900196E025E0243BF56F
:10878A0082E43401F583A3E030E10790017AE04402
:0A879A0001F0900196E004F080BDAC
:0187A40022B2
:10991700E4900184F0FDED2414FFE433FEEF25E02D
:10992700FFEE33FE90014EE0FBA3E0FAA3E0F98FD0
:10993700828E83123A10D39400E5F09410402AEDFA
:109947007006900184E004F0EDB40107900184E013
:109957002402F0EDB40207900184E02404F0EDB492
:109967000307900184E02408F00DEDB404A89001EA
:1099770084E0D394004009900176E04480F0801A97
:10998700900176E0547FF0D39408400E7401F09074
:109997000190F0E4900158F0A3F0900176E0901068
:0799A7000AF0900184E0FFCB
:0199AE002296
:10537200E4900195F0900195E0FD2418FFE433FEDE
:10538200EF25E0FFEE33FE90014EE0FBA3E0FAA32F
:10539200E0F98F828E83123A10FFED25E024ABF5FF
:1053A20082E43400F583E5F0F0A3EFF0900195E09C
:1053B20004F0E0B404BF900189E0C394085004E013
:1053C20004F022E4900195F0900195E0FFC394046B
:1053D20040030254A9EF75F002A4240CFFE435F057
:1053E200FEEF25E0FFEE33FE90014EE0FBA3E0FA74
:1053F200A3E0F98F828E83123A10FDACF0E41236EC
:10540200DEC004C005C006C007900195E025E02576
:10541200E0247BF582E43400F583E0FCA3E0FDA305
:10542200E0FEA3E0FFE4FBFA79E078401234C6D054
:1054320003D002D001D0001233D5C004C005C0068B
:10544200C007900195E025E0240BF582E43401F5D4
:1054520083E0FCA3E0FDEC1236DEA804A905AA064F
:10546200AB07D007D006D005D0041233D1900196F5
:10547200123A99E4FBFAF97841900196E0FCA3E034
:10548200FDA3E0FEA3E0FF1235CF900195E025E0F9
:1054920025E0247BF582E43400F583123A999001E9
:1054A20095E004F00253CAE4900195F0900195E072
:1054B200FFC39404400302558DEF75F002A4240D3E
:1054C200FFE435F0FEEF25E0FFEE33FE90014EE003
:1054D200FBA3E0FAA3E0F98F828E83123A10FDACAF
:1054E200F0E41236DEC004C005C006C00790019584
:1054F200E025E025E0246BF582E43400F583E0FC4E
:10550200A3E0FDA3E0FEA3E0FFE4FBFA79E078402C
:105512001234C6D003D002D001D0001233D5C00459
:10552200C005C006C007900195E025E02403F5827E
:10553200E43401F583E0FCA3E0FDEC1236DEA804BE
:10554200A905AA06AB07D007D006D005D0041233AE
:10555200D1900196123A99E4FBFAF97841900196BA
:10556200E0FCA3E0FDA3E0FEA3E0FF1235CF900133
:1055720095E025E025E0246BF582E43400F5831202
:105582003A99900195E004F00254AEE4900195F04E
:10559200900195E0FFC39404400302566DEF240886
:1055A200FFE433FEEF25E0FFEE33FE90014EE0FB19
:1055B200A3E0FAA3E0F98F828E83123A10FDACF0D9
:1055C200E41236DEC004C005C006C007900195E0B3
:1055D20025E025E0248BF582E43400F583E0FCA38A
:1055E200E0FDA3E0FEA3E0FFE4FBFA79707841124C
:1055F20034C6D003D002D001D0001233D5C004C0CB
:1056020005C006C007900195E025E0242BF582E451
:105612003401F583E0FCA3E0FDEC1236DEA804A918
:1056220005AA06AB07D007D006D005D0041233D1A5
:10563200900196123A99E4FBFA79807841900196AA
:10564200E0FCA3E0FDA3E0FEA3E0FF1235CF900152
:1056520095E025E025E0248BF582E43400F5831201
:105662003A99900195E004F0025592E4900195F088
:10567200900195E0FFC39404400302571CEF2414E9
:10568200FFE433FEEF25E0FFEE33FE90014EE0FB38
:10569200A3E0FAA3E0F98F828E83123A10F4FDE5BB
:1056A200F0F4FCE41236DEC004C005C006C0079068
:1056B2000195E025E025E0249BF582E43400F583A2
:1056C200E0FCA3E0FDA3E0FEA3E0FFE4FBFA79E047
:1056D20078401234C6D003D002D001D0001233D5A4
:1056E200900196123A99E4FBFAF97841900196E01A
:1056F200FCA3E0FDA3E0FEA3E0FF1235CF900195ED
:10570200E025E025E0249BF582E43400F583123A9B
:0A57120099900195E004F002567230
:01571C00226A
:107F3A00E4900196F0900195F0900195E0FFC394CA
:107F4A0004501C74672FF582E43400F583E030E0B6
:107F5A0006900196E004F0900195E004F080DA9032
:107F6A000196E0FF900182E06F6035124620900191
:107F7A0096E0900182F0E4900195F0900195E0FF7F
:107F8A00C39404500B122AE5900195E004F080EBAB
:107F9A00123B089001907401F0E4900158F0A3F0AC
:107FAA0090100BE0FF900183E0FE6F602590017650
:107FBA00E0FD20E41820E01590100BEEF090017619
:107FCA00E05480F04401F090100AF080059001839B
:107FDA00EFF0900180E0FF900176E06F601B12469F
:107FEA0020900176E0900180F0123B089001907495
:107FFA0001F0E4900158F0A3F0E4900195F09001AB
:10800A0095E0FD2424FFE433FEEF25E0FFEE33FE86
:10801A0090014EE0FBA3E0FAA3E0F98F828E83126F
:10802A003A10FFAEF0ED25E024C7F582E43400F5FE
:10803A0083E0FCA3E06F7002EC6E6069900195E04A
:10804A0025E024C7F582E43400F583EEF0A3EFF0CF
:10805A00900195E0FF122AE5900195E0FF25E024C2
:10806A00C7F582E43400F583E0FCA3E0FDEF25E0E8
:10807A0024CFF582E43400F583E0FEA3E06D7002BC
:10808A00EE6C6021900195E025E024CFF582E4347E
:10809A0000F583ECF0A3EDF09001907401F0E49008
:1080AA000158F0A3F0900195E004F0E0C394045065
:0480BA000302800835
:0180BE00229F
:1046200090017FE07003024734900175E0640260FE
:104630000302473490019CF090019CE0FFC3940476
:1046400040030246FE74672FF582E43400F583E0F0
:1046500090019C30E144E025E0241BF582E4340124
:10466000F583E0FCA3E0FDEF2424FFE433FEEF2517
:10467000E0FFEE33FE90014EE0FBA3E0FAA3E0F989
:104680008F828E83EC8DF0123A4890019CE0FF25DA
:10469000E0241BF582E434018043E0FF25E024237D
:1046A000F582E43401F583E0FCA3E0FDEF2424FF70
:1046B000E433FEEF25E0FFEE33FE90014EE0FBA376
:1046C000E0FAA3E0F98F828E83EC8DF0123A4890E5
:1046D000019CE0FF25E02423F582E43401F583E02A
:1046E000FCA3E0FDEF25E024C7F582E43400F58368
:1046F000ECF0A3EDF090019CE004F0024638E49069
:10470000019CF090019CE0FF25E024C7F582E43491
:1047100000F583E0FCA3E0FDEF25E024CFF582E483
:104720003400F583ECF0A3EDF090019CE004F0E0A0
:10473000B404D022900176E020E0030247CE90102E
:10474000507408F0900173E090100B60057401F054
:1047500080037402F090100BE0900183F0E490016C
:104760009CF090019CE0FFC394045062EF25E0248C
:10477000D7F582E43400F583E0FCA3E0FDEF2424C8
:10478000FFE433FEEF25E0FFEE33FE90014EE0FB49
:10479000A3E0FAA3E0F98F828E83EC8DF0123A4801
:1047A00090019CE0FF25E024D7F582E43400F583F6
:1047B000E0FCA3E0FDEF25E024C7F582E43400F53A
:1047C00083ECF0A3EDF090019CE004F08094900164
:1047D00076E030E2779010507408F0E490019CF09D
:1047E00090019CE0FFC394045062EF25E024DFF5C4
:1047F00082E43400F583E0FCA3E0FDEF2424FFE431
:1048000033FEEF25E0FFEE33FE90014EE0FBA3E028
:10481000FAA3E0F98F828E83EC8DF0123A48900172
:104820009CE0FF25E024DFF582E43400F583E0FC22
:10483000A3E0FDEF25E024C7F582E43400F583EC26
:10484000F0A3EDF090019CE004F08094900176E0FC
:1048500030E1779010507408F0E490019CF09001E2
:104860009CE0FFC394045062EF25E024E7F582E466
:104870003400F583E0FCA3E0FDEF2424FFE433FEE5
:10488000EF25E0FFEE33FE90014EE0FBA3E0FAA33C
:10489000E0F98F828E83EC8DF0123A4890019CE013
:1048A000FF25E024E7F582E43400F583E0FCA3E093
:1048B000FDEF25E024C7F582E43400F583ECF0A396
:1048C000EDF090019CE004F08094900176E020E30C
:1048D0000302496DE490019CF090019CE0FFC394B9
:1048E00004400302496D74672FF582E43400F583B8
:1048F000E090019C30E139E0FD2424FFE433FEEF39
:1049000025E0FFEE33FE90014EE0FBA3E0FAA3E0CA
:10491000F98F828E83E475F080123A48ED25E02409
:10492000C7F582E43400F583E4F0A37480F08034AA
:10493000E0FD2424FFE433FEEF25E0FFEE33FE909C
:10494000014EE0FBA3E0FAA3E0F98F828E83E4F549
:10495000F0123A48ED25E024C7F582E43400F583EF
:10496000E4F0A3F090019CE004F00248D9900176B5
:10497000E020E403024A20900174E090100B6005EF
:104980007401F080037402F090100BE0900183F04A
:10499000E490019CF090019CE0FFC394044003026A
:1049A0004A2074EF2FF582E43400F583E0FF900194
:1049B0009CB40412E025E024C7F582E43400F583BA
:1049C000E4F0A3F08019E0FDEF2401FFEFFEED25F8
:1049D000E024C7F582E43400F583EEF0A3E4F09020
:1049E000019CE0FF25E024C7F582E43400F583E074
:1049F000FCA3E0FDEF2424FFE433FEEF25E0FFEE0F
:104A000033FE90014EE0FBA3E0FAA3E0F98F828E23
:104A100083EC8DF0123A4890019CE004F002499535
:104A2000900176E030E571E490019CF090019CE00B
:104A3000FFC394045062EF25E024F3F582E43400D0
:104A4000F583E0FCA3E0FDEF2424FFE433FEEF2533
:104A5000E0FFEE33FE90014EE0FBA3E0FAA3E0F9A5
:104A60008F828E83EC8DF0123A4890019CE0FF25F6
:104A7000E024F3F582E43400F583E0FCA3E0FDEFED
:104A800025E024C7F582E43400F583ECF0A3EDF0D3
:104A900090019CE004F08094900176E030E67790FD
:104AA00010507401F0E490019CF090019CE0FFC371
:104AB00094045062EF25E024FBF582E43400F58392
:104AC000E0FCA3E0FDEF2424FFE433FEEF25E0FF4C
:104AD000EE33FE90014EE0FBA3E0FAA3E0F98F82F3
:104AE0008E83EC8DF0123A4890019CE0FF25E02483
:104AF000FBF582E43400F583E0FCA3E0FDEF25E064
:104B000024C7F582E43400F583ECF0A3EDF09001C6
:104B10009CE004F08094E490019CF090019CE0FF04
:104B200025E024C7F582E43400F583E0FCA3E0FD32
:104B3000EF25E024CFF582E43400F583ECF0A3ED1B
:0B4B4000F090019CE004F0E0B404D011
:014B4B002247
:052AE500900197EFF0E5
:102AEA00E4A3F0A3F090017FE07003022BC89001E9
:102AFA0075E064026003022BC8900197E0FD25E0AF
:102B0A0024C7F582E43400F583E0FEA3E0D394FF02
:102B1A00EE9401403C900197E0FF25E024C7F5823E
:102B2A00E43400F5837401F0A374FFF0EF2424FF6A
:102B3A00E433FEEF25E0FFEE33FE90014EE0FBA307
:102B4A00E0FAA3E0F98F828E83740175F0FF123ADE
:102B5A004874672DF582E43400F583E090019730DC
:102B6A00E11EE0FF25E024C7F582E43400F583E0A6
:102B7A00FCA3E0FDEF25E0241BF582E43401801C70
:102B8A00E0FF25E024C7F582E43400F583E0FCA3E6
:102B9A00E0FDEF25E02423F582E43401F583ECF02F
:102BAA00A3EDF0900197E0FF25E024C7F582E43415
:102BBA0000F583E0FCA3E0FDEF241C022DA79001A1
:102BCA0076E020E003022F85900197E0F92467F56B
:102BDA0082E43400F583E020E003022E7790019727
:102BEA00E0FF25E024E7F582E43400F583E0FCA366
:102BFA00E0FDEF25E024C7F582E43400F583E0FE2A
:102C0A00A3E0FFC39DEE9C4003022DC7900197E00D
:102C1A0025E024D7F582E43400F583EEF0A3EFF043
:102C2A0074EF29F582E43400F583E02462F582E446
:102C3A003400F583E0FF900184E0FEEF5E7003024A
:102C4A002D8F900197E0FF126E9C900198EEF0A3F1
:102C5A00EFF0C3EE94805003022CF2E02400F090CF
:102C6A000198E03480F0900197E025E024D7F582BE
:102C7A00E43400F583E0FEA3E0FBE4C39BFB74FAB3
:102C8A009EFAE49400F9E49400F8900198E0FEA317
:102C9A00E0FFE4FCFDD3123A83900197E04025FF60
:102CAA0025E024C7F582E43400F583E0FCA3E0FDC7
:102CBA00900198E0FAA3E0FBED2BFDEC3AFCEF243F
:102CCA0018022DA72418FFE433FEEF25E0FFEE33A8
:102CDA00FE90014EE0FBA3E0FAA3E0F98F828E8317
:102CEA0074FA75F000022F82900198E0FEA3E0FFCB
:102CFA00C3E49FFF74809EFE900198F0A3EFF090CA
:102D0A000197E0FD25E024C7F582E43400F583E06D
:102D1A00FAA3E0D39FEA9E4046ED25E024C7F58258
:102D2A00E43400F583E0FEA3E0FF900198E0FAA303
:102D3A00E0FBC3EF9BFFEE9AFE8FF0C006ED24186E
:102D4A00FFE433FEEF25E0FFEE33FE90014EE0FB99
:102D5A00A3E0FAA3E0F98F828E83D0E0022F82905B
:102D6A000197E02418FFE433FEEF25E0FFEE33FE7F
:102D7A0090014EE0FBA3E0FAA3E0F98F828E83E490
:102D8A00F5F0022F82900197E0FF25E024C7F58233
:102D9A00E43400F583E0FCA3E0FDEF2418FFE433FC
:102DAA00FEEF25E0FFEE33FE90014EE0FBA3E0FAD2
:102DBA00A3E0F98F828E83EC8DF0022F8290019727
:102DCA00E0FF25E024E7F582E43400F583E0FCA384
:102DDA00E0FDEF25E024C7F582E43400F583ECF04A
:102DEA00A3EDF0900197E0FF25E024C7F582E434D3
:102DFA0000F583E0FCA3E0FDEF25E024D7F582E4AB
:102E0A003400F583ECF0A3EDF0900197E0FF25E0A4
:102E1A0024C7F582E43400F583E0FCA3E0FDEF2447
:102E2A0018FFE433FEEF25E0FFEE33FE90014EE09B
:102E3A00FBA3E0FAA3E0F98F828E83EC8DF0123ABD
:102E4A0048900197E0FF25E024C7F582E43400F5B5
:102E5A0083E0FCA3E0FDEF2424FFE433FEEF25E04A
:102E6A00FFEE338F82F583EC8DF0022F829001976B
:102E7A00E0FF25E024ABF582E43400F583E0FCA30F
:102E8A00E04C6003022F4DEF25E024E7F582E4349D
:102E9A0000F583E0FCA3E0FDEF25E024C7F582E41A
:102EAA003400F583E0FEA3E0FFC39DEE9C900197FA
:102EBA00E0501125E024D7F582E43400F583EEF0E2
:102ECA00A3EFF022FF25E024E7F582E43400F5833E
:102EDA00E0FCA3E0FDEF25E024C7F582E43400F529
:102EEA0083ECF0A3EDF0900197E0FF25E024C7F50D
:102EFA0082E43400F583E0FCA3E0FDEF25E024D76B
:102F0A00F582E43400F583ECF0A3EDF0900197E04C
:102F1A00FF25E024C7F582E43400F583E0FCA3E052
:102F2A00FDEF2424FFE433FEEF25E0FFEE33FE90AD
:102F3A00014EE0FBA3E0FAA3E0F98F828E83EC8DC9
:102F4A00F08035900197E0FF25E024C7F582E4344C
:102F5A0000F583E0FCA3E0FDEF2424FFE433FEEF59
:102F6A0025E0FFEE33FE90014EE0FBA3E0FAA3E07A
:102F7A00F98F828E83EC8DF0023A48900176E03028
:102F8A00E27A900197E0FD25E024C7F582E4340057
:102F9A00F583E0FEA3E0D39420EE944E403C9001EA
:102FAA0097E0FF25E024C7F582E43400F583744EE8
:102FBA00F0A37420F0EF2424FFE433FEEF25E0FFB2
:102FCA00EE33FE90014EE0FBA3E0FAA3E0F98F8214
:102FDA008E83744E75F020123A48ED25E024C7F529
:102FEA0082E43400F583E0FEA3E0FFED25E024DF70
:102FFA00F582E43400F583EEF0A3EFF0900176E079
:10300A0020E1030230D2900197E025E024C7F5823F
:10301A00E43400F583E0FEA3E0FFE4FCFDFB7AFA6A
:10302A00F9F8C3123A83503B900197E0FF25E02458
:10303A00C7F582E43400F58374FAF0A3E4F0EF24D0
:10304A0024FFE433FEEF25E0FFEE33FE90014EE06D
:10305A00FBA3E0FAA3E0F98F828E8374FA75F0007D
:10306A00123A48900197E0FF25E024C7F582E4343C
:10307A0000F583E0FCA3E0FDEF25E024E7F582E418
:10308A003400F583ECF0A3EDF0900197E0FF25E022
:10309A0024E7F582E43400F583E0FCA3E0FDEF25A4
:1030AA00E024D7F582E43400F583E0FEA3E0D39D63
:1030BA00EE9C4014900197E025E024D7F582E43491
:1030CA0000F583ECF0A3EDF0900176E020E3030233
:1030DA0031E1900197E0FD25E024C7F582E4340050
:1030EA00F583E0FEA3E0D39480EE94004036ED240D
:1030FA0024FFE433FEEF25E0FFEE33FE90014EE0BD
:10310A00FBA3E0FAA3E0F98F828E83E475F08012C4
:10311A003A48ED25E024C7F582E43400F583E4F06B
:10312A00A37480F0900197E0FF25E024C7F582E4BC
:10313A003400F583E0FCA3E0C39440EC9400404BD8
:10314A0074672FF582E43400F583E0FF30E103026F
:10315A0031E1900197E0FE2467F582E43400F583BB
:10316A00EF4402F074672EF582E43400F583E044FC
:10317A0008F07BFF7AA0793E129F61900197E0FFE9
:10318A00129E497BFF7AA079448046900197E0FF1E
:10319A002467F582E43400F583E0FE30E139746790
:1031AA002FF582E43400F583EE54FDF074672FF5B1
:1031BA0082E43400F583E04408F07BFF7AA0793E8C
:1031CA00129F61900197E0FF129E497BFF7AA079D6
:1031DA005B129F6112A278900176E0FD20E403025F
:1031EA00327B900197E0FC25E024C7F582E43400A5
:1031FA00F583E0FEA3E0D394F6EE94044038EC2481
:10320A0024FFE433FEEF25E0FFEE33FE90014EE0AB
:10321A00FBA3E0FAA3E0F98F828E83740475F0F6BB
:10322A00123A48EC25E024C7F582E43400F58374A9
:10323A0004F0A374F6F0900197E0FF25E024C7F5A7
:10324A0082E43400F583E0FAC3EA9401500F74EF84
:10325A002FF582E43400F5837404F080149001970A
:10326A00E0FCEA14FF74EF2CF582E43400F583EFF6
:10327A00F0ED30E57A900197E0FD25E024C7F5826C
:10328A00E43400F583E0FEA3E0D39488EE9413407F
:10329A003C900197E0FF25E024C7F582E43400F56D
:1032AA00837413F0A37488F0EF2424FFE433FEEF51
:1032BA0025E0FFEE33FE90014EE0FBA3E0FAA3E027
:1032CA00F98F828E83741375F088123A48ED25E0DF
:1032DA0024C7F582E43400F583E0FEA3E0FFED2580
:1032EA00E024F3F582E43400F583EEF0A3EFF090E6
:1032FA000176E020E6030233CD900197E0FD25E058
:10330A0024C7F582E43400F583E0FEA3E0D3941FDA
:10331A00EE944E403C900197E0FF25E024C7F582E9
:10332A00E43400F583744EF0A3741FF0EF2424FFF5
:10333A00E433FEEF25E0FFEE33FE90014EE0FBA3FF
:10334A00E0FAA3E0F98F828E83744E75F01F123A69
:10335A0048ED25E024C7F582E43400F583E0FEA3B6
:10336A00E04E7039900197E0FF25E024C7F582E42A
:10337A003400F583E4F0A304F0EF2424FFE433FEE1
:10338A00EF25E0FFEE33FE90014EE0FBA3E0FAA347
:10339A00E0F98F828E83E475F001123A4890019722
:1033AA00E0FF25E024C7F582E43400F583E0FCA3BE
:1033BA00E0FDEF25E024FBF582E43400F583ECF030
:0333CA00A3EDF080
:0133CD0022DD
:10850E00E490019DF0A3F090019CF090019CE0FF9F
:10851E00C3940440030285E274672FF582E43400AD
:10852E00F583E030E37C30E00B90019CE0FF12A17C
:10853E00F10285D990019CE0FF25E024ABF582E4A1
:10854E003400F583E0FCA3E0C39402EC9400507B6E
:10855E0074672FF582E43400F583E020E11A900170
:10856E009DE0FF90019CE0248CF582E43401F583BC
:10857E00E0FEEF4E90019DF090019CE0FF2467F528
:10858E0082E43400F583E054F7F090019E7401F01C
:10859E00EF25E02413F582E43401F583E4F0A3F033
:1085AE00802990019CE0FF2467F582E43400F58376
:1085BE00E020E11790019DE0FE748C2FF582E434EB
:1085CE0001F583E0FFEE4F90019DF090019CE004D9
:1085DE00F0028519900181E0FF90019DE06F607BB4
:1085EE00A3E06401707590019DE090100EF0900173
:1085FE0081F0E490019CF090019CE0FFC394045044
:10860E005A74672FF582E43400F583E090019C30B4
:10861E00E10CE025E0241BF582E43401800BE0FF41
:10862E0025E02423F582E43401F583E0FCA3E0FD8C
:10863E00EF241CFFE433FEEF25E0FFEE33FE900146
:10864E004EE0FBA3E0FAA3E0F98F828E83EC8DF06F
:0B865E00123A4890019CE004F0809C60
:0186690022EE
:1070E800E4900196F0900195F0900195E0FFC3942B
:1070F80004502BEF2418FFE433FEEF25E0FFEE33B6
:10710800FE90014EE0FBA3E0FAA3E0F98F828E83A4
:10711800E4F5F0123A48900195E004F080CBE49051
:107128000195F0900195E0FFC39404505A74672FBD
:10713800F582E43400F583E090019530E10CE02518
:10714800E0241BF582E43401800BE0FF25E02423D2
:10715800F582E43401F583E0FCA3E0FDEF241CFF95
:10716800E433FEEF25E0FFEE33FE90014EE0FBA393
:10717800E0FAA3E0F98F828E83EC8DF0123A489002
:107188000195E004F0809C900176E090100AF0E40C
:10719800900195F0900195E0FFC394045042746704
:1071A8002FF582E43400F583E0FC20E11A90019683
:1071B800E0FE900195E0248CF582E43401F583E04B
:1071C800FDEE4D900196F0900195E02467F582E47C
:1071D8003400F583EC54F7F0900195E004F080B4A6
:1071E800900196E090100EF0900181F0E4900195E6
:1071F800F0900195E0FFC39404506F74672FF582F7
:10720800E43400F583E090019530E033E025E02494
:10721800D7F582E43400F583E0FCA3E0FDEF241801
:10722800FFE433FEEF25E0FFEE33FE90014EE0FB76
:10723800A3E0FAA3E0F98F828E83EC8DF08020E042
:107248002418FFE433FEEF25E0FFEE33FE90014EF5
:10725800E0FBA3E0FAA3E0F98F828E83E4F5F01255
:107268003A48900195E004F08087E4900196F09008
:107278000195F0900195E0FFC39404503074672F96
:10728800F582E43400F583E030E01A900196E0FFDF
:10729800900195E0248CF582E43401F583E0FEEF5B
:1072A8004E900196F0900195E004F080C69001960A
:1072B800E090100CF090100EE0540F900196F0E062
:1072C800FF131313541F245FF582E43400F583E0A1
:1072D800900186F0900177E07007EF5403900185E4
:1072E800F0900185E02441F582E43400F583E090D4
:0672F8001040F0024620E8
:107A4F00E4900195F0A3F0A3F0A3F0A3F0900195BB
:107A5F00F0900195E0FFC394044003027C03746728
:107A6F002FF582E43400F583E020E003027BFA90E7
:107A7F000195E024EFF582E43400F583E02462F50C
:107A8F0082E43400F583E0FE900184E0FDEE5D704A
:107A9F0003027BC2126E9C900196EEF0A3EFF0C32F
:107AAF00EE94804073E02400F0900196E03480F073
:107ABF00900195E0FF25E024D7F582E43400F583AB
:107ACF00E0FCA3E0FDEF25E024E7F582E43400F5C8
:107ADF0083E0FEA3E0C39DFFEE9CFE900196E0FCC9
:107AEF00A3E0FDC39FEC9E900195E0FF501725E0AA
:107AFF0024D7F582E43400F583E0FAA3E02DFDEA04
:107B0F003CFC027BD725E024E7F582E43400F583C3
:107B1F00E0FCA3E0FD027BD7900196E0FEA3E0FF1F
:107B2F00C3E49FFF74809EFE900196F0A3EFF09048
:107B3F000195E0FD25E024D7F582E43400F583E0DC
:107B4F00FAA3E0D39FEA9E4045ED25E024D7F582C6
:107B5F00E43400F583E0FEA3E0FF900196E0FAA382
:107B6F00E0FBC3EF9BFFEE9AFE8FF0C006ED2418EB
:107B7F00FFE433FEEF25E0FFEE33FE90014EE0FB16
:107B8F00A3E0FAA3E0F98F828E83D0E0805A9001B0
:107B9F0095E02418FFE433FEEF25E0FFEE33FE906F
:107BAF00014EE0FBA3E0FAA3E0F98F828E83E4F5A8
:107BBF00F08035900195E0FF25E024D7F582E4347D
:107BCF0000F583E0FCA3E0FDEF2418FFE433FEEFA4
:107BDF0025E0FFEE33FE90014EE0FBA3E0FAA3E0B9
:107BEF00F98F828E83EC8DF0123A48900195E00464
:047BFF00F0027A60B6
:017C0300225E
:06A28200696E69743100F1
:109DBD005701CA7E306D79335B5F707F7B771F4EA5
:0A9DCD003D4F47000137300576676F
:0BA26D00900172E054FDF054FEF0225E
:10A1C300900168E0547FF090016DE054DFF054FE9D
:08A1D300F054FDF0547FF0226E
:103B080012A26D12A1C3900176E030E003023CBF1F
:103B180030E23390016DE04480F0E4900197F0A327
:103B2800F0900197E0FEA3E0FFC39404EE64809454
:103B3800805013129155900198E004F070E39001C1
:103B480097E004F080DB900176E030E13390016D7E
:103B5800E04420F0E4900197F0A3F0900197E0FE94
:103B6800A3E0FFC39404EE64809480501312788617
:103B7800900198E004F070E3900197E004F080DB96
:103B8800900176E030E33690016DE04420F0448007
:103B9800F0E4900197F0A3F0900197E0FEA3E0FF16
:103BA800C39404EE64809480501312987E90019818
:103BB800E004F070E3900197E004F080DB90017678
:103BC800E030E47990100BE030E008900174740163
:103BD800F08005E4900174F090016DE04401F090EC
:103BE8000174E0602CE4900197F0A3F0900197E055
:103BF800FEA3E0FFC39404EE64809480503F128DCE
:103C080006900198E004F070E3900197E004F080DA
:103C1800DBE4900197F0A3F0900197E0FEA3E0FFAA
:103C2800C39404EE6480948050131299AF90019865
:103C3800E004F070E3900197E004F080DB900176F7
:103C4800E030E633900168E04480F0E4900197F0BA
:103C5800A3F0900197E0FEA3E0FFC39404EE648014
:103C680094805013127C04900198E004F070E39063
:103C78000197E004F080DB900176E020E503023E46
:103C88000D90016DE04402F0E4900197F0A3F090EC
:103C98000197E0FEA3E0FFC39404EE6480948040A3
:103CA80003023E0D129477900198E004F070E090C2
:103CB8000197E004F080D890100BE030E01A9001F2
:103CC80073E0700C90019004F0E4900158F0A3F0B8
:103CD8009001737401F08018900173E0600D9001F9
:103CE800907401F0E4900158F0A3F0E4900173F0AF
:103CF800900173E0607BE4900197F0A3F090019746
:103D0800E0FEA3E0FFC39404EE64809480400302C5
:103D18003E0D74672FF58274003EF583E020E0388D
:103D2800900198E025E0FF900197E033FE74AB2FF7
:103D3800F58274003EF583E0FCA3E04C701A743BF6
:103D48002FF58274013EF583A3E020E10B900197E3
:103D5800A3E0FF1276BD8009900197A3E0FF1282CD
:103D680043900198E004F07094900197E004F0808B
:103D78008C900175E06062B4012CE4900197F0A387
:103D8800F0900197E0FEA3E0FFC39404EE648094F2
:103D98008050131272FE900198E004F070E39001D5
:103DA80097E004F080DB900175E0640270579001A1
:103DB80097F0A3F0900197E0FEA3E0FFC39404EE10
:103DC80064809480503F129739900198E004F07015
:103DD800E3900197E004F080DBE4900197F0A3F012
:103DE800900197E0FEA3E0FFC39404EE6480948002
:103DF8005013126C4C900198E004F070E390019716
:103E0800E004F080DBE4900197F0A3F0900197E0E4
:103E1800FEA3E0FFC39404EE648094804003023F55
:103E2800A174672FF58274003EF583E020E01F201F
:103E3800E41C900198E025E0FF900197E033FE74C0
:103E48003B2FF58274013EF583A3E030E16B9001CE
:103E580097E0FEA3E0FF90016375F005123AD6EEF5
:103E680075F005A42583F583E04404F090017AE019
:103E7800FD20E003023F1674672FF58274003EF5BB
:103E880083E05454701C900198E025E0FF9001975E
:103E9800E033FE743B2FF58274013EF583A3E030D6
:103EA800E16CED90019730E74BE0FEA3E0900163F1
:103EB80075F005123AD6EE802A900197E0FCA3E04F
:103EC800FD25E0FFEC33FE74AB2FF58274003EF560
:103ED80083E0FEA3E04E701990016375F005ED12C2
:103EE8003AD6EC75F005A42583F583E054FBF08001
:103EF8001D900197E0FEA3E090016375F005123A6A
:103F0800D6EE75F005A42583F583E04404F090010E
:103F180097E0FEA3E0FF2467F58274003EF583E096
:103F280030E13090016375F005EF123AD6EE75F086
:103F380005A42583F583E04410F090016375F0052E
:103F4800EF123AD6EE75F005A42583F583E054F711
:103F5800F08035900197E0FEA3E0FF90016375F0D3
:103F680005123AD6EE75F005A42583F583E04408DA
:103F7800F090016375F005EF123AD6EE75F005A4DE
:103F88002583F583E054EFF0900198E004F0700683
:103F9800900197E004F0023E14900176E0FD30E0D5
:103FA8000B900173E0900172600F8016ED30E417FA
:103FB800900174E09001726009E04401F054FDF052
:103FC800800FE044028006900172E054FDF054FE38
:103FD800F0900177E090017230E006E04420F08034
:103FE80004E054DFF090017BE09001726006E04449
:103FF80080F08004E0547FF0E4900197F0A3F0E4AF
:10400800900199F0A3F0900199E0FEA3E0FFC3941A
:1040180004EE64809480504B900197E0FCA3E090FC
:10402800015F75F005123AD6EC75F005A42583F505
:1040380083E5822FF582E5833EF583E0FF12A191A7
:10404800AB07900197A3E02403FFA3A3E02460FD3E
:10405800129F1490019AE004F070AB900199E0046B
:10406800F080A3900199E0FEA3E0FF900197E0FCA7
:10407800A3E0FD90015F75F005123AD6EC75F005E6
:10408800A42583F583E5822FF582E5833EF583E059
:10409800FBED2403FF7D64129F14900198E004F067
:1040A8007006900197E004F0C3900198E0940490A2
:0C40B8000197E0648094805003024007F0
:0140C40022D9
:10A11D0090017BE09001726006E04480F08004E0E5
:0FA12D00547FF0900172E0FB7D647F06029F1467
:108DE900D390018BE094C890018AE09400402690CA
:108DF90001957403F0900195E0FFD39406500FE4B8
:108E0900FB7D07129F14900195E004F080E7900123
:108E19007E7401F022E4900195F0E4FF900195E061
:108E290075F005A4245FF582E43401F583E5822F0A
:108E3900F582E43583F583EFF00FEFB404DE90019A
:108E490095E075F005A42463F582E43401F583E423
:108E5900F0900195E004F0E0B404BF90019574032B
:108E6900F0900195E0FFD394065042E4FB7D011296
:108E79009F14900195E0FF900186E0FB7D02129F0F
:108E890014900195E0FF7B057D03129F14900195D5
:108E9900E0FF7B017D04129F14900195E0FF7B01A7
:108EA9007D07129F14900195E004F080B4E49001CD
:108EB9008AF0A3F07BFF7AA27982129F6112A278CD
:018EC9002286
:0582430090019BEFF02B
:1082480025E024B3F582E43400F583E0FEA3E0FFE3
:10825800128B08AD07AC06EF540FFF90019BE0FBB3
:1082680075F005A4245FF582E43401F583EFF0EDA1
:1082780054F0FFE4C4F854F0C8EFC4540F48FFEBBF
:1082880075F005A42460F582E43401F583EFF0EC81
:10829800540FFF90019BE0FB75F005A42461F58263
:1082A800E43401F583EFF0ECC4540FFFEB75F005EF
:1082B800A42462F582E43401F583EFF090019BE099
:1082C800FF24BBF582E43400F583E0B40A0EEF75B1
:1082D800F005A42460F582E43401800F90019BE04E
:1082E80075F005A42461F582E43401F583E0448047
:1082F800F090019BE0FF75F005A42462F582E43458
:1083080001F583E07011EF75F005A42462F582E4AD
:108318003401F5837410F090019BE0FF75F005A41B
:108328002461F582E43401F583E07028EF75F005E7
:10833800A42462F582E43401F583E0D3940F401459
:1083480090019BE075F005A42461F582E43401F501
:10835800837410F090019BE0FF75F005A42460F58C
:1083680082E43401F583E07038EF75F005A42461E8
:10837800F582E43401F583E0B4102690019BE075A2
:10838800F005A42462F582E43401F583E0B4111108
:10839800EF75F005A42460F582E43401F5837410C8
:0183A800F0E4
:0183A90022B1
:0576BD0090019BEFF0BD
:1076C20025E024D7F582E43400F583E0FCA3E0FD55
:1076D200C39440EC941F501FE41236DEE4FBFA79A7
:1076E200A0783F1234C612371790019CEEF0A3EF38
:1076F200F0A37464F0803090019BE025E024D7F57C
:1077020082E43400F583E0FCA3E0FDE41236DEE41B
:10771200FBFAF9783E1234C612371790019CEEF04C
:10772200A3EFF0A3740AF090019CE0FEA3E0FF1225
:107732008B0890019CEEF0A3EFF090019CA3E0FF78
:10774200540FFD90019BE0FC75F005A4245FF582C7
:10775200E43401F583EDF0EF54F0FFE4C4F854F0A3
:10776200C8EFC4540F48FFEC75F005A42460F582FD
:10777200E43401F583EFF090019CE0FCEC540FFF40
:1077820090019BE0FB75F005A42461F582E43401CD
:10779200F583EFF0ECC4540FFFEB75F005A42462FF
:1077A200F582E43401F583EFF090019EE090019BB5
:1077B200B40A0EE075F005A42460F582E434018079
:1077C2000CE075F005A42461F582E43401F583E050
:1077D2004480F090019BE0FF75F005A42462F582DD
:1077E200E43401F583E07011EF75F005A42462F52D
:1077F20082E43401F5837410F090019BE0FF75F090
:1078020005A42461F582E43401F583E07028EF7564
:10781200F005A42462F582E43401F583E0D3940FE9
:10782200401490019BE075F005A42461F582E434D4
:1078320001F5837410F090019BE0FF75F005A4241C
:1078420060F582E43401F583E07038EF75F005A449
:107852002461F582E43401F583E0B4102690019BA3
:10786200E075F005A42462F582E43401F583E0B406
:107872001111EF75F005A42460F582E43401F5835B
:037882007410F08F
:0178850022E0
:056C4C0090019BEFF038
:106C5100A3123AA500000000E49001A0F0A3F0A364
:106C6100F0A3F0A3F090019BE0FF2467F582E434E8
:106C710000F583E030E7559001A07401F0EF25E0C5
:106C810024BFF582E43400F583E0FEA3E0FFC39462
:106C910010EE9427500BC3EF94E8EE940350598003
:106CA1004790019BE025E024BFF582E43400F583A1
:106CB100E0FEA3E0FF7C007D6412396F9001A3EE3A
:106CC100F0A3EFF09001A17401F0804190019BE0ED
:106CD10025E024BFF582E43400F583E0FEA3E0FF64
:106CE100C39410EE942750109001A3EEF0A3EFF09F
:106CF1009001A17403F080157C007D0A12396F9018
:106D010001A3EEF0A3EFF09001A17402F09001A3B2
:106D1100E0FEA3E0FF128B089001A3EEF0A3EFF0D9
:106D21009001A0E0706F9001A3A3E0FF540FFD90CC
:106D3100019BE0FC75F005A4245FF582E43401F5C4
:106D410083EDF0EF54F0FFE4C4F854F0C8EFC454FD
:106D51000F48FFEC75F005A42460F582E43401F5D9
:106D610083EFF09001A3E0FCEC540FFF90019BE056
:106D7100FB75F005A42461F582E43401F583EFF09D
:106D8100EC54F0C4540FFFEB75F005A42462F582B6
:106D9100E43401806690019BE0FF75F005A4246254
:106DA100F582E43401F5837411F09001A3A3E0FDB1
:106DB100540FFEEF75F005A4245FF582E43401F56C
:106DC10083EEF0ED54F0FFE4C4F854F0C8EFC4547E
:106DD1000F48FF90019BE0FD75F005A42460F5824A
:106DE100E43401F583EFF09001A3E0540FA3FFED2C
:106DF10075F005A42461F582E43401F583EFF09088
:106E010001A1E0FF90019BE075F005A4245FF582EC
:106E1100E43401F583E5822FF582E43583F583E0DF
:106E21004480F0900040E06401706F90019BE0FFAE
:106E3100129E497F3A12A2407F2012A24090019BEC
:106E4100E025E025E0246BF582E43400F583E0FCE5
:106E5100A3E0FDA3E0FEA3E0FF123717129B527FD0
:106E61002D12A24090019BE025E024BFF582E4347D
:106E710000F583E0FEA3E0FF129B527F2D12A2409A
:106E81009001A3E0FEA3E0FF129B5212A2789001B1
:0A6E91009BE0B40305E4900040F01C
:016E9B0022D4
:0572FE0090019BEFF080
:10730300E4A3F0A3F0A3F0A3F090019BE025E02514
:10731300E0248BF582E43400F583E0FCA3E0FDA3D5
:10732300E0FEA3E0FF123717C3EE94805010C3E4CE
:107333009FFF74809EFE90019C7401F08007E42FF0
:10734300FF74803EFEAD07AC06E41236DEE4FBFAC2
:1073530079A0783F1234C612371790019CE0603849
:10736300C3EF9410EE94275019C3EF94E8EE9403FF
:10737300503F90019FE004F0702F90019EE004F0D5
:1073830080277C007D6412396F90019EEEF0A3EF9D
:10739300F0E490019DF0802EC3EF9410EE942750FB
:1073A3001090019EEEF0A3EFF090019D7402F08027
:1073B300157C007D0A12396F90019EEEF0A3EFF069
:1073C30090019D7401F090019EE0FEA3E0FF128BFB
:1073D3000890019EEEF0A3EFF090019CE0706F9097
:1073E300019EA3E0FF540FFD90019BE0FC75F005A7
:1073F300A4245FF582E43401F583EDF0EF54F0FF4C
:10740300E4C4F854F0C8EFC4540F48FFEC75F0051A
:10741300A42460F582E43401F583EFF090019EE04B
:10742300FCEC540FFF90019BE0FB75F005A4246175
:10743300F582E43401F583EFF0EC54F0C4540FFF0C
:10744300EB75F005A42462F582E4340180669001B3
:107453009BE0FF75F005A42462F582E43401F58313
:107463007411F090019EA3E0FD540FFEEF75F0053B
:10747300A4245FF582E43401F583EEF0ED54F0FFCC
:10748300E4C4F854F0C8EFC4540F48FF90019BE0E4
:10749300FD75F005A42460F582E43401F583EFF073
:1074A30090019EE0540FA3FFED75F005A42461F550
:1074B30082E43401F583EFF090019DE0FF601F90BB
:1074C300019BE075F005A4245FF582E43401F583A4
:0E74D300E5822FF582E43583F583E04480F0F6
:0174E1002288
:0597390090019BEFF020
:10973E00E4FDFCE0FB2467F582E43400F583E030C1
:10974E00E10CEB25E0241BF582E43401800D900141
:10975E009BE025E02423F582E43401F583E0FEA3AB
:10976E00E0FF128B08AC06AD07EF540FFF90019B84
:10977E00E0FB75F005A4245FF582E43401F583EF78
:10978E00F0ED54F0FFE4C4F854F0C8EFC4540F48A1
:10979E00FFEB75F005A42460F582E43401F583EF48
:1097AE00F0EC540FFF90019BE0FB75F005A42461D3
:1097BE00F582E43401F583EFF0EC54F0C4540FFF5E
:1097CE00EB75F005A42462F582E43401F583EFF025
:0197DE002268
:0591550090019BEFF00A
:10915A00A37403F090019BE025E024DFF582E43458
:10916A0000F583E0FEA3E0FBAA06C39410EA942765
:10917A0040137C007D0AAF0312396FAA06AB079031
:10918A00019C7402F0AF03AE02128B08AA06AB0769
:10919A00EF540FFF90019BE0FD75F005A4245FF5E5
:1091AA0082E43401F583EFF0EB54F0FFE4C4F854A1
:1091BA00F0C8EFC4540F48FFED75F005A42460F51C
:1091CA0082E43401F583EFF0EA540FFF90019BE04B
:1091DA00FD75F005A42461F582E43401F583EFF00E
:1091EA00EA54F0C4540FFFED75F005A42462F58229
:1091FA00E43401F583EFF090019CE0FF90019BE0DD
:10920A0075F005A4245FF582E43401F583E5822F25
:0B921A00F582E43583F583E04480F02A
:019225002226
:0578860090019BEFF0F2
:10788B0025E024E7F582E43400F583E0FCA3E0FD7A
:10789B00C39440EC941F501FE41236DEE4FBFA79DC
:1078AB00A0783F1234C612371790019CEEF0A3EF6D
:1078BB00F0A37464F0803090019BE025E024E7F5A1
:1078CB0082E43400F583E0FCA3E0FDE41236DEE451
:1078DB00FBFAF9783E1234C612371790019CEEF082
:1078EB00A3EFF0A3740AF090019CE0FEA3E0FF125B
:1078FB008B0890019CEEF0A3EFF090019CA3E0FFAE
:10790B00540FFD90019BE0FC75F005A4245FF582FC
:10791B00E43401F583EDF0EF54F0FFE4C4F854F0D8
:10792B00C8EFC4540F48FFEC75F005A42460F58232
:10793B00E43401F583EFF090019CE0FCEC540FFF75
:10794B0090019BE0FB75F005A42461F582E4340102
:10795B00F583EFF0ECC4540FFFEB75F005A4246234
:10796B00F582E43401F583EFF090019EE090019BEA
:10797B00B40A0EE075F005A42460F582E4340180AE
:10798B000CE075F005A42461F582E43401F583E085
:10799B004480F090019BE0FF75F005A42462F58212
:1079AB00E43401F583E07011EF75F005A42462F562
:1079BB0082E43401F5837410F090019BE0FF75F0C5
:1079CB0005A42461F582E43401F583E07028EF759A
:1079DB00F005A42462F582E43401F583E0D3940F1F
:1079EB00401490019BE075F005A42461F582E4340A
:1079FB0001F5837410F090019BE0FF75F005A42452
:107A0B0060F582E43401F583E07038EF75F005A47E
:107A1B002461F582E43401F583E0B4102690019BD8
:107A2B00E075F005A42462F582E43401F583E0B43B
:107A3B001111EF75F005A42460F582E43401F58390
:037A4B007410F0C4
:017A4E002215
:1099AF0074EF2FF582E43400F583E0FE6404704415
:1099BF00EF75F005A4245FF582E43401F583740F8D
:1099CF00F0EF75F005A42460F582E43401F583749B
:1099DF000FF0EF75F005A42461F582E43401F583EF
:1099EF00E4F0EF75F005A42462F582E43401F58309
:1099FF007410F022EF75F005A4245FF582E43401B2
:109A0F00F583EEF0EF75F005A42460F582E43401E0
:109A1F00F5837410F0EF75F005A42461F582E4343A
:109A2F0001F5837415F0EF75F005A42462F582E457
:079A3F003401F583E4F0227D
:0594770090019BEFF0E5
:10947C0025E024F3F582E43400F583E0FEA3E0FB61
:10948C00AA067C007D0AFF12396F128B08AA06AB64
:10949C000790019BE0FF75F005A4245FF582E4348E
:1094AC0001F583740CF0EF75F005A42462F582E4E9
:1094BC003401F5837410F0C3EA94014017EA540F99
:1094CC00FF90019BE075F005A42462F582E4340161
:1094DC00F583EFF0EB540FFF90019BE0FD75F00569
:1094EC00A42460F582E43401F583EFF0EB54F0FF33
:1094FC00E4C4F854F0C8EFC4540F48FFED75F00500
:10950C00A42461F582E43401F583EFF090019BE033
:10951C0075F005A42461F582E43401F583E0448000
:01952C00F04E
:01952D00221B
:057C040090019BEFF070
:107C090025E024FBF582E43400F583E0FEA3E0FDE2
:107C1900AC06C39410EC94275003027CB174F02D88
:107C2900FD74D83CFCAF05FE128B08AC06AD07EF1E
:107C3900540FFF90019BE0FB75F005A4245FF582CA
:107C4900E43401F583EFF0ED54F0FFE4C4F854F0A7
:107C5900C8EFC4540F48FFEB75F005A42460F58202
:107C6900E43401F583EFF0EC540FFF90019BE0FB46
:107C790075F005A42461F582E43401F583EFF0EC95
:107C890054F0C4540FFFEB75F005A42462F582E4A7
:107C99003401F583EFF090019BE075F005A42462AF
:107CA900F582E43401027DA6C374109DFD74279CFE
:107CB900FC90019BE075F005A42462F582E434018F
:107CC900F5837411F0C3ED94E8EC9403AF05AE04A9
:107CD9004068128B08AC06AD07ED54F0FFE4C4F818
:107CE90054F0C8EFC4540F48FF90019BE0FB75F0B6
:107CF90005A4245FF582E43401F583EFF0EC540F19
:107D0900FFEB75F005A42460F582E43401F583EFF7
:107D1900F0EC54F0C4540FFF90019BE0FE75F005A0
:107D2900A42461F582E43401F583EFF0EE75F005E2
:107D3900A42461F582E434018063128B08AC06AD9A
:107D490007EF540FFF90019BE0FB75F005A4245F3A
:107D5900F582E43401F583EFF0ED54F0FFE4C4F863
:107D690054F0C8EFC4540F48FFEB75F005A4246024
:107D7900F582E43401F583EFF0EC540FFF90019B99
:107D8900E0FE75F005A42461F582E43401F583EF82
:107D9900F0EE75F005A42462F582E43401F583E080
:037DA9004480F023
:017DAC0022B4
:058D060090019BEFF05D
:108D0B00E0FF25E02433F582E43401F583E0FCA396
:108D1B00E0FBAA04EF75F005A4245FF582E43401AF
:108D2B00F583740CF0C3EB940FEA942750637C002B
:108D3B007D0AAF03AE0212396F128B08AA06AB077E
:108D4B00EF540FFF90019BE0FD75F005A42460F537
:108D5B0082E43401F583EFF0EB54F0FFE4C4F854F4
:108D6B00F0C8EFC4540F48FFED75F005A42461F56E
:108D7B0082E43401F583EFF0EA540FFF90019BE09E
:108D8B0075F005A42462F582E43401F583EFF080DD
:108D9B003790019BE0FF75F005A42460F582E43465
:108DAB0001F5837411F0EF75F005A42461F582E4ED
:108DBB003401F5837411F0EF75F005A42462F5828C
:108DCB00E43401F5837411F090019BE075F005A478
:0D8DDB002461F582E43401F583E04480F06A
:018DE8002268
:10987E00EF75F005A4245FF582E43401F5837410CE
:10988E00F074672FF582E43400F583E030E134EFB5
:10989E0075F005A42460F582E43401F5837405F0B7
:1098AE00EF75F005A42461F582E43401F583E4F04C
:1098BE00EF75F005A42462F582E43401F583741685
:1098CE00F08033EF75F005A42460F582E43401F5E1
:1098DE00837406F0EF75F005A42461F582E434017B
:1098EE00F583740EF0EF75F005A42462F582E4346E
:1098FE0001F5837415F0EF75F005A42460F582E48C
:09990E003401F583E04480F022ED
:10A19100E4FEEF30E7057E80547FFF74CA2FF5821D
:08A1A100E43401F583E04EFFF8
:01A1A9002293
:108ECA00E4FBFAEA25E024BFF582E43400F583E006
:108EDA00FEA3E0FFEA25E024DFF582E43400F5830F
:108EEA00E0FCA3E0D39FEC9E504174672AF582E42C
:108EFA003400F583E0FF30E04074672AF582E434F9
:108F0A0000F583EF4404F0EA25E0243BF582E434DB
:108F1A0001F583A3E030E010EA25E0243CF582E481
:108F2A003401F583E04402F00B800E74672AF5825F
:108F3A00E43400F583E054FBF0EA25E024BFF5822F
:108F4A00E43400F583E0FEA3E0D39420EE944E745B
:108F5A006740232AF582E43400F583E04440F0EACE
:108F6A0025E025E0248BF582E43400F583123AA546
:108F7A0047000000800C2AF582E43400F583E054AF
:108F8A00BFF00AEA64046003028ECDEB90017860B8
:0A8F9A0005E04401F022E054FEF06F
:018FA40022AA
:10A21700F922C002C004C00612FFF0D006D004D055
:02A22700022211
:105AB8009001967402F0E4A3F090017B04F0E49066
:105AC800015AF0A3F012A11D9010017401F0E490A6
:105AD8000195F0A3E014F02400F582E43410F58376
:105AE800E0900195F090014EE0FBA3E0FAA3E0F905
:105AF800900195E0FFC31375F002A4F58285F08349
:105B0800123A10FD900198E5F0F0A3EDF0EF123A8B
:105B1800E25B8C025B8C045B8C065B8C085BCA0ABC
:105B28005BCA0C5BCA0E5BCA105C04125C04145C92
:105B380004165C04185C421E5C42205C42225C42F3
:105B4800245C7C265C7C285C7C2A5C7C2C5CBA828D
:105B58005CBA845CBA865CBA885CF88A5CF88C5C4F
:105B6800F88E5CF8905D41925D41945D41965D418F
:105B7800985D7B9A5D7B9C5D7B9E5D7BA05DC1A2F1
:105B880000005DF6900195E024FEFFE434FFC313A6
:105B9800EF13A3F0D3900199E09440900198E0941A
:105BA8001F4007741FF0A37440F0E4901001F090B8
:105BB8000196E0FF900198E0FCA3E0FD12969202A6
:105BC8005DEE900195E024F6FFE434FFC313EF1374
:105BD800A3F0D3900199E09400900198E0940040DC
:105BE80005E4F0A304F0E4901001F0900196E0FFC2
:105BF800900198A3E0FD12A28D025DEE900195E060
:105C080024EEFFE434FFC313EF13A3F0D3900199FC
:105C1800E09420900198E0944E4007744EF0A374ED
:105C280020F0E4901001F0900196E0FF900198E0D8
:105C3800FCA3E0FD129CAB025DEE900195E024E22E
:105C4800FFE434FFC313EF13A3F0D3900199E0945A
:105C580000900198E094004005E4F0A304F0E4907B
:105C68001001F0900196E0FF900198A3E0FD1297D3
:105C7800DF025DEE900195E024DAFFE434FFC31300
:105C8800EF13A3F0D3900199E09440900198E09429
:105C98001F4007741FF0A37440F0E4901001F090C7
:105CA8000196E0FF900198E0FCA3E0FD128FA502A9
:105CB8005DEE900195E0247EFFE434FFC313EF13FB
:105CC800A3F0D3900199E0941F900198E0944E407E
:105CD80007744EF0A3741FF0E4901001F090019641
:105CE800E0FF900198E0FCA3E0FD129E7E025DEECD
:105CF800900195E02476FFE434FFC313EF13A3F07B
:105D0800D3900199E094F4900198E09401400774CD
:105D180001F0A374F4F0E4901001F0900198E0FE13
:105D2800A3E0FF7C007D0A12395DAC06AD07900147
:105D380096E0FF129D1A025DEE900195E0246EFF39
:105D4800E434FFC313EF13A3F0D3900199E0940454
:105D5800900198E094004006E4F0A37404F0E49005
:105D68001001F0900196E0FF900198A3E0FD129CCD
:105D7800398073900195E02466FFE434FFC313EF84
:105D880013A3F0900198E0FEA3E0FFE4FCFDFB7A8A
:105D9800FAF9F8C3123A83500990019874FAF0A3FB
:105DA800E4F0E4901001F0900196E0FF900198E093
:105DB800FCA3E0FD12907E802D900198E0FEA3E008
:105DC800FFD39403EE9400400FEF64094E600990EE
:105DD8000198E4F0A37403F0E4901001F0900198A6
:105DE800A3E0FF12A13C9001907401F08005E490BB
:105DF8001001F09010017402F0900198E0FEA3E009
:105E0800FF90014EE0FBA3E0FAA3E0F9900195E0D2
:105E1800C31375F002A4F58285F083EE8FF0123A71
:0C5E280048E4901001F0900158F0A3F045
:015E3400224B
:105E35009010017402F0E4900195F0900195E0FF57
:105E450025E024B3F582E43400F583E0FCA3E0FB10
:105E5500AA0474BB2FF582E43400F583E0B4640F23
:105E65007C007D0AAF03AE021239C4AA06AB0790C7
:105E75000195E0F92467F582E43400F583E020E13B
:105E85000F7CFF7DFFAF03AE0212395DAA06AB079B
:105E9500AC02AD03E92421FFE433FEEF25E0FFEE7C
:105EA50033FE90014EE0FBA3E0FAA3E0F98F828E6A
:105EB50083EC8DF0123A48900195E0FF2467F58256
:105EC500E43400F583E030E017EF2425FFE433FEEA
:105ED500EF25E0FFEE338F82F583E475F00180173F
:105EE500900195E02425FFE433FEEF25E0FFEE3336
:105EF5008F82F583E4F5F0123A48900195E0FF258D
:105F0500E024DFF582E43400F583E0FCA3E0FDEF57
:105F15002429FFE433FEEF25E0FFEE33FE90014E2A
:105F2500E0FBA3E0FAA3E0F98F828E83EC8DF012FB
:105F35003A48900195E0FF2467F582E43400F58343
:105F4500E030E117EF242FFFE433FEEF25E0FFEE0D
:105F5500338F82F583E475F0018017900195E02475
:105F65002FFFE433FEEF25E0FFEE338F82F583E468
:105F7500F5F0123A48900195E02467F582E4340083
:105F8500F583E090019530E720E0FB25E024BFF59F
:105F950082E43400F583E0FEA3E0FF7CFF7DFF1281
:105FA500395DAC06AD07EB8013E0FF25E024BFF5B6
:105FB50082E43400F583E0FCA3E0FDEF2433FFE445
:105FC50033FEEF25E0FFEE33FE90014EE0FBA3E04C
:105FD500FAA3E0F98F828E83EC8DF0123A48900196
:105FE50095E025E024E7F582E43400F583E0FCA3A1
:105FF500E0FDE41236DEE4FBFAF9783E1234C6120F
:106005003717AD07AC06900195E02417FFE433FE82
:10601500EF25E0FFEE33FE90014EE0FBA3E0FAA38F
:10602500E0F98F828E83EC8DF0123A48900195E06D
:10603500FB25E02433F582E43401F583E0FEA3E09B
:10604500FF7C007D0A12396FAC06AD07EB241BFF00
:10605500E433FEEF25E0FFEE33FE90014EE0FBA3B7
:10606500E0FAA3E0F98F828E83EC8DF0123A489026
:106075000195E0FF25E024FBF582E43400F583E09B
:10608500FCA3E0FDEF2465FFE433FEEF25E0FFEE22
:10609500338F82F583EC8DF0123A48900195E0FB41
:1060A50025E024F3F582E43400F583E0FEA3E0FF68
:1060B5007C007D0A12396FAC06AD07EB2469FFE45D
:1060C50033FEEF25E0FFEE33FE90014EE0FBA3E04B
:1060D500FAA3E0F98F828E83EC8DF0123A48900195
:1060E50095E0FF24EFF582E43400F583E0FDEF242D
:1060F5006DFFE433FEEF25E0FFEE338F82F583E499
:106105008DF0123A48900195E0FF25E024ABF58229
:10611500E43400F583E0FCA3E0FDEF2471FFE433F4
:10612500FEEF25E0FFEE338F82F583EC8DF0123A1A
:1061350048900195E004F0E064046003025E40903D
:106145000177E05401FF90014EE0FBA3E0FAA3E0E4
:10615500F990005AE48FF0123A48900185E0FF90DB
:0D61650000EAE48FF0123A48E4901001F0D7
:01617200220A
:10571D004D48562D34004552524F52210055003AF6
:10572D00200049200030300020754100556C696D16
:10573D002000496C696D2000506F6C61726974793D
:10574D0020003A20706F736974697665003A206E97
:10575D0065676174697665005420636F6D702E20E6
:10576D00003A2073656E73653A20006F6666003BE4
:10577D00206F66667365743A20002043003B2073EA
:10578D006C6F70653A200020562F430054004D4831
:10579D00562D3420636F6D6D616E64206C6973746A
:1057AD00696E673A006E203D206368616E6E656CB0
:1057BD00206E756D6265722028302E2E2E332C20B2
:1057CD00612C2034203D20616C6C292C2065616397
:1057DD006820636D6420656E646564206279203C89
:1057ED0063723E005255206E3A090972656164205C
:1057FD00766F6C746167650052554C206E3A0909DD
:10580D007265616420766F6C74616765206C696D7B
:10581D006974005249206E3A09097265616420630A
:10582D00757272656E740052494C206E3A09097298
:10583D006561642063757272656E74206C696D6943
:10584D0074005250206E3A09097265616420706FC0
:10585D006C617269747900525443206E3A09097271
:10586D006561642074656D7020636F6D70656E7316
:10587D006174696F6E2073657474696E677300521D
:10588D0054206E3A0909726561642074656D706506
:10589D00726174757265005252413A090909726557
:1058AD0061642048562072616D7020737065656467
:1058BD00005355206E2076767676763A09736574A8
:1058CD0020766F6C74616765202830202E2E2E2077
:1058DD00382E303030290053554C206E2076767698
:1058ED0076763A0973657420766F6C7461676520FE
:1058FD006C696D6974202830202E2E2E20382E30A4
:10590D003030290053494C206E2069696969693A24
:10591D00097365742063757272656E74206C696DA0
:10592D006974202830202E2E2E2032302E3030302B
:10593D0029005350206E20703A0909736574207048
:10594D006F6C61726974792028702C312C2B202F8B
:10595D00206E2C302C2D2900535443206E20693A93
:10596D00097365742074656D7020636F6D70656E5D
:10597D00736174696F6E20696E70757420283020A4
:10598D002E2E2E2033290053544F206E206F6F6F13
:10599D003A097365742074656D7020636F6D702E98
:1059AD00206F6666736574202830202E2E2E2035CC
:1059BD0030302900535453206E2073737373733A30
:1059CD00097365742074656D7020636F6D702E2082
:1059DD00736C6F7065202830202E2E2E2031392EBD
:1059ED00393939290053524120723A0909736574C6
:1059FD002048562072616D70207370656564202893
:105A0D00302E2E2E3329004F4E206E3A0909737712
:105A1D0069746368206368616E6E656C206E206FBB
:105A2D006E004F4646206E3A0909737769746368B4
:105A3D00206368616E6E656C206E206F6666004136
:105A4D0053206E20693A200909656E61626C652FDD
:105A5D0064697361626C65206175746F207368751C
:105A6D0074646F776E2028693D312F3029004331E2
:105A7D003A20090972656D6F746520636F6E7472DB
:105A8D006F6C206F6E6C792C2070616E656C206C64
:105A9D006F636B65640043303A20090970616E6570
:0B5AAD006C20756E6C6F636B6564000D
:05A23B0090015CE0FF52
:0BA240008F99E59830E1FB5398FD2258
:0B9F5600E0FF129E497BFF7A57792C38
:0B9F61009001A5EBF0A3EAF0A3E9F0EB
:109F6C0012000EAE07E4FDEDC39E501A9001A5E061
:109F7C00FBA3E0FAA3E0F98D827583001238A7FFEA
:069F8C0012A2400D80E16D
:019F920022AC
:0AA278007F0A12A2407F0D02A240EF
:10A1AA007BFF7A57791D129F6190017FE060057FDE
:09A1BA002B12A2407F3E02A240DC
:0CA24B007BFF7A577923129F6102A278F2
:109ECD00EF75F0648412392912388E75F064A4FE92
:109EDD00C3EF9EFE75F00A8490000112393B90008D
:109EED00011238A775F00AA4FDC3EE9D9000021271
