:1073AD00E5D220E0FBA2AF9200C2AF43D2028F82A2
:0B73BD008E83E0FF53D2FDA20092AFD0
:0173C80022A2
:1073C900E5D220E0FBA2AF9200C2AF43D2028F8286
:0B73D9008E83EDF053D2FDA20092AFB6
:0173E4002286
:10745A00F922C002C004C00612FFF0D006D004D040
:02746A000222FC
:03000B00026E255D
:106E2500C0E0C083C082C0D0900204E004F07006C8
:106E3500900203E004F09001C8E004F0C39001EF74
:106E4500E094FF9001EEE094FF500CA3E004F07095
:106E5500069001EEE004F09001C5E0C394FF5003F5
:106E6500E004F0900160E0C394FF5003E004F0906B
:106E750001F9E004F0900209E004F0D0D0D082D00E
:046E850083D0E032A4
:03002300026685ED
:10668500C0E0C0F0C083C082C0D075D000C000C0DB
:0D66950001C002C003C004C005C006C0075C
:1066A200E59830E0745398FE900262E599F0E0FFBD
:1066B2009001EAE02400F582E43400F583EFF090E3
:1066C2000262E0B40D319001757401F09001EAE0CC
:1066D2002400F582E43400F5837420F09001EAE0AE
:1066E2002401F582E43400F583E4F07F0A12748910
:1066F2007F0D1274898008900262E0FF1274899003
:1067020001EAE0D394FF5003E004F0900262E0B4A7
:0967120008079001EAE024FEF002
:10671B00D007D006D005D004D003D002D001D000D2
:0B672B00D0D0D082D083D0F0D0E0327C
:0300030002702E5A
:10702E00C0E0C0F0C083C082C0D075D000C000C028
:10703E0001C002C003C004C005C006C00790100006
:10704E00E030E00312641D901000E030E103126F97
:10705E0036D007D006D005D004D003D002D001D050
:0C706E0000D0D0D082D083D0F0D0E0322F
:030013000261F097
:1061F000C0E0C083C082C0D075D000C0079010003E
:07620000E020E1030262FD52
:10620700901005E0900265F0900265E020E00A90AA
:106217001005E0900265F080EF900265E06405608C
:10622700030262FD901006E0FF9001E9E02409F502
:1062370082E43401F583EFF0901007E0FF9001E965
:10624700E0240AF582E43401F583EFF0901005E0CD
:10625700900265F0900265E020E00A901005E0905A
:106267000265F080EF9001E9E0240AF582E4340149
:10627700F583E0900152F09001E9E0240AF582E409
:106287003401F583E0D3940A505E9001E9E0240AD3
:10629700F582E43401F583E0C39402404B90100685
:1062A700E0FF9001E9E0242FF582E43401F583EF64
:1062B700F0901007E0FF9001E9E02430F582E43424
:1062C70001F583EFF09001E9E004F0E004F0E0B4B9
:1062D7002002E4F0900174E0D3941E5004E02402FD
:1062E700F0900160E4F0800E9001FFE004F070068A
:0662F7009001FEE004F03E
:0B62FD00D007D0D0D082D083D0E03298
:1072DA00758F1F438E0C75C834E4F5C975985075BF
:1072EA00878075A89775CBFF75CADE759B1E759A40
:1072FA007ED288900203F0A3F0C28CC28EF589D2A6
:04730A00A9D28C2256
:10723B00E49001EAF09001C4F09001C4E0C394FF24
:10724B005014E02400F582E43400F583E4F090015F
:10725B00C4E004F080E3E4900175F090014FF090EE
:05726B00015F04F022A8
:10630800E4900266F01272DA12723B124D83E49046
:106318000150F07F0112425CE4FF12425C9001766A
:10632800E0B4FF03124D83E4900150F012738B9098
:1063380001B7E0600512710580031271CA1260D6B8
:10634800122D68900175E06003120026124A3690FB
:106358000101E060179001EDE0701112692C1260E4
:10636800D6122D681264FEE4900101F0900163E0FA
:10637800600F900174E0B42008900162E0FF1239C8
:10638800BE900163E060119001F9E0D394C8400821
:10639800900162E0FF1239BE90025EE0D3940040A3
:1063A80014D39001EFE094209001EEE094034005AF
:1063B800E4FF1217A8900165E0D394004014D3902D
:1063C80001EFE094209001EEE0940340057F011274
:1063D80017A89001EDE0D39400400C900209E0D397
:1063E800940A40031252A090025DE0700302634BCE
:1063F800E4F09001B7E0600512710580031271CADC
:1064080090025E7401F0900165F0E49001EEF0A353
:04641800F002634BE0
:01641C00225D
:103397006465766963652076657273696F6E2073FD
:1033A700657420746F2032006465766963652076E2
:1033B700657273696F6E2073657420746F203300B4
:1033C70076657273696F6E2073657420746F2073EE
:1033D700756D6469730064657669636520636F64FE
:1033E700696E6720636C6561726564006465766900
:1033F70063652076657273696F6E207365742074D8
:103407006F203520286F6E2068617264776172655E
:10341700207634004175746F20707A2073746F7052
:10342700706564004175746F20707A206368616EFF
:103437006E656C200020737461727465642E0041A0
:1034470075746F20707A20616C6C206368616E6E92
:10345700656C73207374617274656400436F70697F
:1034670065642066726F6E7470616E656C2073653B
:103477007474696E677320746F207263206D656D55
:103487006F727900436F706965642072632073659A
:103497007474696E677320746F2066726F6E7470D0
:1034A700616E656C206D656D6F727900436F706931
:1034B700656420636F6D6D6F6E2072632073657432
:1034C70074696E677320746F2073696E676C65200B
:1034D70072632073657474696E67730068697374C7
:1034E7006F6772616D20636C6561726564006869FE
:1034F70073746F6772616D2066696C6C65640070C8
:103507007A2076616C75653A200054726967676541
:10351700722072617465733A2000547269673A20A9
:10352700004D756C743A20004D6F6E69746F722090
:103537006F7574707574206F6666004D6F6E697471
:103547006F72206368616E6E656C3A20004D6F6E16
:1035570069746F72206F7574707574206368616E1B
:103567006E656C20005243206F6E005243206F66D9
:103577006600202D200042617564726174652073B6
:10358700657420746F20392E3630300042617564BF
:10359700726174652073657420746F2031392E321F
:1035A7003030004261756472617465207365742000
:1035B700746F2033382E3430300042617564726185
:1035C70074652073657420746F2035372E3630305C
:1035D7000042617564726174652073657420746F4D
:1035E700203131352E3230300045434C2064656C34
:1035F7006179206F66660045434C2064656C61798C
:10360700206F6E00544620696E742076616C756574
:103617002073657420746F2000424C5220746872C6
:103627006573686F6C642073657420746F20006322
:103637006F7272656C6174696F6E2074696D652055
:1036470073657420746F20006761696E2067726FFD
:10365700757020002073657420746F200073696E85
:10366700676C65206368616E6E656C206D6F64655D
:103677000073696E676C65206368616E6E656C20A8
:103687006D6F64652070726573657400636F6D6D2F
:103697006F6E206D6F646500636F6D6D6F6E206D6B
:1036A7006F646520707265736574007570706572FC
:1036B700206D756C7469706C2E2074687265736800
:1036C7002073657420746F203120286D696E696DD1
:1036D700756D29006C6F776572206D756C746970F4
:1036E7006C2E207468726573682073657420746F1C
:1036F700203120286D696E696D756D29006C6F77B3
:103707006572206D756C7469706C2E2074687265B3
:1037170073682073657420746F203820286D617872
:10372700696D756D29006C6F776572206D756C74A6
:1037370069706C2E20746872657368203E207570FE
:10374700706572206D756C7469706C2E2074687268
:10375700657368212056616C7565732065786368A9
:10376700616E676564004D756C7469706C69636937
:1037770074792073657420746F2000202E2E2E20FC
:1037870000707A206368616E6E656C2000736861F3
:1037970070696E672074696D652067726F75702038
:1037A700007468726573686F6C64206368616E6E1D
:1037B700656C2000426173656C696E6520526573A4
:1037C700746F726572206F666600426173656C691B
:1037D7006E6520526573746F7265722061637469D8
:1037E7007665007468726573686F6C64206F6666CF
:1037F7007365742073657420746F20007468726534
:1038070073686F6C64206F666673657420636F728C
:10381700722073657420746F20007368617065721D
:10382700206F66667365742028424C52206F6E299C
:103837002073657420746F2000736861706572204F
:103847006F66667365742028424C52206F6666293E
:103857002073657420746F2000736861706572202F
:103867006F666673657420636F7272207365742068
:10387700746F200073756D206469736372696D20BE
:103887007468726573682073657420746F200054C0
:103897006573742070726F636564757265200020AC
:1038A70073746F707065642E20536176656420466B
:1038B700502D73657474696E677320726573746FC6
:1038C7007265642E00546573742070726F6365644B
:1038D700757265203120286761696E2072616D708D
:1038E7002920737461727465642E005465737420A3
:1038F70070726F6365647572652032202874687210
:103907006573686F6C6420736869667429207374C3
:1039170061727465642E00546573742070726F63EE
:103927006564757265203320287368742072616D31
:10393700702920737461727465642E005465737402
:103947002070726F63656475726520342028707A01
:103957002072616D702920737461727465642E0022
:103967004D5343462D313620736F66747761726508
:103977002076657273696F6E3A20004D5343462D6A
:103987003136206669726D7761726520766572736C
:10399700696F6E3A20004D5343462D313620666CD1
:1039A70061736820686172647761726520766572F9
:0739B70073696F6E3A2000F6
:10730E0074002FF582E43400F583E09001F1F074FF
:10731E00012FF582E43400F583E09001F2F0EF24C2
:0F732E000390014FF07B017A0179F1126736224B
:10563900AE07E49001F4F074002EF582E43400F52D
:1056490083E0900168F074012EF582E43400F5835B
:10565900E0900169F074022EF582E43400F583E0EC
:1056690090016AF074032EF582E43400F583E0902A
:10567900016BF09001617403F090016AE0642060AD
:1056890003E070069001617402F0900169E0642002
:105699006003E070069001617401F0900168E0C355
:1056A90094304006E0D3943940099001F47401F034
:1056B9007F0022900161E06403600302574D90016D
:1056C9006BE0642060069001F47401F0900168E0D9
:1056D900C394304013E0D39432500DE024D075F0D8
:1056E90064A4900161F080099001F47401F07F00D5
:1056F90022900169E0C394304016E0D394395010E8
:10570900E024D075F00AA4FF900161E02FF0800930
:105719009001F47401F07F002290016AE0C3943093
:105729004012E0D39439500CE024D0FF900161E09D
:105739002FF080099001F47401F07F0022EE240417
:1057490090014FF0900161E06402705E90016AE09F
:10575900642060069001F47401F0900168E0C3943C
:10576900304013E0D39439500DE024D075F00AA4E9
:10577900900161F080099001F47401F07F0022909A
:105789000169E0C394304012E0D39439500CE0240D
:10579900D0FF900161E02FF080099001F47401F0CD
:1057A9007F0022EE240390014FF0900161E0640133
:1057B9007036900169E0642060069001F47401F08C
:1057C900900168E0C39430400FE0D394395009E068
:1057D90024D0900161F080099001F47401F07F00F8
:0E57E90022EE240290014FF0900161E0FF22B9
:100026009002677401F0E4A3F0A3F0A3F0A3F090AC
:100036000000E0124A1000B53200EC33012334010F
:100046009935077B3F024E41177A420339430469CB
:100056004405F647077B48078649177A4B07C14C84
:1000660008094D09384F09AF500A56520A895314E8
:10007600B65416FB56177A58177A5A024E61177AF3
:100086006203396304696405F667077B68177A6B50
:1000960007C16C08096D09386F09AF700A56720AF4
:1000A600897314B67416FB76177A7A0000176F9068
:1000B6000150E0700302177A900001E06432600399
:1000C60002177A7D027F4AFE1273C99001F5E05449
:1000D600F5F0E4900267F07BFF7A337997126F8B25
:1000E60012749402177A900150E0700302177A9006
:1000F6000001E06433600302177A7D037F4AFE1233
:1001060073C99001F5E04420F0E4900267F07BFFAC
:100116007A3379AF126F8B12749402177A9001506A
:10012600E0700302177A900001E0645370377F4A4B
:10013600FE1273AD900164EFF0E0B4FF02E4F090BC
:100146000164E05404FD7F4A7E001273C99001F5F4
:10015600E04440F0E4900267F07BFF7A3379C712FF
:100166006F8B127494900001E0644E600302177A5C
:100176007DFF7F4AFE1273C99001F5E054BFF0E49B
:10018600900267F07BFF7A3379DD126F8B127494DD
:1001960002177A900150E0700302177A900001E08E
:1001A600643470377F4AFE1273AD900164EFF0E05D
:1001B600B4FF02E4F0900164E05408FD7F4A7E003B
:1001C6001273C99001F5E04480F0E4900267F07B79
:1001D600FF7A3379F3126F8B127494900001E06406
:1001E6005370377F4AFE1273AD900164EFF0E0B4AE
:1001F600FF02E4F0900164E05404FD7F4A7E0012A1
:1002060073C99001F5E04440F0E4900267F07BFF8B
:100216007A3379F3126F8B127494900001E0644E76
:10022600600302177A7DFF7F4AFE1273C99001F5BB
:10023600E0547FF0E4900267F07BFF7A3379DD12B9
:100246006F8B12749402177A900001E06470600854
:10025600E06450600302177A900163E06035E4F0D1
:100266009001BEE06005E4901011F09001FDE054AD
:10027600DFF0E090100DF09001B5E090100EF07BED
:10028600FF7A34791B126F8B127494E4900267F034
:1002960002177A9001EAE0D39403405B900002E0F3
:1002A600642070537F031256399001C4EFF0900119
:1002B600F4E0600302177A9001C4E0D3941040037F
:1002C6007410F09001C4E0700204F09001C4E014D0
:1002D600900162F09001297401F07BFF7A34792B4A
:1002E600126F8B9001C4E0FF1272047BFF7A34799F
:1002F6003C126F8B1274949001EAE0B40315E490FB
:100306000162F0900129F07BFF7A347946126F8BF7
:100316001274949001637401F0901011F090020829
:10032600F0E4900153F09001EBF0A3F0900267F037
:1003360002177A900001E064706008E06450600380
:100346000203F9900002E064796008E064596003F2
:100356000203F9900003E06420600B900001E06462
:100366002060030203F9900004E064666004E0B4D0
:100376004623E4FF1259B0E4900267F07BFF7A341B
:100386007963126F8B1274949001657401F0E49096
:1003960001EEF0A3F0900004E064726004E0B45251
:1003A600237F011259B0E4900267F07BFF7A34791B
:1003B6008B126F8B12749490025E7401F0E49001BC
:1003C600EEF0A3F0900004E064636004E0B443231D
:1003D6007F021259B0E4900267F07BFF7A3479B35A
:1003E600126F8B1274949001657401F0E49001EE23
:1003F600F0A3F0900001E064686004E0B4481412D1
:100406000016E4900267F07BFF7A3479E3126F8B73
:10041600127494900001E0646C6008E0644C600320
:1004260002177AE4900164F0900164E0C3941050DE
:100436001EE0C454F0FEE025E024C9F582E4340150
:10044600F583EEF0A3E4F0900164E004F080D9E4D3
:10045600900267F07BFF7A3479F5126F8B127494F1
:1004660002177A900001E064706008E0645060034F
:10047600020569900150E0700302053E900174E0A8
:10048600FF1272047F2E1274899001FEE0A3E0FF32
:10049600127204127494E4900268F0A3F09001744E
:1004A600E0FFC3900269E09F900268E09400400379
:1004B600020537E0A3E02430F582E43401F583E059
:1004C600FF1272047F2E127489900268E0A3E02462
:1004D6002FF582E43401F583E0FF1272047F2D12BA
:1004E6007489900268E0A3E0240AF582E43401F5F9
:1004F60083E0FF1272047F2E127489900268E0A3D3
:10050600E02409F582E43401F583E0FF12720490D9
:100516000269E004F07006900268E004F012749438
:10052600900269E004F07006900268E004F00204AC
:10053600A3E4900267F0802B7BFF7A357906126F71
:100546008BE47B10FAF9F8900259E0FCA3E0FDA3D6
:10055600E0FEA3E0FF124930127204127494E49094
:100566000267F0900001E064746005E06454705125
:100576007BFF7A357911126F8B1274947BFF7A3573
:100586007921126F8B901018E0FE901017E07C0016
:100596002400FFEC3EFE126BEC1274947BFF7A355E
:1005A6007928126F8B90101AE0FE901019E07C00EB
:1005B6002400FFEC3EFE126BEC127494E49002678A
:1005C600F0900001E064686004E0B44808125FA39C
:1005D600E4900267F0900001E064736008E0645301
:1005E600600302177A12271EE4900267F002177A58
:1005F600900001E064726008E064526003020699AC
:10060600900150E070030206999001EAE0640370DD
:1006160048900268F0A3F0C3900269E0941090023B
:1006260068E094005065E0A3E0FF1272047F3A127E
:100636007489900268E0A3E02400F582E43410F5A2
:1006460083E0FF1273E5127494900269E004F0707F
:1006560006900268E004F080BE7F031256399001CE
:10066600F8EFF09001F4E0600302177A9001F8E0E9
:10067600FF1272047F2D1274899001F8E02400F5B0
:1006860082E43410F583E0FF1273E5127494E4906B
:100696000267F0900001E064706005E064507069E4
:1006A600900104E0FEA3E0FF126BEC7F2012748938
:1006B600900156E0FEA3E0FF126BEC7F2D127489C9
:1006C60090010AE0FE900109E07C002400FFEC3E68
:1006D600FE126BEC7F20127489900130E0FE9001CF
:1006E6002FE07C002400FFEC3EFE126BEC7F2D1207
:1006F6007489900259E0A3E0A3E0FEA3E0FF126B29
:10070600EC127494E4900267F0900001E064536088
:1007160005E064737049E4900268F0A3F0C39002A8
:1007260069E09405900268E094005033E0A3E0FF8E
:100736001272047F20127489900268E0A3E02442BA
:10074600F582E43402F583E0FF1272041274949089
:100756000269E004F07006900268E004F080BE9042
:100766000001E06454700302177AE06474600302C7
:10077600177A02177A125B4BE4900267F002177A37
:10078600900001E0644E600302177AA3E0644960BA
:100796000302177AA3E06454600302177A125E6FAD
:1007A600E49001EEF0A3F090025E04F0900165F093
:1007B600E4900267F012710502177A900001E06476
:1007C600686008E06448600302177A127494E49043
:1007D6000164F0900164E0C39410501FE025E0240A
:1007E600C9F582E43401F583E0FEA3E0FF126BEC69
:1007F600127494900164E004F080D8E4900267F0EB
:1008060002177A900001E064636008E064436003C5
:100816000208DF9001EAE0640370489001B7E060E7
:1008260028900249E0B4110B7BFF7A35792F126FBD
:100836008B80117BFF7A357942126F8B900249E0EB
:10084600FF12720412749480137BFF7A3579421278
:100856006F8B90100EE0540FFF127204E490026743
:10086600F080767F031256399001C4EFF09001F4C0
:10087600E0600302177A9001C4E070117BFF7A35BD
:10088600792F126F8B9002497411F080279001C462
:10089600E0D3941040037410F09001C4E014900269
:1008A60049F07BFF7A357954126F8B900249E00448
:1008B600FF1272041274949001B7E0600B90024923
:1008C600E090100EF01265C29001657401F0E4909C
:1008D60001EEF0A3F0900267F0900001E06465700D
:1008E60025A3E06473701FA3E0B4791AA3E0B443B0
:1008F60015A3E0B46110A3E0B46C0B900150740131
:10090600F0E4900267F0900001E0644F6003021784
:100916007AA3E06466600302177AA3E06466600364
:1009260002177A900150F01271CAE4900267F00241
:10093600177A900001E0646E6004E0B44E241271F0
:10094600057BFF7A35796C126F8B12749490016572
:100956007401F090025EF0E49001EEF0A3F09002D4
:1009660067F0900001E064666008E0644660030298
:10097600177A900002E064666008E064466003024D
:10098600177A1271CA7BFF7A357972126F8B1274DD
:10099600949001657401F090025EF0E49001EEF02F
:1009A600A3F0900267F002177A900001E0647A6083
:1009B60005E0645A704F900002E06472600890008F
:1009C60001E06452703F7F041256399001C4EFF083
:1009D6009001F4E0600302177A9001C4E07002040B
:1009E600F09001C4E09001C1F09001C4900255F06E
:1009F60090025E7401F0900165F0E49001EEF0A3C0
:100A0600F0900267F0900150E0700302177A9001AF
:100A1600EAE06402600302177A900259E0A3E0A3B9
:100A2600E0FEA3E0FF126BEC7BFF7A357979126F5B
:100A36008B90010AE0FE900109E07C002400FFECA7
:100A46003EFE126BEC127494E4900267F002177A81
:100A5600900001E0646D6004E0B44D0AE4FF1242C8
:100A66005CE4900267F0900001E064726008E06464
:100A760052600302177A7F0112425CE4900267F02B
:100A860002177A900001E064626008E06442600345
:100A9600020B4B900002E064206003020B4BA3E0C4
:100AA600C394305003020B4BE0D394364003020B41
:100AB6004B7F031256399001C4EFF09001F4E060C9
:100AC6000302177A9001C4E0700204F09001C4E0BA
:100AD600D3940640037406F09001C4E024FE601E21
:100AE60014602C14603A146048240470537BFF7A17
:100AF60035797D126F8B127494759A7E80427BFFD6
:100B06007A357993126F8B127494759ABF80317B04
:100B1600FF7A3579AA126F8B127494759ADF80204A
:100B26007BFF7A3579C1126F8B127494759AEA80BD
:100B36000F7BFF7A3579D8126F8B127494759AF5FC
:100B4600E4900267F09001F7E064056003020C266A
:100B56009001F5E030E703020C26900001E06465A1
:100B66006005E0644570577F031256399001C4EF63
:100B7600F09001F4E0600302177A9001C4E070126D
:100B8600900256F07BFF7A3579F0126F8B127494CF
:100B960080129002567401F07BFF7A3579FE126F4F
:100BA6008B1274949001B7E0600312714990025E53
:100BB6007401F0E49001EEF0A3F0900267F090006B
:100BC60001E064666005E0644670557F031256399D
:100BD6009001C4EFF09001F4E0600302177A9001EF
:100BE600C4E0D3940340037403F09001C4E0900280
:100BF60057F07BFF7A36790B126F8B900257E0FF26
:100C06001272041274949001B7E060031271499055
:100C1600025E7401F0E49001EEF0A3F0900267F03A
:100C26009001F5E020E503020CEC900001E064621F
:100C36006005E06442705F900002E064746005E065
:100C4600645470527F041256399001C4EFF090013B
:100C5600F4E0600302177A9001C4E0700204F09099
:100C660001C4E090024DF09001C49001B9F01274F5
:100C7600157BFF7A367920126F8B9001B9E0FF124F
:100C8600720412749490025E7401F0E49001EEF026
:100C9600A3F0900267F0900001E064636005E064F1
:100CA6004370437F031256399001C4EFF09001F46C
:100CB600E0600302177A9001C4E09001B8F0127365
:100CC600FD7BFF7A367936126F8B9001B8E0FF1202
:100CD600720412749490025E7401F0E49001EEF0D6
:100CE600A3F0900267F0900001E064676008E0649A
:100CF600476003020D9D7F031256399001C4EFF041
:100D06009001F4E0600302177A9001C4E0C39401F5
:100D1600500302177AE0D39405400302177A900134
:100D26004FE0FF1256399001F8EFF09001F4E060C1
:100D36000302177A9001F8E0D3940F400302177A62
:100D46009001F8E0FF9001C4E02409F582E4340242
:100D5600F583EFF01254747BFF7A36794F126F8B5E
:100D66009001C4E0FF1272047BFF7A36795B126F42
:100D76008B9001C4E02409F582E43402F583E0FF98
:100D86001272041274949001657401F0E49001EEFD
:100D9600F0A3F0900267F0900001E064696008E05B
:100DA60064496003020E2D7F031256399001C4EF89
:100DB600F09001F4E0600302177A9001C4E0D39446
:100DC60000402B90024A7401F09001B7E0601112C6
:100DD6006A5B7BFF7A367964126F8B127494803665
:100DE6007BFF7A367978126F8B1274948028E490A0
:100DF600024AF09001B7E06011126D4A7BFF7A3625
:100E06007993126F8B127494800C7BFF7A36799FDC
:100E1600126F8B1274949001657401F0E49001EEE8
:100E2600F0A3F0900267F0900001E0646D6008E0C6
:100E3600644D6003020F567F031256399001C4EFCA
:100E4600F09001F4E0600302177A90014FE0FF1280
:100E560056399001F8EFF09001F4E0600302177A3A
:100E66009001C4E070127BFF7A3679B2126F8B1252
:100E760074949001C47401F09001C4E0D3940840C6
:100E8600037409F09001F8E070127BFF7A3679DB83
:100E9600126F8B1274949001F87401F09001F8E0CF
:100EA600D3940840127BFF7A377904126F8B127441
:100EB600949001F87408F09001C4E0FF9001F8E006
:100EC600D39F4021E0900164F09001C4E09001F8C6
:100ED600F0900164E09001C4F07BFF7A37792D121F
:100EE6006F8B1274949001C4E0900247F09001F861
:100EF600E0900248F09001C4E09001B3F09001F850
:100F0600E09001B3F09001C4E0FF7E009001F8E0AC
:100F1600FD7C00126C637BFF7A37796D126F8B90C4
:100F260001C4E0FF1272047BFF7A377982126F8B5D
:100F36009001F8E0FF127204127494900165740136
:100F4600F090025EF0E49001EEF0A3F0900267F0FC
:100F5600900001E064706008E06450600302101DB8
:100F66007F031256399001C4EFF09001F4E060035C
:100F760002177A9001C4E0C39401500302177AE085
:100F8600D39411400302177A90014FE0FF125639AD
:100F96009001F8EFF09001F4E0600302177A9001F7
:100FA600F8E0FF9001C4E02430F582E43402F583D2
:100FB600EFF09001B7E0601F9001C4E0B4110A9011
:100FC60001F8E0FF1272A5800E9001C4E014FF90B4
:100FD60001F8E0FD126DB87BFF7A377988126F8BC6
:100FE6009001C4E0FF1272047BFF7A36795B126FC0
:100FF6008B9001C4E02430F582E43402F583E0FFEF
:101006001272041274949001657401F0E49001EE7A
:10101600F0A3F0900267F0900001E064726005E0D2
:1010260064527071900150E0606B7F0312563990E4
:1010360001C4EFF09001F4E0600302177A90014FCB
:10104600E0FF12730E9001F8EFF09001C4E0FF127A
:1010560072047F201274899001F8E0FF1272041264
:1010660074949001F8E0FF9001C4E02400F582E456
:101076003410F583EFF01274947F0312563974001E
:101086002FF582E43410F583E0FF1273E5127494B1
:10109600E4900267F0900001E064736008E0645336
:1010A6006003021178900002E06420600302117868
:1010B6007F031256399001C4EFF09001F4E060030B
:1010C60002177A9001C4E0C394014006E0D3940568
:1010D60040069001C47405F090014FE0FF125639A6
:1010E6009001F8EFF09001F4E0600302177A9001A6
:1010F600F8E0D3940340037403F09001F8E0FF9006
:1011060001C4E02441F582E43402F583EFF0900156
:10111600B7E0601E9001C4E0B4050B90024AE0708F
:101126000E1269C8800990024AE060031267E41251
:1011360065C27BFF7A377994126F8B9001C4E0FF0A
:101146001272047BFF7A36795B126F8B9001C4E0D2
:101156002441F582E43402F583E0FF12720412742E
:10116600949001657401F0E49001EEF0A3F0900212
:1011760067F0900001E064746008E0645460030264
:101186001257900002E0642060030212577F031298
:1011960056399001C4EFF09001F4E0600302177A2B
:1011A6009001C4E0C39401500302177AE0D394116E
:1011B600400302177A90014FE0FF1256399001F86A
:1011C600EFF0E0FF9001C4E025E0240DF582E43461
:1011D60002F583E4F0A3EFF09001B7E0602F9001F1
:1011E600C4E0B4111290024AE070229001F8E0FFC8
:1011F6007E0012733D801690024AE060109001C492
:10120600E014FF9001F8E0FD7C00126E897BFF7A06
:101216003779A8126F8B9001C4E0FF1272047BFF2E
:101226007A36795B126F8B9001C4E025E0240DF5C8
:1012360082E43402F583E0A3E0FF12720412749490
:101246009001657401F0E49001EEF0A3F09002675E
:10125600F09001F5E020E10302177A900001E064C6
:10126600626005E06442706D900002E0646C6005A7
:10127600E0644C7060900004E0B43028E4900252C0
:10128600F0900267F012727012688F7BFF7A3779DE
:10129600BB126F8B12749490025E7401F0E490019D
:1012A600EEF0A3F0900004E0B4312A9002527401EB
:1012B600F0E4900267F012727012688F7BFF7A3743
:1012C60079D1126F8B12749490025E7401F0E490DF
:1012D60001EEF0A3F0900001E064746008E064544D
:1012E600600302137E900002E0646F6008E0644FC2
:1012F600600302137E900003E06420600302177A05
:101306007F041256399001C4EFF09001F4E06003B7
:1013160002177A900150E0600A9001C4E09001BA89
:10132600F080149001C4E0D394C8400374C8F090D0
:1013360001C4E09001BBF0126B73900150E06013A2
:101346007BFF7A3779EA126F8B9001BAE0FF12724F
:101356000480117BFF7A387903126F8B9001BBE012
:10136600FF12720412749490025E7401F0E490010C
:10137600EEF0A3F0900267F0900001E0647360085D
:10138600E06453600302143F900002E0646F60085B
:10139600E0644F600302143F7F041256399001C483
:1013A600EFF09001F4E0600302177A900150E060DC
:1013B6001A900252E0600A9001C4E09001BCF080ED
:1013C6001E9001C4E09001BFF080149001C4E0D3E8
:1013D60094C8400374C8F09001C4E09001BDF012B7
:1013E600688F900150E0602C900252E060137BFF02
:1013F6007A387921126F8B9001BCE0FF127204805B
:10140600247BFF7A387940126F8B9001BFE0FF1280
:10141600720480117BFF7A387960126F8B9001BD60
:10142600E0FF12720412749490025E7401F0E4906C
:1014360001EEF0A3F0900267F0900001E0647560A1
:1014460008E06455600302177A900002E064746055
:1014560008E06454600302177A9001F5E020E60381
:1014660002177A7F041256399001C4EFF09001F406
:10147600E0600302177A9001C4E09001C0F0900189
:10148600C4900254F012742D7BFF7A38797B126F68
:101496008B9001C0E0FF12720412749490025E7485
:1014A60001F0E49001EEF0A3F0900267F002177AE3
:1014B600900150E0700302177A900001E0643070EA
:1014C60038FF12425C9001B6E06005126A5B800349
:1014D600126D4A7BFF7A387996126F8B9001EDE098
:1014E600FF1272047BFF7A3879A6126F8B127494FE
:1014F600E49001EDF0900267F0900001E064317035
:10150600449001ED04F0E4900106F0900209F09099
:1015160001B6F01260D6122D681264FE126D4A9062
:101526000106E090017AF0E49001B5F0E090100E2B
:10153600F01254747BFF7A3879CC126F8B12749444
:10154600E4900267F0900001E064326003021656F0
:101556009001ED7402F0E4900106F0900209F0901B
:1015660001B6F01260D6122D681264FE126D4AE4BE
:10157600900268F0A3F0C3900269E09404900268B8
:10158600E094005051A3E025E0FF900268E033FEAE
:10159600747B2FF58274013EF583E4F0A37405F0A5
:1015A600900268E0A3E0FFC00725E0FF900268E034
:1015B60033FE747B2FF58274013EF583E0FCA3E0D5
:1015C600FDD007126E89900269E004F07006900261
:1015D60068E004F080A0900268E4F0A37404F0C30D
:1015E600900269E09410900268E094005051A3E0E4
:1015F60025E0FF900268E033FE747B2FF5827401CC
:101606003EF583E4F0A374FFF0900268E0A3E0FFE8
:10161600C00725E0FF900268E033FE747B2FF58259
:1016260074013EF583E0FCA3E0FDD007126E8990BD
:101636000269E004F07006900268E004F080A07B86
:10164600FF7A3879F2126F8B127494E4900267F085
:10165600900001E0643370459001ED7403F0E4906E
:101666000106F0900209F09001B6F01260D6122D34
:10167600681264FE126D4A900106E09001B3F0E430
:101686009001B5F0E090100EF01254747BFF7A3999
:10169600791E126F8B127494E4900267F090000129
:1016A600E06434704A9001ED7404F0E4900106F0B1
:1016B600900209F09001B6F01260D6122D681264FD
:1016C600FE126D4A900106E09001ADF0E49001B57E
:1016D600F0E090100EF0900106E0FF1272A57BFF7D
:1016E6007A397943126F8B127494E4900267F01280
:1016F60065C202177A7BFF7A397967126F8B900180
:1017060007E0FF1272047F2E127489900108E0FF31
:101716001272041274947BFF7A397982126F8B905D
:1017260001F7E0FF1272047F2E1274899001F6E031
:10173600FF1272047F2D1274899001F5E0FF127278
:1017460004127494900150E060167BFF7A39799DFB
:10175600126F8B7F4A7E001273AD1272041274945C
:10176600E4900267F0800D800B900000E06420603A
:10177600031273699001FDE04401F0E49001C5F0A5
:101786009001EAE0B40105E4900267F0900267E098
:101796006003127369E4900175F09001EAF012712A
:0117A6008BB7
:0117A700221F
:101FA1004D5343462D313620636F6D6D616E642054
:101FB10073756D6D6172793A0044530909646973EF
:101FC100706C6179207365747570005347206720C8
:101FD100760909736574206761696E20666F7220E6
:101FE10067726F757020672028312E2E2E352920BB
:101FF100746F2076616C20762028302E2E2E31359C
:10200100290053542063207609097365742074688C
:10201100726573686F6C6420666F72206368616EAD
:102021006E656C20632028312E2E2E3137292074C5
:102031006F2076616C20762028302E2E2E32353599
:102041002900535020632076090973657420707A42
:1020510020636F6D7020666F72206368616E6E65BC
:102061006C20632028312E2E2E31372920746F20C9
:1020710076616C20762028302E2E2E3235352900BF
:102081005353206720760909736574207368617062
:10209100696E672074696D6520666F722067726F63
:1020A100757020672028312E2E2E352920746F203F
:1020B10076616C20762028302E2E2E332900534D48
:1020C100206869206C6F09736574206D756C746983
:1020D100706C696369747920626F726465727320D0
:1020E10068692C206C6F2028312E2E2E3829004D46
:1020F1004320630909736574206D6F6E69746F7293
:10210100206F757470757420746F206368616E6ED2
:10211100656C20632028312E2E2E31362C20303D47
:102121006F6666290053424C2076090973776974FA
:10213100636820424C52206F6E2F6F6666202876AE
:102141003D312F30290053534F20760909736574AF
:1021510020736861706572206F66667365742074A0
:102161006F2076616C20762028302E2E2E32303072
:10217100203D202D3130302E2E2E2B393929005380
:10218100544F207609097365742074687265736809
:102191006F6C64206F666673657420746F2076615E
:1021A1006C20762028302E2E2E323030203D202DEE
:1021B1003130302E2E2E2B393929005342542076BE
:1021C100090973657420424C522074687265736802
:1021D1006F6C6420746F2076616C20762028302E1D
:1021E1002E2E323535290053432076090973657443
:1021F10020636F696E636964656E63652074696DE0
:10220100652077696E646F7720746F2076616C202A
:10221100762028302E2E2E32353529005345207652
:1022210009097365742045434C2064656C6179200C
:102231006F66662F6F6E2028302F3129005346209C
:102241007609097365742074696D696E6720666922
:102251006C74657220696E742074696D6520746F89
:1022610020762028302E2E2E3329005355542076E7
:1022710009097365742053756D64697320746872FC
:102281006573686F6C6420746F2076616C207620B2
:1022910028302E2E2E32353529005349206E09095A
:1022A10073696E676C65206368616E6E656C206D25
:1022B1006F6465206F6E2F6F666620286E3D312F2B
:1022C1003029004F4E09097377697463682072637E
:1022D100206D6F6465206F6E004F46460909737764
:1022E10069746368207263206D6F6465206F666630
:1022F100004150090973746172742F73746F7020F7
:102301006175746F6D6174696320707A207365748F
:1023110074696E672028616C6C206368616E6E65FC
:102321006C73290041502063090973746172742F21
:1023310073746F70206175746F6D6174696320705F
:102341007A2073657474696E6720286F6E6C7920CA
:102351006368616E6E656C20632900505A52206E6D
:1023610009097365742072616E676520666F72205A
:10237100505A20646973706C617920746F202B2F1F
:102381002D206E20283D312E2E2E32353529206309
:1023910068616E6E656C7300560909646973706CCF
:1023A1006179206669726D776172652076657273F5
:1023B100696F6E005342206E090973657420626172
:1023C1007564726174652C206E203D2062617564B4
:1023D1007261746520696E646578000909313A207B
:1023E100392E362C20323A2031392E322C20333AF4
:1023F1002032382E382C20343A2035372E362C20F6
:10240100353A203131352E32206B42640043505928
:1024110020460909636F70792073696E676C6520C6
:102421006368616E6E656C2066726F6E7470616E4A
:10243100656C2073657474696E677320746F2072A4
:1024410063206D656D6F72790043505920520909FF
:10245100636F70792072632073657474696E67733A
:1024610020746F2073696E676C65206368616E6E9E
:10247100656C206D656D6F72790043505920430979
:1024810009636F707920636F6D6D6F6E20726320C9
:1024910073657474696E677320746F2073696E67F6
:1024A1006C652072632073657474696E67730032A2
:1024B10032202F2033330909736574206877207621
:1024C100657273696F6E206D616E75616C6C7920D8
:1024D100746F2032202F20332028666F7220687796
:1024E100342E30206F6E6C7929003453202F203424
:1024F1004E200909736574206877207665727369C7
:102501006F6E206D616E75616C6C7920746F203413
:10251100202B2073756D646973202F206E6F726D8F
:10252100616C004D5343462D31362050616E656C10
:102531002073657474696E67733A006761696E73BD
:102541003A2000633A00746872657368733A200038
:10255100707A3A2000736874733A20006D756C7458
:102561003A20006D6F6E69746F723A20006F666673
:1025710000424C522061637469766500424C5220DE
:102581006F66660045434C2064656C61793A206F43
:102591006E0045434C2064656C61793A206F666634
:1025A10000544620696E743A200073696E676C6549
:1025B100206D6F646500636F6D6D6F6E206D6F646C
:1025C10065004D5343462D31362072632073657487
:1025D10074696E67733A007263206F6E00726320D4
:1025E1006F666600707A2064697370207265736F1C
:1025F1006C7574696F6E3A20004D5343462D313628
:102601002067656E6572616C2073657474696E67AD
:10261100733A00424C52207468726573683A200024
:10262100436F696E636964656E63652074696D6586
:102631003A2000546872657368206F6666732E3A9B
:1026410020002C20436F72722E3A20005368617073
:102651006572206F6666732E3A20002028424C5224
:10266100206F6E29202F20002028424C52206F66B7
:1026710066292C20436F72722E3A200053756D200B
:102681006469736372207468726573683A20004DDF
:102691005343462D313620736F667477617265201E
:1026A10076657273696F6E3A20004D5343462D3142
:1026B10036206669726D776172652076657273691D
:1026C1006F6E3A20004D5343462D313620666C61C2
:1026D10073682068617264776172652076657273D0
:1026E100696F6E3A20006E617469766500356F6EB0
:1026F10034200053440033003200202876616C7589
:1027010065203D20002900416D706C697475646518
:0D27110020686973746F6772616D3A200073
:0B6F8B00900272EBF0A3EAF0A3E9F023
:106F9600900272E0FBA3E0FAA3E0F91274459002B6
:106FA60076EFF0E4900275F0900276E0FF900275BD
:106FB600E0C39F5021900272E0FBA3E0FAA3E0F940
:106FC600A3E0F58275830012475CFF127489900274
:066FD60075E004F080D21A
:016FDC002292
:10718B007F6D1274897F731274897F631274897F88
:10719B0066127489900150E0600A7F2D1274897F0A
:1071AB00211274899001B7E0600F7F2D1274897FD3
:0F71BB00521274897F431274897F3E12748922A5
:107369007F451274897F521274897F521274897F02
:107379004F1274897F521274897F21127489127491
:0273890094224C
:105B4B007BFF7A1F79A1126F8B1274947BFF7A1FE4
:105B5B0079BA126F8B1274947BFF7A1F79CC126F08
:105B6B008B1274947BFF7A207903126F8B127494CF
:105B7B007BFF7A207943126F8B1274947BFF7A2010
:105B8B007981126F8B1274947BFF7A2079BF126F1D
:105B9B008B1274947BFF7A2079F0126F8B127494B2
:105BAB009001F5E030E12A7BFF7A217926126F8B89
:105BBB00127494900150E060187BFF7A21794712A0
:105BCB006F8B1274947BFF7A217980126F8B127416
:105BDB00949001F5E0542260187BFF7A2179BC1276
:105BEB006F8B1274947BFF7A2179E8126F8B12748E
:105BFB00949001F7E0B4051F9001F5E020E7187BC6
:105C0B00FF7A22791D126F8B1274947BFF7A2279A3
:105C1B003E126F8B1274949001F5E030E60C7BFF13
:105C2B007A22796C126F8B1274947BFF7A22799B98
:105C3B00126F8B1274947BFF7A2279C4126F8B12C2
:105C4B0074947BFF7A2279DA126F8B1274947BFF38
:105C5B007A2279F2126F8B1274947BFF7A23792557
:105C6B00126F8B1274947BFF7A23795C126F8B12F9
:105C7B0074947BFF7A237999126F8B1274947BFF48
:105C8B007A2379B5126F8B1274947BFF7A2379DCAC
:105C9B00126F8B1274947BFF7A24790E126F8B1216
:105CAB0074947BFF7A24794A126F8B1274947BFF66
:105CBB007A24797B126F8B127494900150E06018E8
:105CCB007BFF7A2479B0126F8B1274947BFF7A244A
:095CDB0079EB126F8B1274942214
:10271E00E490026CF0A3F07BFF7A257924126F8B84
:10272E001274947BFF7A25793C126F8BE490026CC5
:10273E00F0A3F0C390026DE0940490026CE094005C
:10274E005026E0A3E02476F582E43401F583E0FF21
:10275E001272047F2012748990026DE004F07006EC
:10276E0090026CE004F080CB7BFF7A257944126FE7
:10277E008B90017AE0FF1272041274947BFF7A251B
:10278E007947126F8BE490026CF0A3F0C390026D48
:10279E00E0941090026CE094005031A3E025E0FF2D
:1027AE0090026CE033FE747B2FF58274013EF5834C
:1027BE00E0A3E0FF1272047F2012748990026DE094
:1027CE0004F0700690026CE004F080C07BFF7A2566
:1027DE007944126F8B90019BE0A3E0FF12720412FA
:1027EE0074947BFF7A257951126F8BE490026CF012
:1027FE00A3F0C390026DE0941090026CE094005030
:10280E0026E0A3E0249DF582E43401F583E0FF1277
:10281E0072047F2012748990026DE004F0700690AD
:10282E00026CE004F080CB7BFF7A257944126F8B2B
:10283E009001ADE0FF1272041274947BFF7A257939
:10284E0056126F8BE490026CF0A3F0C390026DE011
:10285E00940490026CE094005026E0A3E024AEF5C0
:10286E0082E43401F583E0FF1272047F2012748932
:10287E0090026DE004F0700690026CE004F080CBE4
:10288E007BFF7A257944126F8B9001B2E0FF1272B2
:10289E00041274947BFF7A25795D126F8B9001B3CD
:1028AE00E0FF1272047F201274899001B4E0FF12CF
:1028BE0072041274947BFF7A257964126F8B9001E7
:1028CE00B5E0C394105008E004FF12720480097B37
:1028DE00FF7A25796E126F8B1274949001F7E0D304
:1028EE009404404F9001BEE0600B7BFF7A25797215
:1028FE00126F8B80097BFF7A25797D126F8B127494
:10290E00949001C2E0B4010B7BFF7A257985126F9A
:10291E008B80097BFF7A257993126F8B1274947BCF
:10292E00FF7A2579A2126F8B9001C3E0FF12720419
:10293E001274949001B6E0600B7BFF7A2579AB128E
:10294E006F8B80097BFF7A2579B7126F8B12749487
:10295E001274947BFF7A2579C3126F8B1274947B59
:10296E00FF7A25793C126F8BE490026CF0A3F0C3D2
:10297E0090026DE0940490026CE094005026E0A367
:10298E00E0240AF582E43402F583E0FF1272047F3C
:10299E002012748990026DE004F0700690026CE0D3
:1029AE0004F080CB7BFF7A257944126F8B90020E58
:1029BE00E0FF1272041274947BFF7A257947126F2E
:1029CE008BE490026CF0A3F0C390026DE094109033
:1029DE00026CE094005031A3E025E0FF90026CE021
:1029EE0033FE740F2FF58274023EF583E0A3E0FFF1
:1029FE001272047F2012748990026DE004F070064A
:102A0E0090026CE004F080C07BFF7A257944126F4F
:102A1E008B90022FE0A3E0FF1272041274947BFFDE
:102A2E007A257951126F8BE490026CF0A3F0C3906B
:102A3E00026DE0941090026CE094005026E0A3E04A
:102A4E002431F582E43402F583E0FF1272047F2014
:102A5E0012748990026DE004F0700690026CE0042E
:102A6E00F080CB7BFF7A257944126F8B900241E088
:102A7E00FF1272041274947BFF7A257956126F8BB3
:102A8E00E490026CF0A3F0C390026DE09404900207
:102A9E006CE094005026E0A3E02442F582E4340278
:102AAE00F583E0FF1272047F2012748990026DE0AC
:102ABE0004F0700690026CE004F080CB7BFF7A2568
:102ACE007944126F8B900246E0FF127204127494D6
:102ADE007BFF7A25795D126F8B900247E0FF1272B1
:102AEE00047F20127489900248E0FF12720412745F
:102AFE00947BFF7A257964126F8B900249E0C39420
:102B0E00105008E004FF12720480097BFF7A2579C9
:102B1E006E126F8B1274949001F7E0D39404404FB1
:102B2E00900252E0600B7BFF7A257972126F8B80D8
:102B3E00097BFF7A25797D126F8B12749490025661
:102B4E00E0B4010B7BFF7A257985126F8B80097BB0
:102B5E00FF7A257993126F8B1274947BFF7A257905
:102B6E00A2126F8B900257E0FF12720412749490AF
:102B7E00024AE0600B7BFF7A2579AB126F8B8009DE
:102B8E007BFF7A2579B7126F8B127494127494901E
:102B9E0001B7E0600B7BFF7A2579D8126F8B800925
:102BAE007BFF7A2579DE126F8B1274947BFF7A2568
:102BBE0079E5126F8B9001C1E0FF127204127494CA
:102BCE009001F5E0542260371274947BFF7A2579D8
:102BDE00FA126F8B1274947BFF7A267914126F8B14
:102BEE009001B9E0FF1272041274947BFF7A267979
:102BFE0021126F8B9001B8E0FF1272041274949040
:102C0E0001F5E030E161900150E0605B7BFF7A26D8
:102C1E007934126F8B9001BAE0FF1272047BFF7A47
:102C2E00267943126F8B9001BBE0FF12720412746F
:102C3E00947BFF7A26794D126F8B9001BCE0FF12C8
:102C4E0072047BFF7A26795C126F8B9001BFE0FFD6
:102C5E001272047BFF7A267969126F8B9001BDE0A8
:102C6E00FF1272041274949001F5E030E6147BFFAB
:102C7E007A26797D126F8B9001C0E0FF12720412DA
:102C8E0074947BFF7A267990126F8B900107E0FF88
:102C9E001272047F2E127489900108E0FF127204E2
:102CAE001274947BFF7A2679AB126F8B9001F7E04A
:102CBE00FF1272047F2E1274899001F6E0FF1272D9
:102CCE00047F2D1274899001F5E0FF1272041274C4
:102CDE0094900150E07003022D677BFF7A2679C62F
:102CEE00126F8B7F4A7E001273AD900164EFF0E09D
:102CFE00B4FF097BFF7A2679E7126F8B900164E0AF
:102D0E0030E3097BFF7A2679EE126F8B900164E037
:102D1E0030E2097BFF7A2679F4126F8B900164E022
:102D2E00B403097BFF7A2679F7126F8B900164E06A
:102D3E00B402097BFF7A2679F9126F8B7BFF7A2614
:102D4E0079FB126F8B900164E0FF1272047BFF7AA5
:092D5E00277906126F8B127494A0
:012D67002249
:105FA30090026EE4F0A37440F0E490026DF090026E
:105FB3006DE0C39410503790026DE025E024C9F5DD
:105FC30082E43401F583E0FEA3E0FF90026EE0FC7F
:105FD300A3E0FDD3EF9DEE9C400CE025E0F09002A2
:105FE3006EE033F080D190026DE004F080C0127453
:105FF3009490026EE0C4F854F0C868FFA3E0C45460
:106003000F48A3CFF0A3EFF07BFF7A277908126F35
:106013008B127494E490026CF090026CE0C39410C1
:1060230040030260B77F7C127489E490026DF090A4
:10603300026DE0C39410505BE025E024C9F582E4CF
:106043003401F583E0FEA3E0FF90026EE0FCA3E0E1
:10605300FDD3EF9DEE9C40077F58127489802C90EE
:10606300026CE0B40F20A3E025E024C9F582E434F8
:1060730001F583E0FEA3E0D39400EE940040077F94
:106083006E12748980057F2012748990026DE0047A
:10609300F0809C127494900270E0FEA3E0FFC39022
:1060A300026FE09FF090026EE09EF090026CE004BD
:1060B300F002601CE490026DF090026DE0C3941155
:1060C300500D7F2D12748990026DE004F080EA1266
:0260D3007494C3
:0160D50022A8
:106AEA006175746F707A206368616E3A2000207352
:106AFA0063616E733A2000206D65616E3A20002052
:106B0A00707A3A2000204E6F2066697420706F7385
:106B1A007369626C652120707A2073657420746FC2
:106B2A003A20006175746F707A3A20736574207226
:106B3A0063206368616E3A200020746F2076616C6E
:106B4A003A20002C20707A5F756E643A20006175D5
:106B5A00746F707A3A20736574206368616E3A20A4
:096B6A00000040201008040201A3
:0B7489008F99E59830E1FB5398FD223D
:0B7494007F0D1274897F0A1274892298
:106FDD00EF75F064841247DE12474375F064A4FE2A
:106FED00C3EF9E75F00A849000011247F0900001E6
:106FFD0012475C75F00AA4FE12474375F064A4FDB8
:10700D00C3EF9DC39E9000021247F0743012478962
:10701D0090000174301247AB90000274301247ABF0
:01702D002240
:105CE400900270EEF0A3EFF0A3EBF0A3EAF0A3E9C7
:105CF400F0900270E0FEA3E0FF7C277D10124824A0
:105D0400A3E0FBA3E0FAA3E0F9EF1247DE900272EE
:105D1400E0FBA3E0FAA3E0F9124743FF7E007C27EF
:105D24007D10124812C3900271E09FFF900270E050
:105D34009E900166F0A3EFF0900166E0FEA3E0FF01
:105D44007C037DE8124824900272E0A3E0A3E09073
:105D54000001EF1247F0900272E0FBA3E0FAA3E027
:105D6400F990000112475CFF7E007C037DE8124835
:105D740012C3900167E09FF0900166E09EF0E0FEA0
:105D8400A3E0FF7C007D64124824900272E0A3E04B
:105D9400A3E0900002EF1247F0900272E0FBA3E050
:105DA400FAA3E0F990000212475C75F064A4FFAE18
:105DB400F0C3900167E09FF0900166E09EF0E0FE82
:105DC400A3E0FF7C007D0A124824900272E0A3E065
:105DD400A3E0900003EF1247F0900272E0FBA3E00F
:105DE400FAA3E0F990000312475C75F00AA4FFAE31
:105DF400F0C3900167E09FF0900166E09EF0E0A39D
:105E0400E0FF900272E0A3E0A3E0900004EF1247E9
:105E1400F0900272E0FBA3E0FAA3E0F974301247B9
:105E240089900272E0A3E0A3E0900001743012476D
:105E3400AB900272E0FBA3E0FAA3E0F990000274D5
:105E4400301247AB900272E0FBA3E0FAA3E0F990B2
:105E5400000374301247AB900272E0FBA3E0FAA394
:0B5E6400E0F990000474301247AB22FC
:1070C100EF540FFEC394004011EED39409500BEE20
:1070D10024309000011247F08009EE24379000011E
:1070E1001247F0EF54F0FFC4540FFEC39400400D5B
:1070F100EED394095007EE24301247DE22EE2437F6
:037101001247DE54
:017104002268
:107204007B017A017968126FDD900168E0D39430D4
:107214004005E0FF127489900168E0D39430500671
:10722400A3E094304008900169E0FF127489900152
:077234006AE0FF12748922D9
:106BEC007B017A017968125CE4900168E0D39430FF
:106BFC004005E0FF127489900168E0D39430500690
:106C0C00A3E094304008900169E0FF127489900170
:106C1C0068E0D39430500CA3E094305006A3E09479
:106C2C0030400890016AE0FF127489900168E0D34B
:106C3C0094305012A3E09430500CA3E094305006E2
:106C4C00A3E09430400890016BE0FF12748990012E
:076C5C006CE0FF12748922B5
:10673600E4FF124743D3942F4011124743C3943AC0
:10674600500912474324D0C454F0FF124743D39450
:10675600404011124743C39447500912474324C986
:10676600C454F0FF124743D394604011124743C309
:106776009467500912474324A9C454F0FF900001BE
:1067860012475CD3942F401590000112475CC394C6
:106796003A500A90000112475C24D02FFF90000166
:1067A60012475CD39440401590000112475CC39495
:1067B60047500A90000112475C24C92FFF90000140
:1067C60012475CD39460401590000112475CC39455
:0D67D60067500A90000112475C24A92FFFB4
:0167E3002293
:1073E5007B017A0179F11270C19001F1E0FF12740D
:0873F50089A3E0FF1274892254
:106CDA00E4FFEFC39404502590017AE0FE74762F06
:106CEA00F582E43401F583EEF09001B2E0FE74AE71
:106CFA002FF582E43401F583EEF00F80D5E4FFEF3F
:106D0A00C39410502D90019BE0FCA3E0FDEF25E019
:106D1A00247BF582E43401F583ECF0A3EDF09001D5
:106D2A00ADE0FE749D2FF582E43401F583EEF00F99
:0F6D3A0080CD90025E7401F0E49001EEF0A3F0C2
:016D49002227
:1060D60090100FE0FE5420900258F0E0D394004058
:1060E6000890015A7401F0800A90015AE0B4010345
:1060F6007402F0EE30E6089001517402F0800A90C6
:106106000151E0B402037401F0EE30E44090012A3C
:10611600E0700C7402F0E4900203F0A3F0805ED30A
:10612600900204E094C8900203E09400404F90016E
:10613600637401F0901011F0900208F0E49001539E
:10614600F0900162F09001EBF0A3F0803090012A0C
:10615600E0B4022990015AE0B4010A126CDAE49024
:10616600012AF08018900208E0B4010BE490012A9D
:10617600F0900208F0800690012A7401F090100E4B
:10618600E0FF9001FAE0B5070CA3E0C394055005C3
:10619600E004F08005E49001FBF09001FBE0B4051B
:1061A600089001FAE09001FCF090100EE09001FAE0
:1061B600F090100FE0540FFF900200E0B5070CA31B
:1061C600E0C394055005E004F08005E4900201F078
:1061D600900201E0B40508900200E0900202F090FF
:0961E600100FE0540F900200F0CC
:0161EF00228D
:102D6800E490026CF0A3F09001B5E0FF1313543F18
:102D780090026EF09001B7E0703A9001FCE0FF908D
:102D880001B5E06F602E9001FCE090100EF090010C
:102D9800FC9001B5F090025E7401F0E49001EEF051
:102DA800A3F01265C2E49001E9F0900174F090017B
:102DB800FEF0A3F09001B7E07064900151E0640167
:102DC800705CF09001B6E0B4013590026EE024AE7C
:102DD800F582E43401F583E004F090026EE024AE5D
:102DE800F582E43401F583E0B4040F90026EE02428
:102DF800AEF582E43401F583E4F01267E4800F90C5
:102E080001B2E004F0E0B40402E4F01269C812650B
:102E1800C290025E7401F0E49001EEF0A3F090011C
:102E2800B7E0705D90012AE064017055F09001638D
:102E3800E06023E4F09001BEE06005E4901011F03A
:102E48009001FDE054DFF0E090100DF09001B5E046
:102E580090100EF0802B9001B6E0700C04F0E49016
:102E6800015AF0126A5B800CE49001B6F090015AA6
:102E7800F0126D4A90025E7401F0E49001EEF0A346
:102E8800F09001B7E0703B90017AE0FF900202E019
:102E98006F602FE090017AF09001B6E06014900224
:102EA80002E0FF90026EE02476F582E43401F583B7
:102EB800EFF012547490025E7401F0E49001EEF0A9
:102EC800A3F09001B7E060030232839001B6E0B44A
:102ED80001089001B5E090026FF09001B6E070062D
:102EE80090026F7410F0900156E0FEA3E0FF90018D
:102EF80054E06E7003A3E06F7003022FC690015474
:102F0800E0FFA3E0A3CFF0A3EFF0900156E0C4F8F0
:102F180054F0C868FEA3E0C4540F48FF90026FE065
:102F2800249DF582E43401F583E0FDD3EF9DEE9412
:102F380000403090026FE0249DF582E43401F5836F
:102F4800E075F010A4FFC3900157E09FFF90015671
:102F5800E095F0FED3EF9403EE9400400690026CE7
:102F68007401F0900156E0C4F854F0C868FEA3E07C
:102F7800C4540F48FF90026FE0249DF582E43401A9
:102F8800F583E0FDC3EF9DEE9400503290026FE0B0
:102F9800249DF582E43401F583E075F010A4FF90D8
:102FA8000156E0FCA3E0FDC3EF9DFFE5F09CFED3D6
:102FB800EF9403EE9400400690026C7401F09001C7
:102FC80004E0FEA3E0FF900102E06E7003A3E06F4F
:102FD80070030230BA900102E0FFA3E0A3CFF0A390
:102FE800EFF0900104E0C4F854F0C868FEA3E0C410
:102FF800540F48FF90026FE025E0247BF582E4340B
:1030080001F583E0FCA3E0C39FEC9E503C90026F67
:10301800E025E0247BF582E43401F583E0FEA3E0BB
:10302800C4F8540FC868FFEEC454F048FEC39001BA
:1030380005E09FFF900104E09EFED3EF9403EE9419
:1030480000400690026D7401F0900104E0C4F85449
:10305800F0C868FEA3E0C4540F48FF90026FE02553
:10306800E0247BF582E43401F583E0FCA3E0D39F00
:10307800EC9E403E90026FE025E0247BF582E4342C
:1030880001F583E0FEA3E0C4F8540FC868FFEEC45E
:1030980054F048FE900104E0FCA3E0FDC3EF9DFF5F
:1030A800EE9CFED3EF9403EE9400400690026D74FC
:1030B80001F090026CE0640160030231699001B68E
:1030C800E06401705D90015AE0D39400405490018F
:1030D80056E0C4F854F0C868A3E0C4540F489001FF
:1030E800ADF0900156E0C4F854F0C868A3E0C454A9
:1030F8000F48FF9001B5E0249DF582E43401F58383
:10310800EFF09001B5E0FF249DF582E43401F583EA
:10311800E0FD126DB890025E7401F0E49001EEF0EB
:10312800A3F09001B6E07026900156E0C4F854F080
:10313800C868A3E0C4540F489001ADF0E0FF1272D4
:10314800A590025E7401F0E49001EEF0A3F0E49023
:1031580001E9F0900174F09001FEF0A3F090026C88
:10316800F090026DE0640160030232299001B6E03C
:103178006401707190015AE0D39400406890010492
:10318800E0C4F854F0C868FFA3E0C4540F489001A5
:103198009BCFF0A3EFF0900104E0C4F854F0C868A6
:1031A800FEA3E0C4540F48FF90026FE025E0247BA3
:1031B800F582E43401F583EEF0A3EFF090026FE0BE
:1031C80025E0247BF582E43401F583E0FCA3E0FDEF
:1031D80090026FE0FF126E8990025E7401F0E49035
:1031E80001EEF0A3F09001B6E07031900104E0C464
:1031F800F854F0C868FFA3E0C4540F4890019BCF6F
:10320800F0A3EFF090019BE0FEA3E0FF12733D9066
:10321800025E7401F0E49001EEF0A3F0E490026D18
:10322800F0900100E060549001B6E0704E9001000B
:10323800F0900104E0C4F854F0C868FFA3E0C45457
:103248000F4890019BCFF0A3EFF090019BE0FEA305
:10325800E0FF12733D900156E0C4F854F0C868A32B
:10326800E0C4540F489001ADF0E0FF1272A590023F
:103278005E7401F0E49001EEF0A3F09001B7E06015
:103288001C90015AE0640260030233589001B7F0C1
:1032980090025D04F0E490015AF002335890015A0C
:1032A800E0640260030233589001B6E064016003F1
:1032B800023358900202E0FF90026EE02476F58215
:1032C800E43401F583EFF0125474900156E0C4F829
:1032D80054F0C868A3E0C4540F48FF9001B5E02437
:1032E8009DF582E43401F583EFF09001B5E0FF2409
:1032F8009DF582E43401F583E0FD126DB890010478
:10330800E0C4F854F0C868FEA3E0C4540F48FF9026
:1033180001B5E025E0247BF582E43401F583EEF085
:10332800A3EFF09001B5E025E0247BF582E43401B9
:10333800F583E0FCA3E0FD90026FE0FF126E89E4E4
:1033480090015AF090025E04F0E49001EEF0A3F0D0
:10335800900163E060159001C8E0C39450400C9060
:1033680001FDE06420F0E49001C8F09001FDE03038
:10337800E01C9001C5E0C394144013900163E07011
:0E3388000D9001B7E070079001FDE054FEF0DB
:013396002214
:104D83009001077405F0A314F0901012E09001F560
:104D9300F0901013E09001F6F0901014E09001F7FA
:104DA300F07F4A7E001273ADAD079001F5E0700805
:104DB300EFB40304E04420F0ED30E2079001F5E0A6
:104DC3004440F0E49001F0F09001647404F0900129
:104DD30064E0D394004027E0245AF582E43401F5DB
:104DE300837470F0900164E0245AF582E43401F591
:104DF30083E090100BF0900164E014F080D0E49015
:104E03000164F0900164E0C394205014E02409F598
:104E130082E43401F583E4F0900164E004F080E37C
:104E23009002591249DF00000000E49001E9F0907C
:104E33000174F09001FEF0A3F0900152F090015143
:104E4300F090012AF0900258F090015AF09001B7C7
:104E5300F090025DF0900164F0900164E0C394056A
:104E63005041E024AEF582E43401F583E4F090018F
:104E730064E02476F582E43401F583E4F090016480
:104E8300E02442F582E43402F583E4F0900164E027
:104E9300240AF582E43402F583E4F0900164E0042B
:104EA300F080B69001B37402F0A314F090024704AB
:104EB300F0A314F0E49001EDF0900106F0900209E4
:104EC300F01269C8E4900164F0900164E0C39411A6
:104ED300504FE025E0247BF582E43401F583E4F0D0
:104EE300A37480F0900164E0249DF582E43401F51D
:104EF300837480F0900164E025E0240FF582E434AC
:104F030002F583E4F0A37480F0900164E02431F5AA
:104F130082E43402F5837480F0900164E004F0804D
:104F2300A8E4900164F0900164E0C394105018E089
:104F330025E024C9F582E43401F583E4F0A3F0907D
:104F43000164E004F080DFE49001FDF0900200F0E2
:104F5300A3F0A3F09001FAF0A3F0A3F09001B5043D
:104F6300F0900249F090015FF0E4900163F0900249
:104F730008F0900129F0900153F0900162F0900144
:104F8300EBF0A3F09001B6F090024AF09001B874F0
:104F930080F0A37419F09001F7E0C39405404A90A0
:104FA30001F5E020E743901015E030E2089001BEE0
:104FB3007401F08005E49001BEF09002527401F098
:104FC300901015E030E3089001C27401F08005E40D
:104FD3009001C2F09002567401F0901015E0540352
:104FE3009001C3F0E4900257F09001BA7480F0A3EB
:104FF3007464F0A3745FF0A37464F09001BF745DF4
:10500300F0A3740AF0900254F09001C17410F09070
:105013000255F0E49001C8F09001C5F0900160F0F2
:105023009001EEF0A3F090025EF0900154F0A3F033
:10503300A3F0A3F0900102F0A3F0A3F0A3F090017A
:1050430001F012738B9001007401F0E49001F4F00D
:065053001260D6122D6868
:015059002234
:105E6F00E49001B7F0900164F0900164E0C39405F1
:105E7F005041E024AEF582E43401F583E4F0900163
:105E8F0064E02476F582E43401F583E4F090016454
:105E9F00E02442F582E43402F583E4F0900164E0FB
:105EAF00240AF582E43402F583E4F0900164E004FF
:105EBF00F080B6E4900164F0900164E0C394115057
:105ECF004FE025E0247BF582E43401F583E4F0A371
:105EDF007480F0900164E0249DF582E43401F58331
:105EEF007480F0900164E025E0240FF582E4340221
:105EFF00F583E4F0A37480F0900164E02431F5821F
:105F0F00E43402F5837480F0900164E004F080A81B
:105F1F009001B37402F0A314F090024704F0A3149D
:105F2F00F09001B5F0900249F0E49001B6F09002C4
:105F3F004AF09001B87480F0A37419F0900150E00A
:105F4F00600E9001BA7480F09001BCF09001BFF028
:105F5F009001BB7464F09001BDF0A37401F0900147
:105F6F00C0740AF0900254F09001C17410F09002C6
:105F7F0055F012692C9001BEE0900252F09001C2D0
:105F8F00E0900256F09001C3E0900257F012738B2D
:045F9F00126D4A2213
:104A36009002591249DF0000000090012B1249DF55
:104A4600000000009002781249DF0000000090028A
:104A5600701249DF000000009002741249DF000066
:104A66000000900174E0FFE4FCFDFE900270E0F8A7
:104A7600A3E0F9A3E0FAA3E0FBC31249C240030294
:104A86004CA6900270E0A3E0A3E0A3E02430F582F8
:104A9600E43401F583E0C394FF4003024C7E9002A8
:104AA60070E0A3E0A3E0A3E02430F582E43401F54E
:104AB60083E0C454F0FA900270E0A3E0A3E0A3E020
:104AC600242FF582E43401F583E075F010A4240068
:104AD600FFE5F03AFEE4FCFD9002781249D3E4FFCC
:104AE6007E80FDFC900278E0F8A3E0F9A3E0FAA34B
:104AF600E0FBC31249C25003024B85900278E0FCEA
:104B0600A3E0FDA3E0FEA3E02400FFEE3480FEED6B
:104B160034FFFDEC34FFFC9002781249D390027802
:104B2600E0FCA3E0FDA3E0FEA3E0FFC006C0079003
:104B36000270E0A3E0A3E0A3E0240AF582E43401D6
:104B4600F583E02401FFE433FEAB07FAE4F9F8D07D
:104B560007D0061249309002781249D3900278E0C5
:104B6600FCA3E0FDA3E0FEA3E02400FFEE3480FEFC
:104B7600E43DFDE43CFC9002781249D3024C0890D7
:104B86000278E0F8A3E0F9A3E0FAA3E0FBC3E49B14
:104B9600FF74809AFEE499FDE498FC90027812492D
:104BA600D3900278E0FCA3E0FDA3E0FEA3E0FFC003
:104BB60006C007900270E0A3E0A3E0A3E0240AF594
:104BC60082E43401F583E02401FFE433FEAB07FA07
:104BD600E4F9F8D007D0061249309002781249D38A
:104BE600900278E0F8A3E0F9A3E0FAA3E0FBC3E4BF
:104BF6009BFF74809AFEE499FDE498FC900278127B
:104C060049D390012BE0FCA3E0FDA3E0FEA3E0FF67
:104C1600900278E0F8A3E0F9A3E0FAA3E0FBEF2B1B
:104C2600FFEE3AFEED39FDEC38FC90012B1249D32C
:104C3600900270E0FCA3E0FDA3E0FEA3E0FFE4FA2F
:104C4600F9F8EF2401FFEA3EFEE93DFDE83CFC9061
:104C560002701249D3900274E0FCA3E0FDA3E0FECB
:104C6600A3E0FFE4F8EF2401FFEA3EFEE93DFDE89C
:104C76003CFC9002741249D3900270E0FCA3E0FD64
:104C8600A3E0FEA3E0FFE4FAF9F8EF2401FFEA3E11
:104C9600FEE93DFDE83CFC9002701249D3024A68E9
:104CA600E4FFFEFDFC900274E0F8A3E0F9A3E0FA4D
:104CB600A3E0FBD31249C24041900274E0F8A3E09E
:104CC600A3E0A3E090012BE0FCA3E0FDA3E0FEA39C
:104CD600E0FF1249309002591249D3900259E0FC84
:104CE600A3E0FDA3E0FEA3E0FFE47B10FAF9F812CF
:104CF60049309002591249D3800A9002591249DF6D
:104D060000000000900152E0D39400406FE0540F81
:104D1600FFE4F0EF25E024C9F582E43401F583E4ED
:104D260075F001124879EF25E024C9F582E43401D3
:104D3600F583E0FCA3E04C7043EF25E024C9F5823F
:104D4600E43401F58374FFF5F0124879E4FDEDC310
:104D560094105028ED25E024C9F582E43401F5834A
:104D6600C083C082E0FEA3E0FFEEC313FEEF13FF95
:0C4D7600D082D083EEF0A3EFF00D80D2CD
:014D8200220E
:1064FE009001FDE04406F0900160E0C39428400A4C
:10650E009001FDE054F9F00265B9900150E060464B
:10651E00E47F017E08FDFC900259E0F8A3E0F9A3A8
:10652E00E0FAA3E0FBD31249C240079001FDE0540C
:10653E00FDF0E47FFF7E07FDFC900259E0F8A3E03A
:10654E00F9A3E0FAA3E0FBC31249C2505E9001FD2D
:10655E00E054FBF080559001C1E02400FFE43408C4
:10656E00FEE4FCFD900259E0F8A3E0F9A3E0FAA3E3
:10657E00E0FBD31249C240079001FDE054FDF090BC
:10658E0001C1E0FFC3E49FFF74089400FEE4FCFD2C
:10659E00900259E0F8A3E0F9A3E0FAA3E0FBC312DE
:1065AE0049C250079001FDE054FBF09001FDE090D0
:0465BE00100DF022AA
:0539BE00900267EFF02C
:1039C3007BFF7A6B796B78687C027D017E007F08D0
:1039D30012471D124A36900174E07014900153741B
:1039E30008F09001ECE004F070069001EBE004F0C5
:1039F300900153E0703E900267E090100EF090014A
:103A0300ECE004F070069001EBE004F09001B7E005
:103A13006012900267E02431F582E43402F5837486
:103A230080F08010900267E0249DF582E43401F574
:103A3300837480F0900153E0D394005003023B223F
:103A4300E094084003023B22E47FFF7E07FDFC90E5
:103A53000259E0F8A3E0F9A3E0FAA3E0FB1249C29C
:103A6300405C9001B7E0602C900267E02431F5825E
:103A7300E43402F583C083C082E0FF900153E02465
:103A830068F582E43402F583E0FEC3EF9ED082D072
:103A930083F0802A900267E0249DF582E43401F5E7
:103AA30083C083C082E0FF900153E02468F582E481
:103AB3003402F583E0FEC3EF9ED082D083F0E47F2F
:103AC300FF7E07FDFC900259E0F8A3E0F9A3E0FABA
:103AD300A3E0FBC31249C250469001B7E0602190B6
:103AE3000153E02468F582E43402F583E0FF900299
:103AF30067E02431F582E43402F583E02FF0801F80
:103B0300900153E02468F582E43402F583E0FF90EA
:103B13000267E0249DF582E43401F583E02FF09001
:103B23000153E064086003023D5F9001EBE0FEA3F4
:103B3300E0FF7C007DC8124812E42FFFEE3408FE3C
:103B4300E4FD900259E0F8A3E0F9A3E0FAA3E0FB57
:103B5300C31249C24003023BFE9001EBE0FEA3E027
:103B6300FF7C007DC8124812C3E49FFF74089EFEC9
:103B7300E4FD900259E0F8A3E0A3E0A3E0D31249E7
:103B8300C240787BFF7A6A79EA126F8B900267E012
:103B930004FF1272047BFF7A6A79F8126F8B90012B
:103BA300EBE0A3E0FF1272047BFF7A6B7901126FE3
:103BB3008B900259E0A3E0A3E0FEA3E0FF126BECBD
:103BC3007BFF7A6B7909126F8B9001B7E0601490D9
:103BD3000267E02431F582E43402F583E0FF1272D8
:103BE300048012900267E0249DF582E43401F5839A
:103BF300E0FF127204127494023CC6C39001ECE01D
:103C0300940A9001EBE094005047E4900153F09044
:103C130001B7E06015900267E0FF2431F582E434D8
:103C230002F583E0FD126DB88013900267E0FF2474
:103C33009DF582E43401F583E0FD126DB8E4900153
:103C430074F09001FEF0A3F09001E9F09001F9F017
:103C5300229001B7E06012900267E02431F582E41C
:103C63003402F5837480F08010900267E0249DF5A0
:103C730082E43401F5837480F07BFF7A6A79EA1277
:103C83006F8B900267E004FF1272047BFF7A6B79FB
:103C93000F126F8B9001B7E06014900267E024313C
:103CA300F582E43402F583E0FF127204801290027D
:103CB30067E0249DF582E43401F583E0FF1272048A
:103CC300127494900162E0C3940F501E900129E096
:103CD3007018900162E004F01265C290015374FF02
:103CE300F0E49001EBF0A3F08072E4900163F090B4
:103CF30001BEE06005E4901011F0E4900162F090E1
:103D03000153F09001FDE054DFF0E090100DF090CE
:103D130001B7E0601E9001657401F0900249E090E4
:103D2300100EF090024AE06005126A5B8021126D6A
:103D33004A801C90025E7401F09001B5E090100E71
:103D4300F09001B6E06005126A5B8003126D4AE4ED
:103D53009001EEF0A3F012749412718B9001B7E00E
:103D6300606B900267E0FF2431F582E43402F5834F
:103D7300E0FD126DB8900150E07003023E187BFF26
:103D83007A6B792D126F8B900267E0FF1272047BBE
:103D9300FF7A6B7943126F8B900267E02431F582CF
:103DA300E43402F583E0FF127204900150E06018DE
:103DB3007BFF7A6B794D126F8B900259E0A3E0A3DE
:103DC300E0FEA3E0FF126BEC12749480489002674C
:103DD300E0FF249DF582E43401F583E0FD126DB824
:103DE300900150E0602F7BFF7A6B7958126F8B90B4
:103DF3000267E0FF1272047BFF7A6B7943126F8BC9
:103E0300900267E0249DF582E43401F583E0FF121C
:103E13007204127494E4900174F09001FEF0A3F024
:0E3E23009001E9F09001F9F0900153E004F0F5
:013E3100226E
:1017A8009001EDE06003021FA0E490026DF0A3F049
:1017B80090025EF07B0190026A04F0A37401F0A32A
:1017C8007476F0EFB40119A37401F0A3E4F0900269
:1017D8006A04F0A37402F0A3740AF0E4900165F0BF
:1017E800E4900267F0A3F0900267E0C39405506AA2
:1017F800E0FF90026EE02FFF90026DE03400FE12D1
:1018080073AD900269EFF0A3E0FBA3E0FAA3E0F95F
:10181800900268E0F58275830012475CFF900269C8
:10182800E06F602A900267E0FF90026EE02FFF9061
:10183800026DE03400FE90026AE0A3E0A3E09002AB
:1018480068E0F58275830012475CFD1273C9900247
:1018580067E004F0A3E004F0808D9002677405F05F
:10186800E4A3F0900267E0C394264003021979E0EC
:10187800FF90026EE02FFF90026DE03400FE1273BD
:10188800AD900269EFF0900267E0FF90026EE02FE2
:10189800FF90026DE03400CF2401CF3400FE1273B4
:1018A800ADAD0790026AE0FBA3E0FAA3E02405F9D6
:1018B800E43AFA900268E075F002A4F58285F083B4
:1018C80012488FFF900269E0B50722A3E0A3E0FA6F
:1018D800A3E02405F9E43AFA900268E075F002A45E
:1018E800F58285F08312488FE5F06D607490026A86
:1018F800E0FBA3E0FAA3E02405F9E43AFA900268D1
:10190800E075F002A4F58285F08312488FFD9002FD
:1019180067E0FF90026EE02FFF90026DE03400FE5A
:101928001273C990026AE0FBA3E0FAA3E02405F968
:10193800E43AFA900268E075F002A4F58285F08333
:1019480012488FE5F0FD900267E0FF90026EE02FED
:10195800FF90026DE03400CF2401CF3400FE1273F3
:10196800C9900267E004F0E004F0A3E004F0021874
:101978006B9002677427F0E4A3F0900267E0C394C9
:1019880038507AE0FF90026EE02FFF90026DE0344D
:1019980000FE1273AD900269EFF0A3E0FBA3E0FA3A
:1019A800A3E02427F9E43AFA900268E07E0029F9D6
:1019B800EE3AFA124743FF900269E06F60329002F4
:1019C80067E0FF90026EE02FFF90026DE03EFE9010
:1019D800026AE0A3E0FAA3E02427F9E43AFA9002C5
:1019E80068E07C0029F9EC3AFA124743FD1273C902
:1019F800900267E004F0A3E004F002198290026705
:101A08007438F0E4A3F0900267E0C3943D507AE0A4
:101A1800FF90026EE02FFF90026DE03400FE12731B
:101A2800AD900269EFF0A3E0FBA3E0FAA3E024384D
:101A3800F9E43AFA900268E07E0029F9EE3AFA12DF
:101A48004743FF900269E06F6032900267E0FF90C1
:101A5800026EE02FFF90026DE03EFE90026AE0A366
:101A6800E0FAA3E02438F9E43AFA900268E07C004E
:101A780029F9EC3AFA124743FD1273C9900267E05C
:101A880004F0A3E004F0021A0E900267743DF0E43B
:101A9800A3F0900267E0C3943F507AE0FF90026E93
:101AA800E02FFF90026DE03400FE1273AD900269E2
:101AB800EFF0A3E0FBA3E0FAA3E0243DF9E43AFA4F
:101AC800900268E07E0029F9EE3AFA124743FF9047
:101AD8000269E06F6032900267E0FF90026EE02FCB
:101AE800FF90026DE03EFE90026AE0A3E0FAA3E0F8
:101AF800243DF9E43AFA900268E07C0029F9EC3ACE
:101B0800FA124743FD1273C9900267E004F0A3E09C
:101B180004F0021A9A90026EE0243FFF90026DE0F2
:101B28003400FE1273AD900269EFF0A3E0FBA3E06E
:101B3800FAA3E0F990003F12475CFF900269E06F5A
:101B4800602090026EE0243FFF90026DE03400FEBA
:101B580090026AE0A3E0A3E090003F12475CFD1208
:101B680073C990026EE02440FF90026DE03400FEDD
:101B78001273AD900269EFF0A3E0FBA3E0FAA3E0D3
:101B8800F990004012475CFF900269E06F60209076
:101B9800026EE02440FF90026DE03400FE90026A7D
:101BA800E0A3E0A3E090004012475CFD1273C990E7
:101BB800026EE02441FF90026DE03400FE1273AD26
:101BC800900269EFF0A3E0FBA3E0FAA3E0F990002C
:101BD8004112475CFF900269E06F602090026EE05E
:101BE8002441FF90026DE03400FE90026AE0A3E019
:101BF800A3E090004112475CFD1273C990026EE0A9
:101C08002442FF90026DE03400FE1273AD90026929
:101C1800EFF0A3E0FBA3E0FAA3E0F990004212473B
:101C28005CFF900269E06F602090026EE02442FF42
:101C380090026DE03400FE90026AE0A3E0A3E09019
:101C4800004212475CFD1273C990026EE02443FF04
:101C580090026DE03400FE1273AD900269EFF0A3BC
:101C6800E0FBA3E0FAA3E0F990004312475CFF9081
:101C78000269E06F602090026EE02443FF90026DDD
:101C8800E03400FE90026AE0A3E0A3E09000431273
:101C9800475CFD1273C990026EE02444FF90026D08
:101CA800E03400FE1273AD900269EFF0A3E0FBA3ED
:101CB800E0FAA3E0F990004412475CFF900269E063
:101CC8006F602090026EE02444FF90026DE03400C3
:101CD800FE90026AE0A3E0A3E090004412475CFD96
:101CE8001273C990026EE02445FF90026DE0340043
:101CF800FE1273AD900269EFF0A3E0FBA3E0FAA334
:101D0800E0F990004512475CFF900269E06F60209F
:101D180090026EE02445FF90026DE03400FE9002D0
:101D28006AE0A3E0A3E090004512475CFD1273C986
:101D380090026EE02446FF90026DE03400FE1273BC
:101D4800AD900269EFF0A3E0FBA3E0FAA3E0F990FD
:101D5800004612475CFF900269E06F602090026EB7
:101D6800E02446FF90026DE03400FE90026AE0A392
:101D7800E0A3E090004612475CFD1273C990026E22
:101D8800E02447FF90026DE03400FE1273AD90022C
:101D980069EFF0A3E0FBA3E0FAA3E0F99000471293
:101DA800475CFF900269E06F602090026EE0244774
:101DB800FF90026DE03400FE90026AE0A3E0A3E029
:101DC80090004712475CFD1273C990026EE02448E8
:101DD800FF90026DE03400FE1273AD900269EFF0DF
:101DE800A3E0FBA3E0FAA3E0F990004812475CFFE8
:101DF800900269E06F602090026EE02448FF900234
:101E08006DE03400FE90026AE0A3E0A3E090004891
:101E180012475CFD1273C990026EE02449FF9002DC
:101E28006DE03400FE1273AD900269EFF0A3E0FBA1
:101E3800A3E0FAA3E0F990004912475CFF90026919
:101E4800E06F602090026EE02449FF90026DE0345C
:101E580000FE90026AE0A3E0A3E090004912475C0C
:101E6800FD1273C990026EE0244BFF90026DE034BE
:101E780000FE1273AD900269EFF0A3E0FBA3E0FA55
:101E8800A3E0F990004A12475CFF900269E06F6096
:101E98002090026EE0244BFF90026DE03400FE902B
:101EA800026AE0A3E0A3E090004A12475CFD1273C7
:101EB800C990026EE0244CFF90026DE03400FE12DF
:101EC80073AD900269EFF0A3E0FBA3E0FAA3E0F999
:101ED80090004B12475CFF900269E06F602090020F
:101EE8006EE0244CFF90026DE03400FE90026AE040
:101EF800A3E0A3E090004B12475CFD1273C9900267
:101F08006EE0244DFF90026DE03400FE1273AD9038
:101F18000269EFF0A3E0FBA3E0FAA3E0F990004C1C
:101F280012475CFF900269E06F602090026EE02427
:101F38004DFF90026DE03400FE90026AE0A3E0A33A
:101F4800E090004C12475CFD1273C990026EE024C9
:101F58004EFF90026DE03400FE1273AD900269EFFF
:101F6800F0A3E0FBA3E0FAA3E0F990004D12475C70
:101F7800FF900269E06F602090026EE0244EFF90AF
:101F8800026DE03400FE90026AE0A3E0A3E0900056
:081F98004D12475CFD1273C9F4
:011FA000221E
:10425C00E490026EF0A3F07B01A304F0A37401F0D0
:10426C00A37476F0EFB4011490026E7401F0A3E421
:10427C00F0A304F0A37402F0A3740AF0E490026CAF
:10428C00F0A3F090026CE0C394055036E0FF90026E
:10429C006FE02FFF90026EE03400FE1273AD9002BF
:1042AC0070E0FBA3E0FAA3E0F990026DE0F58275F3
:1042BC008300EF1247F090026CE004F0A3E004F0EE
:1042CC0080C190026C7405F0E4A3F090026CE0C322
:1042DC0094265072E0FF90026FE02FFF90026EE088
:1042EC003400CF2401CF3400FE1273ADEF7F00FEFB
:1042FC00C006C00790026CE0FF90026FE02FFF90A9
:10430C00026EE03400FE1273ADEFFDD0E02DFFD055
:10431C00E03400FE900270E0FBA3E0FAA3E0240579
:10432C00F9E43AFA90026DE075F002A4F58285F09A
:10433C0083EE8FF01248C790026CE004F0E004F0BA
:10434C00A3E004F0808590026C7427F0E4A3F09055
:10435C00026CE0C39438503DE0FF90026FE02FFFF9
:10436C0090026EE03400FE1273AD900270E0FBA37D
:10437C00E0FAA3E02427F9E43AFA90026DE07C001D
:10438C0029F9EC3AFAEF1247DE90026CE004F0A344
:10439C00E004F080BA90026C7438F0E4A3F0900260
:1043AC006CE0C3943D503DE0FF90026FE02FFF9016
:1043BC00026EE03400FE1273AD900270E0FBA3E0DD
:1043CC00FAA3E02438F9E43AFA90026DE07C002973
:1043DC00F9EC3AFAEF1247DE90026CE004F0A3E03D
:1043EC0004F080BA90026C743DF0E4A3F090026C7F
:1043FC00E0C3943F503DE0FF90026FE02FFF90022E
:10440C006EE03400FE1273AD900270E0FBA3E0FA94
:10441C00A3E0243DF9E43AFA90026DE07C0029F91E
:10442C00EC3AFAEF1247DE90026CE004F0A3E004E1
:10443C00F080BA90026FE0243FFF90026EE03400EF
:10444C00FE1273AD900270E0FBA3E0FAA3E0F990CA
:10445C00003FEF1247F090026FE02440FF90026E95
:10446C00E03400FE1273AD900270E0FBA3E0FAA3FF
:10447C00E0F9900040EF1247F090026FE02441FF0A
:10448C0090026EE03400FE1273AD900270E0FBA35C
:10449C00E0FAA3E0F9900041EF1247F090026FE0D0
:1044AC002442FF90026EE03400FE1273AD90027055
:1044BC00E0FBA3E0FAA3E0F9900042EF1247F09082
:1044CC00026FE02443FF90026EE03400FE1273ADE5
:1044DC00900270E0FBA3E0FAA3E0F9900043EF1226
:1044EC0047F090026FE02444FF90026EE03400FE2F
:1044FC001273AD900270E0FBA3E0FAA3E0F9900018
:10450C0044EF1247F090026FE02445FF90026EE0FA
:10451C003400FE1273AD900270E0FBA3E0FAA3E04E
:10452C00F9900045EF1247F090026FE02446FF909F
:10453C00026EE03400FE1273AD900270E0FBA3E05B
:10454C00FAA3E0F9900046EF1247F090026FE024D6
:10455C0047FF90026EE03400FE1273AD900270E0E3
:10456C00FBA3E0FAA3E0F9900047EF1247F09002AA
:10457C006FE02448FF90026EE03400FE1273AD90A1
:10458C000270E0FBA3E0FAA3E0F9900048EF1247B9
:10459C00F090026FE02449FF90026EE03400FE12AE
:1045AC0073AD900270E0FBA3E0FAA3E0F990004930
:1045BC00EF1247F090026FE0244BFF90026EE03454
:1045CC0000FE1273AD900270E0FBA3E0FAA3E0F9D9
:1045DC0090004AEF1247F090026FE0244CFF9002DB
:1045EC006EE03400FE1273AD900270E0FBA3E0FAB3
:1045FC00A3E0F990004BEF1247F090026FE0244DCE
:10460C00FF90026EE03400FE1273AD900270E0FB7E
:10461C00A3E0FAA3E0F990004CEF1247F090026F80
:10462C00E0244EFF90026EE03400FE1273AD900257
:10463C0070E0FBA3E0FAA3E0F990004DEF1247F015
:01464C00224B
:1059B000EF6003025A55FEEEC39405503374762E01
:1059C000F582E43401F583E0FD740A2EF582E434B7
:1059D00002F583EDF074AE2EF582E43401F583E038
:1059E000FD74422EF582E43402F583EDF00E80C79B
:1059F000E4FEEEC39411503DEE25E0247BF582E4F5
:105A00003401F583E0FCA3E0FDEE25E0240FF582F0
:105A1000E43402F583ECF0A3EDF0749D2EF582E4FE
:105A20003401F583E0FD74312EF582E43402F58310
:105A3000EDF00E80BD9001B5E0900249F09001BEFE
:105A4000E0900252F09001C2E0900256F09001C343
