:03000B00020003ED
:03000300053D3286
:030023000216F8CA
:0D16F800C0E0C083C082C0D075D000C00724
:10170500E59830E0715398FEAF9974002530F58265
:10171500E43400F583EFF0753700640D703A752FEA
:101725000174002530F582E43400F5837420F074EB
:10173500012530F582E43400F583E4F0E5266026E2
:10174500E59830E1FB5398FD75990AE59830E1FB82
:101755005398FD75990D800EE526600AE59830E1F0
:10176500FB5398FD8F99E530D394FF50020530BFA8
:06177500080415301530D8
:0B177B00D007D0D0D082D083D0E03265
:1014D600758F1F438E0C75C834E4F5C97598507521
:1014E600878075A89275CBFF75CADE759B1E753908
:1014F6007E759A7E5398FDF530F52F7400252FF5ED
:1015060082E43400F583E4F0052FE52FB4FFECE424
:10151600F52FF523F531752601753A01F5377599DD
:101526000A90800393FE908002E4937C002400F5E9
:101536003CEC3EF53BE53CB4FF10E53BB4FF0BE469
:10154600F53BF53CF53EF53F8015908001E493FEB2
:10155600908000E4937C002400F53FEC3EF53E903D
:101566008004E493F539E539F4600585399A8003FA
:1015760075397EE53C453B600312180AE52F60038A
:0815860012002612194180F445
:10000E00E5376006901008EFF022E59830E1FB53DB
:05001E0098FD8F9922FE
:061BC7008B0A8A0B890C59
:101BCD00121C76AE07E4FDEDC39E5015AB0AAA0BB1
:101BDD00A90C8D82758300120E58FF12000E0D8018
:011BED00E611
:011BEE0022D4
:0A1CCA007F0A12000E7F0D02000ECB
:101A9500EF75F06484120EDA120E3F75F064A4FE41
:101AA500C3EF9EFE75F00A84900001120EEC9000C3
:101AB50001120E5875F00AA4FDC3EE9D90000212A6
:101AC5000EEC7430120E859000017430120EA79042
:071AD50000027430020EA7AD
:10132C008E0B8F0C8B0D8A0E890F7C277D10120F64
:10133C0020EF120EDAAB0DAA0EA90F120E3FFF7E94
:10134C00007C277D10120F0EC3E50C9FF529E50BD1
:10135C009EF528FEAF297C037DE8120F209000013A
:10136C00EF120EEC900001120E58FF7E007C037DF4
:10137C00E8120F0EC3E5299FF529E5289EF528FEF6
:10138C00AF297C007D64120F20AB0DAA0EA90F9023
:10139C000002EF120EEC900002120E5875F064A4CD
:1013AC00FFAEF0C3E5299FF529E5289EF528FEAF91
:1013BC00297C007D0A120F20AB0DAA0EA90F9000FC
:1013CC0003EF120EEC900003120E5875F00AA4FFF6
:1013DC00AEF0C3E5299FF529E5289EF52890000479
:1013EC00E529120EEC7430120E85AB0DAA0EA90F66
:1013FC009000017430120EA79000027430120EA7E8
:10140C009000037430120EA79000047430020EA7E3
:101ADC00EF540FFEC39400400BEED394095005EE67
:101AEC0024308003EE2437900001120EECEF54F0FA
:101AFC00C4540FFEC39400400BEED394095005EE72
:0A1B0C0024308003EE2437120EDAB5
:011B160022AC
:101C8B007B007A007932121ADCAF3212000EAF33BE
:031C9B0002000E36
:101B47007B007A00792A121A95E52AD3943040054A
:101B5700AF2A12000EE52AD394305006E52B9430B5
:0C1B67004005AF2B12000EAF2C02000E48
:1018DF007B007A00792A12132CE52AD39430400525
:1018EF00AF2A12000EE52AD394305006E52B943020
:1018FF004005AF2B12000EE52AD39430500CE52B88
:10190F0094305006E52C94304005AF2C12000EE5B4
:10191F002AD394305012E52B9430500CE52C943090
:10192F005006E52D94304005AF2D12000EAF2E025C
:02193F00000E98
:10178600E4FF120E3FFED3942F400AEE943A500522
:10179600EE24D08024120E3FFED39440400AEE94ED
:1017A600475005EE24C98011120E3FFED3946040C7
:1017B6000CEE94675007EE24A9C454F0FF90000184
:1017C600120E58FED3942F400CEE943A5007EE2496
:1017D600D02FFF802E900001120E58FED394404069
:1017E6000CEE94475007EE24C92FFF801690000197
:1017F600120E58FED39460400AEE94675005EE240C
:03180600A92FFF08
:0118090022BC
:1019F60053050FED25E0FDEB30E7010DEF700543D4
:101A0600054080034305C0EB25E0FBC290C293E48A
:101A1600FFED30E704D2958002C295D290ED25E025
:101A2600FDC2900FBF08EAE4FFEB30E704D29580D1
:101A360002C295D290EB25E0FBC2900FBF08EAD216
:011A4600930C
:011A4700227C
:101A4800C290C292E4FEFDD291FFFC7801EF0880BB
:101A58000123D8FDFFD290C2903091050FD2978014
:101A680002C2970CBC08E4AE07E4FFFC7801EF085B
:101A7800800123D8FDFFD290C2903091050FD297F4
:0C1A88008002C2970CBC08E4D292C2900D
:011A9400222F
:0E1CB000E4F53DD28CE53DC39F40FAC28C2284
:021C16008D0B34
:101C1800A2AF9200C2AF8E838F827402121C9EE51F
:0F1C28000B43A220121CA053A2DFA20092AFFF19
:011C3700228A
:10194100901009E020E158753701901008E0FE740D
:10195100002530F582E43400F583EEF0BE0D2775E5
:101961002F0174002530F582E43400F5837420F0F2
:1019710074012530F582E43400F583E4F07F0A1226
:10198100000E7F0D8006E5266005AF0612000EE50C
:0F19910030D394FF50020530BE080415301530D6
:0119A0002224
:0A1CD400E4F53DC28CF589D2A92287
:1008200042617564726174652073657420746F2011
:10083000392C36206B4264004261756472617465C4
:100840002073657420746F2031392C326B42640040
:1008500042617564726174652073657420746F20E1
:1008600033382C34206B42640042617564726174C9
:10087000652073657420746F2035372C36206B42E9
:1008800064004261756472617465207365742074DC
:100890006F203131352C32206B4264004261756427
:1008A000726174652073657474696E672073617614
:1008B0006564003A20004D52432D31202F204D52C7
:1008C000434320636F6D6D616E64206C697374695E
:1008D0006E670062203D20627573206E756D6265E3
:1008E000722C2061203D2064657669636520616417
:1008F00064726573732C206D203D206D656D6F7281
:100900007920616464726573732C2076203D2076B3
:10091000616C756500424478783A09097365742002
:10092000426175647261746520287878203D2039B1
:100930002C2031392C2033382C2035372C203131E4
:1009400035290042533A0909736176652042617581
:10095000647261746500434C3A200909636C6561F7
:100960007220736372697074206D656D6F727900A7
:100970004350206220613A200909636F7079206D2D
:100980006972726F72206D656D6F727920746F205D
:10099000616374697665206D656D6F7279004C498D
:1009A0003A09096C69737420736372697074206DFD
:1009B000656D6F7279004F4E206220613A200909FF
:1009C0007377697463682072656D6F746520636FF7
:1009D0006E74726F6C206F6E004F4646206220610D
:1009E0003A20097377697463682072656D6F746566
:1009F00020636F6E74726F6C206F66660050533A9E
:100A00000909706572666F726D2073637269707424
:100A1000202D206578656375746520736176656443
:100A200020636F6D6D616E64206C69737400524554
:100A300020622061206D3A09726561642076616CE4
:100A400075652066726F6D20616374697665206DCF
:100A5000656D6F727900524D20622061206D3A09F8
:100A6000726561642076616C75652066726F6D20B9
:100A70006D6972726F72206D656D6F72790052537D
:100A800054206220613A09097265736574206465B7
:100A90007669636520616464726573732061206F99
:100AA0006E2062757320620052313A0909737769CA
:100AB00074636820636D64207265636F7264696E2D
:100AC00067206F6E0052303A090973776974636862
:100AD00020636D64207265636F7264696E67206F56
:100AE000666600534320623A09097363616E2062AF
:100AF000757320666F7220636F6E6E6563746564D4
:100B0000206465766963652049447300534520621B
:100B10002061206D20763A097365742076616C75CA
:100B20006520617420616374697665206D656D6F01
:100B3000727900534D20622061206D20763A09734E
:100B400065742076616C7565206174206D697272C0
:100B50006F72206D656D6F7279005741206E3A0992
:100B6000097761697420666F72206E206D7365630A
:100B70006F6E6473206265666F7265206E6578744F
:100B800020636F6D6D616E640058313A20090974FD
:100B900075726E206563686F20666F722073657270
:100BA00069616C20706F7274206F6E0058303A204B
:100BB00009097475726E206563686F20666F722014
:100BC00073657269616C20706F7274206F66660065
:100BD00050313A2009097475726E2070726F6D7011
:100BE00074206F6E0050303A2009097475726E20BF
:100BF00070726F6D7074206F6666004D5243207680
:100C0000657273696F6E2056322E32007761697497
:100C100020313030206D7300776169742000206DC1
:080C2000730072656164790044
:101BEF007F6D12000E7F7212000E7F6312000E7F48
:101BFF002D12000E7F3112000EE53160057F21128C
:071C0F00000E7F3E02000EF3
:101C38007F4512000E7F5212000E7F5212000E7F57
:101C48004F12000E7F5212000E7F2112000E021C4E
:011C5800CAC1
:101B9E0074002FF582E43400F583E0F53274012FE2
:101BAE00F582E43400F583E0F533EF2403F5237B6F
:091BBE00007A0079321217862228
:100F9B00E4F53674002FF582E43400F583E0F52A8E
:100FAB0074012FF582E43400F583E0F52B74022FE6
:100FBB00F582E43400F583E0F52C74032FF582E41D
:100FCB003400F583E0F52D752703E52C64206004D0
:100FDB00E52C7003752702E52B64206004E52B706C
:100FEB0003752701E52AC39430406DE52AD3943964
:100FFB0040030210D9E52764037064E52D6420607B
:10100B0003753601E52AC394304013E52AD3943295
:10101B00500CE52A24D075F064A4F5278003021048
:10102B00D9E52BC394304015E52BD39439500EE5FD
:10103B002B24D075F00AA42527F52780030210D99D
:10104B00E52CC394304011E52CD39439500AE52C90
:10105B0024D02527F52780028074EF2404F523E59F
:10106B002764027044E52C64206003753601E52A81
:10107B00C394304013E52AD39439500CE52A24D07D
:10108B0075F00AA4F52780028044E52BC394304009
:10109B0011E52BD39439500AE52B24D02527F527BE
:1010AB008002802AEF2403F523E5276401702AE5EB
:1010BB002B64206003753601E52AC39430400FE59D
:1010CB002AD394395008E52A24D0F52780067536A3
:0C10DB00017F0022EF2402F523AF272242
:1010E700AB07E4F53674002BF582E43400F583E0B2
:1010F700FFC394304012EFD39439500CEF24D0F54E
:1011070029E434FFF5288007753601E4FEFF2274D1
:10111700012BF582E43400F583E0FFC3943040757A
:10112700EFD39439506FAE28AF297C007D0A120F98
:101137000E8E288F2974012BF582E43400F583E0A5
:1011470024D0FFE434FFFEEF2529F529EE3528F5F5
:101157002874022BF582E43400F583E0FFC3943052
:101167004033EFD39439502DAE28AF297C007D0A48
:10117700120F0E8E288F2974022BF582E43400F5A6
:1011870083E024D0FFE434FFFEEF2529F529EE356F
:1011970028F528800302122774032BF582E4340014
:1011A700F583E0FFC394304033EFD39439502DAE2D
:1011B70028AF297C007D0A120F0E8E288F29740311
:1011C7002BF582E43400F583E024D0FFE434FFFEFE
:1011D700EF2529F529EE3528F52880028042740489
:1011E7002BF582E43400F583E0FFC394304031EF00
:1011F700D39439502BAE28AF297C007D0A120F0EED
:101207008E288F2974042BF582E43400F583E024BB
:10121700D0FFE434FFFEEF2529F529EE3528F52820
:05122700AE28AF2922F2
:101B7300120F9B8F38E53660037F0022AF23120FCD
:101B83009B8F43E53660037F0022AF23120F9B8FA9
:0B1B930022E53660037F00227F012264
:101C5900120F9B8F38E53660037F0022AF23120FE6
:0D1C69009B8F43E53660037F00227F012240
:10002600750901E5307002F509900000E0120F75C0
:1000360003E53F00914100D74201AC43026244030D
:10004600294603A94703E54805084C051F4F05A4A3
:100056005005D45206A453079F5707F558009161DF
:1000660000D76201AC6302626403296603A96703D1
:10007600E56805086C051F6F05A47005D47206A413
:1000860073079F7707F5780000080C900001E0647D
:1000960020600302080CE5306407600302080CA325
:1000A600E0F532A3E0F5337B007A00793212178649
:1000B6008F08900004E0F532A3E0F5337B007A0068
:1000C6007932121786AB07AD08E4FF1219F602085B
:1000D60009900001E0FF64646008EF646460030255
:1000E60001837F02120F9B7524008F25E525640985
:1000F600452470157BFF7A087920121BC7121CCA8B
:10010600759A7E75397EE4F509E5256413452470F4
:10011600157BFF7A087938121BC7121CCA759ABF5D
:100126007539BFE4F509E5256426452470157BFF7E
:100136007A087950121BC7121CCA759ADF7539DF07
:10014600E4F509E5256439452470157BFF7A0879BD
:1001560069121BC7121CCA759AEA7539EAE4F509D1
:10016600E5256473452470157BFF7A087982121B96
:10017600C7121CCA759AF57539F5E4F509900001A0
:10018600E0FF64736008EF6453600302080CAD3946
:100196007F047E80121C167BFF7A08799C121BC78F
:1001A600121CCA020809900001E0FF644C6004EFCB
:1001B600B46C0FE4F53BF53CF53EF53F1219A1E4AE
:1001C600F509900001E0FF644D6005EF646D705421
:1001D600900002E0FF64446005EF646470467F04AB
:1001E600120F9B8F41E536600302080CE52F700362
:1001F60002080CAF23121B73EF700302080CAF2327
:100206001210E78E248F25E536600302080C752F41
:10021600FF121643EF600DE5316003120C2812122F
:100226002CE4F509900001E0FF64506008EF64706B
:10023600600302080C7F03121C59EF700302080CBE
:10024600752F02852F41121643EF700302080CE545
:10025600316003120C2812122C020809E530640ED4
:10026600600302080C900001E0F532A3E0F5337B51
:10027600007A007932121786901000EFF090000392
:10028600E0F532A3E0F5337B007A00793212178667
:10029600901001EFF0900005E0F532A3E0F5337B16
:1002A600007A007932121786901002EFF09000075C
:1002B600E0F532A3E0F5337B007A00793212178637
:1002C600901003EFF0900009E0F532A3E0F5337BE0
:1002D600007A007932121786901004EFF090000B26
:1002E600E0F532A3E0F5337B007A00793212178607
:1002F600901006EFF0A37401F0901005E020E0F9ED
:10030600901004E0FF121C8B901003E0FF121C8B70
:100316007F2012000E901005E0FF121C8B121CCAE3
:10032600020809900001E0FF64526004EFB47227EE
:100336007F03121B9E8F38E538D3940740030208CB
:100346000C74002538F582E43410F583E0FF121BA7
:1003560047121CCAE4F509900001E0FF64576008E3
:10036600EF6477600302080C7F03121B9E8F38E54B
:1003760038D39407400302080CAF23121B9E8F4309
:1003860074002538F582E43410F583E543F0AF3880
:10039600121B477F2012000EAF43121B47121CCAC6
:1003A600020809900001E0FF64526008EF64726081
:1003B6000302080C7F03120F9B8F2F121B477BFF34
:1003C6007A0879B3121BC77400252FF582E434101E
:1003D600F583E0FF7E001218DF121CCA0208097BB3
:1003E600FF7A0879B6121BC7121CCA7BFF7A0879F6
:1003F600D3121BC7121CCA7BFF7A097915121BC7B9
:10040600121CCA7BFF7A097943121BC7121CCA7BCE
:10041600FF7A097956121BC7121CCA7BFF7A097923
:1004260070121BC7121CCA7BFF7A09799E121BC762
:10043600121CCA7BFF7A0979B6121BC7121CCA7B2B
:10044600FF7A0979D9121BC7121CCA7BFF7A097970
:10045600FD121BC7121CCA7BFF7A0A792E121BC714
:10046600121CCA7BFF7A0A7956121BC7121CCA7B5A
:10047600FF7A0A797E121BC7121CCA7BFF7A0A7999
:10048600A8121BC7121CCA7BFF7A0A79C5121BC7A2
:10049600121CCA7BFF7A0A79E3121BC7121CCA7B9D
:1004A600FF7A0B790C121BC7121CCA7BFF7A0B79D9
:1004B60033121BC7121CCA7BFF7A0B795A121BC751
:1004C600121CCA7BFF7A0B7989121BC7121CCA7BC6
:1004D600FF7A0B79AC121BC7121CCA7BFF7A0B7909
:1004E600D0121BC7121CCA7BFF7A0B79E5121BC7F9
:1004F600121CCA7BFF7A0B79FB121BC7121CCA029D
:100506000809900001E0FF64496008EF6469600330
:1005160002080C1219A1020809900001E0FF644EBE
:100526006005EF646E70297F03121C59EF70030299
:10053600080C752F03852F41E4F524F52512164383
:10054600EF600DE5316003120C2812122CE4F50958
:10055600900001E0FF64466008EF646660030208ED
:100566000C900002E0FF64466008EF6466600302D8
:10057600080C7F04121C59EF700302080C752F0437
:10058600852F41E4F524F525121643EF7003020882
:100596000CE5316003120C2812122C020809900097
:1005A60001E0FF64536004EFB4730612180AE4F521
:1005B60009900001E0FFB43005E4F53AF509EF646F
:1005C60031600302080C753A01F50902080C900027
:1005D60001E0FF64456005EF646570297F03121B27
:1005E60073EF700302080C752F12852F41E4F52472
:1005F600F525121643EF600DE5316003120C281243
:10060600122CE4F509900001E0FF644D6005EF64EB
:100616006D70297F03121B73EF700302080C752F90
:1006260013852F41E4F524F525121643EF600DE5F9
:10063600316003120C2812122CE4F509900001E037
:10064600FF64536005EF64737037900002E0FF6447
:10065600546005EF647470297F04121C59EF70030F
:1006660002080C752F05852F41E4F524F525121691
:1006760043EF600DE5316003120C2812122CE4F5ED
:1006860009900001E0FFB43106753101E4F509EF88
:100696006430600302080CF531F50902080C90007D
:1006A60001E0FF64436004EFB463177F03120F9BFE
:1006B6008F38E538D39402400302080C12158EE4F5
:1006C600F509900001E0FF64456005EF646570344C
:1006D6007F03121B73EF700302080CAF231210E79F
:1006E6008E248F25E536600302080C752F10852FA2
:1006F60041121643EF600DE5316003120C28121209
:100706002CE4F509900001E0FF644D6005EF646D8F
:1007160070347F03121B73EF700302080CAF2312B1
:1007260010E78E248F25E536600302080C752F111D
:10073600852F41121643EF600DE5316003120C2838
:1007460012122CE4F509900001E0FF64526008EFF4
:100756006472600302080C7F03120F9B8F2FAF2376
:100766001210E78E248F257400252FF582E43410AD
:10077600F583EFF0AF2F121B477BFF7A0879B31290
:100786001BC77400252FF582E43410F583E0FF7E45
:10079600001218DF121CCA806A900001E0FF644153
:1007A6006005EF6461705F7F03120F9B8F2F749B50
:1007B600440F7BFF700E7A0C790C121BC7121CCAF1
:1007C6007F64801A7A0C7918121BC7AF2F121B4749
:1007D6007BFF7A0C791E121BC7121CCAAF2F121C84
:1007E600B07BFF7A0C7922121BC7121CCA801490A8
:1007F6000001E0FFB43005E4F526F509EFB4310653
:10080600752601E4F509E5096003121C38E4F52FA5
:09081600F530E53A6003121BEF16
:01081F0022B6
:10158E007F4912000E7F4412000E7F2D12000E7F37
:10159E005312000E7F4312000E7F4112000E7F4E3B
:1015AE0012000E7F2012000E7F4212000E7F551287
:1015BE00000E7F5312000E7F2012000EAF38121B4A
:1015CE00477F3A12000EE4F50A121CCAE4F52175A3
:1015DE002F06852F41F524F525850A43121643AFB4
:1015EE000A121B477F3A12000E7F2012000EE521D1
:1015FE00B401047F2D802FE524C313E52513FF12BC
:10160E001B477F2C12000E7F2012000EE52430E7C0
:10161E00097F4F12000E7F4E800C7F3012000E7F1E
:10162E004612000E7F4612000E050AE50AC39410FC
:05163E004097021CCAE8
:100C2800E53F2410FFE53E3480FEAD2F121C16E58B
:100C38003F2410FFE53E34808F82F583E493B52F7F
:100C48000A053FE53F700C053E8008121B177F011F
:100C5800020D88E53F2410FFE53E3480FEAD4112C9
:100C68001C16E53F2410FFE53E34808F82F583E4AF
:100C780093B5410A053FE53F700C053E8008121BFD
:100C8800177F02020D88E53F2410FFE53E3480FE01
:100C9800AD38121C16E53F2410FFE53E34808F82E4
:100CA800F583E493B5380A053FE53F700C053E80AF
:100CB80008121B177F03020D88E53F2410FFE53E4D
:100CC8003480FEAD43121C16E53F2410FFE53E3488
:100CD800808F82F583E493B5430A053FE53F700CA6
:100CE800053E8008121B177F04020D88E53F24107B
:100CF800FFE53E3480FEAD22121C16E53F2410FFAE
:100D0800E53E34808F82F583E493B5220A053FE5FA
:100D18003F700B053E8007121B177F058062E53F79
:100D28002410FFE53E3480FEAD40121C16E53F243A
:100D380010FFE53E34808F82F583E493B5400A05C1
:100D48003FE53F700B053E8007121B177F0680307A
:100D5800E53F2410FFE53E3480FEAD42121C16E547
:100D68003F2410FFE53E34808F82F583E493B5423B
:100D78000A053FE53F700C053E8008121B177F07E8
:100D8800021B47053CE53C7002053BE4F50AAD3C17
:100D98007F027E80121C16908002E493653C7002EC
:100DA800E53B6002050AE53BFD7F037E80121C16C9
:100DB800E53BFF908003E4936F7001E46004050A4B
:100DC800050AAD3F7F007E80121C16908000E493D8
:100DD800653F60067404250AF50AE53EFD7F017E3D
:100DE80080121C16E53EFF908001E4936F7001E4C9
:100DF80060067408250AF50AE50AD39400403712FC
:100E08001B177F09121B477F2012000EAF0A121B07
:100E1800477F2012000EAF3FAE3E1218DF7F201230
:100E2800000EE53C153C7002153B74F9253FF53F73
:060E380074FF353EF53E9B
:010E3E002291
:101B17007F4512000E7F5212000E7F5212000E7F79
:101B27003A12000E7F4612000E7F4C12000E7F41C4
:101B370012000E7F5312000E7F4812000E021CCABD
:10180A007F5312000E7F4312000E7F5212000E7F8A
:10181A004912000E7F5012000E7F5412000E7F20D4
:10182A0012000E7F5312000E7F5412000E7F4112D7
:10183A00000E7F5212000E7F5412000E7F3A1200E1
:10184A000E7F2012000EE53BFF121B47AF3C121B16
:10185A0047121CCAE4F534F535C3E535953FE5343E
:10186A00953E500B12141C12122C12164380EA22B7
:1019A1007F4312000E7F4D12000E7F4412000E7F06
:1019B1002D12000E7F4C12000E7F4912000E7F5334
:1019C10012000E7F5412000E7F3A12000E7F201279
:1019D100000EAF3CAE3B1218DF121CCAE4F534F521
:1019E10035C3E535953FE534953E500812141C1278
:0519F100122C80ED2224
:10141C000535E535AE3470020534142410FFEE3476
:10142C00808F82F583E493F52F0535E535AE347066
:10143C00020534142410FFEE34808F82F583E4937C
:10144C00F5410535E535AE3470020534142410FF32
:10145C00EE34808F82F583E493F5380535E535AEAF
:10146C003470020534142410FFEE34808F82F5831F
:10147C00E493F5430535E535AE3470020534142498
:10148C0010FFEE34808F82F583E493F5220535E569
:10149C0035AE3470020534142410FFEE34808F8284
:1014AC00F583E493752500F5240535E535AE3470E8
:1014BC00020534142410FFEE34808F82F583E493FC
:0A14CC002525F525E43524F524223A
:10122C00E52F120F7512B30212850312910412A24C
:10123C0005125810126111125012125413126AFF37
:10124C00000012C27F5280067F52800B7F53120027
:10125C000E7F45802B7F5312000E7F4D80227F43E3
:10126C0012000E7F4D12000E7F4412000E7F2012D2
:10127C00000EAF41121B4780387F4F12000E7F4E7D
:10128C0012000E802C7F4F12000E7F4612000E7F34
:10129C004612000E801B7F5212000E7F5312000E5E
:1012AC007F5412000E800A7F4312000E7F501200F2
:1012BC000E7F2012000EE52F24FE24FC505024F645
:1012CC0024FC500424157055AF38121B477F201294
:1012DC00000EAF43121B477F2012000EAF22121BD1
:1012EC00477F2012000ED3E5259400E5249480401E
:1012FC00147F2D12000EE524F4FEE525F42401FFE5
:10130C00E43EFE8004AF25AE241218DF800FAF3808
:10131C00121B477F2012000EAF43121B47021CCA40
:10164300E52FB4FE037F0122E538D394015006E56C
:1016530043940F40037F0022901000E543F0A3E57D
:1016630041F0A3E522F0AD258D42E524FFF540A32B
:10167300EDF0A3EFF0901006E538F0A37401F090BD
:101683001005E0FF20E0F8EF30E248901000E5435A
:10169300F0A3E541F0A3E522F0A3E525F0E524A3BB
:1016A300F0901006E538F0A37401F0901005E0FF08
:1016B30020E0F8EF30E210E52F640660077F0112A7
:1016C300187A8003752101901005E030E1057F024F
:1016D30012187A901005E030E1057F0212187A9013
:1016E3001004E0FE901003E07C002400F525EC3E9E
:0516F300F5247F012237
:10187A008F0B7F4512000E7F5212000E7F5212000C
:10188A000E7F3A12000EE50B640170287F4E12009B
:10189A000E7F4F12000E7F2012000E7F5212000E92
:1018AA007F4512000E7F5312000E7F5012000E7FEA
:1018BA002012000EE50BB402197F4112000E7F447C
:1018CA0012000E7F4412000E7F5212000E7F201269
:0518DA00000E021CCA13
:101C9E00F922C002C004C00612FFF0D006D004D054
:021CAE00022210
:03000000021CBE21
:0C1CBE00787FE4F6D8FD7581430214D64F
:100E3F00BB010689828A83E0225002E722BBFE02B1
:090E4F00E32289828A83E49322E4
:100E5800BB010CE58229F582E5833AF583E022504F
:100E680006E92582F8E622BBFE06E92582F8E22299
:0D0E7800E58229F582E5833AF583E49322B3
:100E8500BB010989828A83F8E028F022500327F7FD
:100E950022BBFE05F8E328F3228A838982F8E493CE
:020EA500282201
:100EA700BB010FF8E58229F582E5833AF583E0284F
:100EB700F0225009C58229F8E58226F622BBFE09F1
:100EC700C58229F8E22582F222F8EA2583F583E92B
:030ED7009328223B
:100EDA00BB010689828A83F0225002F722BBFE01F7
:020EEA00F322F1
:100EEC00F8BB010DE58229F582E5833AF583E8F03C
:100EFC00225006E92582C8F622BBFE05E92582C8E8
:020F0C00F222CF
:100F0E00EF8DF0A4A8F0CF8CF0A428CE8DF0A42EF7
:020F1E00FE22B1
:100F2000BC000BBE0029EF8DF084FFADF022E4CCB5
:100F3000F875F008EF2FFFEE33FEEC33FCEE9DEC7E
:100F4000984005FCEE9DFE0FD5F0E9E4CEFD22EDC4
:100F5000F8F5F0EE8420D21CFEADF075F008EF2F0E
:100F6000FFED33FD4007985006D5F0F222C398FDFF
:050F70000FD5F0EA229C
:100F7500D083D082F8E4937012740193700DA3A30B
:100F850093F8740193F5828883E47374029368601F
:060F9500EFA3A3A380DF1F
:101C7600E4FFFE120E3F600C0FEF70010E09E970D3
:051C8600F20A80EF22CC
:00000001FF
